{
  "transactions": [
    {
      "hash": "0xc6bd2f0ecc56794836c1e97f131884418e033d3491a4be5cb959616f8bfefc7e",
      "transactionType": "CALL",
      "contractName": null,
      "contractAddress": "0xc18360217d8f7ab5e7c516566761ea12ce7f9d72",
      "function": "transfer(address,uint256)",
      "arguments": [
        "0xD5E90EdAa0a44f529cafDe088E93C71527A39c8E",
        "1000000000000000000000"
      ],
      "transaction": {
        "from": "0x690f0581ececcf8389c223170778cd9d029606f2",
        "to": "0xc18360217d8f7ab5e7c516566761ea12ce7f9d72",
        "gas": "0x13421",
        "value": "0x0",
        "input": "0xa9059cbb000000000000000000000000d5e90edaa0a44f529cafde088e93c71527a39c8e00000000000000000000000000000000000000000000003635c9adc5dea00000",
        "nonce": "0x1",
        "chainId": "0x1"
      },
      "additionalContracts": [],
      "isFixedGasLimit": false
    },
    {
      "hash": "0x5a60f2830af32a355a6895ba8b727ffd4b461ddddbf73e76bdd6941014f280dd",
      "transactionType": "CALL",
      "contractName": null,
      "contractAddress": "0xd5e90edaa0a44f529cafde088e93c71527a39c8e",
      "function": null,
      "arguments": null,
      "transaction": {
        "from": "0x690f0581ececcf8389c223170778cd9d029606f2",
        "to": "0xd5e90edaa0a44f529cafde088e93c71527a39c8e",
        "gas": "0x714d",
        "value": "0xde0b6b3a7640000",
        "input": "0x",
        "nonce": "0x2",
        "chainId": "0x1"
      },
      "additionalContracts": [],
      "isFixedGasLimit": false
    },
    {
      "hash": "0x4c5e5c0626181ffc96acf7ec34fc14d4efe63e08887d37b91e5ed39465a18ef5",
      "transactionType": "CALL",
      "contractName": null,
      "contractAddress": "0xc18360217d8f7ab5e7c516566761ea12ce7f9d72",
      "function": "delegate(address)",
      "arguments": [
        "0xD5E90EdAa0a44f529cafDe088E93C71527A39c8E"
      ],
      "transaction": {
        "from": "0xd5e90edaa0a44f529cafde088e93c71527a39c8e",
        "to": "0xc18360217d8f7ab5e7c516566761ea12ce7f9d72",
        "gas": "0x2084c",
        "value": "0x0",
        "input": "0x5c19a95c000000000000000000000000d5e90edaa0a44f529cafde088e93c71527a39c8e",
        "nonce": "0x0",
        "chainId": "0x1"
      },
      "additionalContracts": [],
      "isFixedGasLimit": false
    },
    {
      "hash": "0xbbedf7acd679a76164ff73e200eb2ed3f41bd1f14d2ef1a092ae95069c339f08",
      "transactionType": "CALL",
      "contractName": null,
      "contractAddress": "0xc18360217d8f7ab5e7c516566761ea12ce7f9d72",
      "function": "transfer(address,uint256)",
      "arguments": [
        "0xe9D9c8f746937803094f1019C94e0252Be8A0547",
        "10000000000000000000000"
      ],
      "transaction": {
        "from": "0x690f0581ececcf8389c223170778cd9d029606f2",
        "to": "0xc18360217d8f7ab5e7c516566761ea12ce7f9d72",
        "gas": "0x14653",
        "value": "0x0",
        "input": "0xa9059cbb000000000000000000000000e9d9c8f746937803094f1019c94e0252be8a054700000000000000000000000000000000000000000000021e19e0c9bab2400000",
        "nonce": "0x3",
        "chainId": "0x1"
      },
      "additionalContracts": [],
      "isFixedGasLimit": false
    },
    {
      "hash": "0x130e64049338cd2e47cfe9d9592c3a88155e7caac9b0f139d23e9370f0da8390",
      "transactionType": "CALL",
      "contractName": null,
      "contractAddress": "0xe9d9c8f746937803094f1019c94e0252be8a0547",
      "function": null,
      "arguments": null,
      "transaction": {
        "from": "0x690f0581ececcf8389c223170778cd9d029606f2",
        "to": "0xe9d9c8f746937803094f1019c94e0252be8a0547",
        "gas": "0x714d",
        "value": "0xde0b6b3a7640000",
        "input": "0x",
        "nonce": "0x4",
        "chainId": "0x1"
      },
      "additionalContracts": [],
      "isFixedGasLimit": false
    },
    {
      "hash": "0xe4050b02e4a695a256f1af9b3e9662d9f9507454a4ad936bde420b482d7f7e4a",
      "transactionType": "CALL",
      "contractName": null,
      "contractAddress": "0xc18360217d8f7ab5e7c516566761ea12ce7f9d72",
      "function": "delegate(address)",
      "arguments": [
        "0xe9D9c8f746937803094f1019C94e0252Be8A0547"
      ],
      "transaction": {
        "from": "0xe9d9c8f746937803094f1019c94e0252be8a0547",
        "to": "0xc18360217d8f7ab5e7c516566761ea12ce7f9d72",
        "gas": "0x2084c",
        "value": "0x0",
        "input": "0x5c19a95c000000000000000000000000e9d9c8f746937803094f1019c94e0252be8a0547",
        "nonce": "0x0",
        "chainId": "0x1"
      },
      "additionalContracts": [],
      "isFixedGasLimit": false
    },
    {
      "hash": "0x65139385d4b6796e8b0b5abbb03749d748c537aa6fcf0e91cd1c99cc9883fcc9",
      "transactionType": "CALL",
      "contractName": null,
      "contractAddress": "0xc18360217d8f7ab5e7c516566761ea12ce7f9d72",
      "function": "transfer(address,uint256)",
      "arguments": [
        "0x0B535A60b26023B4c5c6BeEa1e445f46BBDd906A",
        "50000000000000000000000"
      ],
      "transaction": {
        "from": "0x690f0581ececcf8389c223170778cd9d029606f2",
        "to": "0xc18360217d8f7ab5e7c516566761ea12ce7f9d72",
        "gas": "0x14653",
        "value": "0x0",
        "input": "0xa9059cbb0000000000000000000000000b535a60b26023b4c5c6beea1e445f46bbdd906a000000000000000000000000000000000000000000000a968163f0a57b400000",
        "nonce": "0x5",
        "chainId": "0x1"
      },
      "additionalContracts": [],
      "isFixedGasLimit": false
    },
    {
      "hash": "0x6d1e3aa306369288ff925c04a881a187d762d32f3ca83994bc0daeb8882561f8",
      "transactionType": "CALL",
      "contractName": null,
      "contractAddress": "0x0b535a60b26023b4c5c6beea1e445f46bbdd906a",
      "function": null,
      "arguments": null,
      "transaction": {
        "from": "0x690f0581ececcf8389c223170778cd9d029606f2",
        "to": "0x0b535a60b26023b4c5c6beea1e445f46bbdd906a",
        "gas": "0x714d",
        "value": "0xde0b6b3a7640000",
        "input": "0x",
        "nonce": "0x6",
        "chainId": "0x1"
      },
      "additionalContracts": [],
      "isFixedGasLimit": false
    },
    {
      "hash": "0x020598d7b751d3603ed294c1560f2b5e794151c98add9ea94bc4756b66ada373",
      "transactionType": "CALL",
      "contractName": null,
      "contractAddress": "0xc18360217d8f7ab5e7c516566761ea12ce7f9d72",
      "function": "delegate(address)",
      "arguments": [
        "0x0B535A60b26023B4c5c6BeEa1e445f46BBDd906A"
      ],
      "transaction": {
        "from": "0x0b535a60b26023b4c5c6beea1e445f46bbdd906a",
        "to": "0xc18360217d8f7ab5e7c516566761ea12ce7f9d72",
        "gas": "0x2084c",
        "value": "0x0",
        "input": "0x5c19a95c0000000000000000000000000b535a60b26023b4c5c6beea1e445f46bbdd906a",
        "nonce": "0x0",
        "chainId": "0x1"
      },
      "additionalContracts": [],
      "isFixedGasLimit": false
    },
    {
      "hash": "0xa0f45e074a46c3e4a1443f9234b1e31d0c30da4b3431db661d585a245deea669",
      "transactionType": "CALL",
      "contractName": null,
      "contractAddress": "0xc18360217d8f7ab5e7c516566761ea12ce7f9d72",
      "function": "transfer(address,uint256)",
      "arguments": [
        "0x3a9b0C811312A51fc63D3D4C21BCFbF1107C4d47",
        "1000000000000000000000"
      ],
      "transaction": {
        "from": "0x690f0581ececcf8389c223170778cd9d029606f2",
        "to": "0xc18360217d8f7ab5e7c516566761ea12ce7f9d72",
        "gas": "0x13421",
        "value": "0x0",
        "input": "0xa9059cbb0000000000000000000000003a9b0c811312a51fc63d3d4c21bcfbf1107c4d4700000000000000000000000000000000000000000000003635c9adc5dea00000",
        "nonce": "0x7",
        "chainId": "0x1"
      },
      "additionalContracts": [],
      "isFixedGasLimit": false
    },
    {
      "hash": "0x8e2a45ae1139a03a8e66ac538de8bf96ae4f94cfa91e6e3297d33e8a914c2aae",
      "transactionType": "CALL",
      "contractName": null,
      "contractAddress": "0x3a9b0c811312a51fc63d3d4c21bcfbf1107c4d47",
      "function": null,
      "arguments": null,
      "transaction": {
        "from": "0x690f0581ececcf8389c223170778cd9d029606f2",
        "to": "0x3a9b0c811312a51fc63d3d4c21bcfbf1107c4d47",
        "gas": "0x714d",
        "value": "0xde0b6b3a7640000",
        "input": "0x",
        "nonce": "0x8",
        "chainId": "0x1"
      },
      "additionalContracts": [],
      "isFixedGasLimit": false
    },
    {
      "hash": "0xa8d80ac705625010bf240063f7e58151d12ad93bb8d96abb1e94100a99ee0311",
      "transactionType": "CALL",
      "contractName": null,
      "contractAddress": "0xc18360217d8f7ab5e7c516566761ea12ce7f9d72",
      "function": "delegate(address)",
      "arguments": [
        "0x3a9b0C811312A51fc63D3D4C21BCFbF1107C4d47"
      ],
      "transaction": {
        "from": "0x3a9b0c811312a51fc63d3d4c21bcfbf1107c4d47",
        "to": "0xc18360217d8f7ab5e7c516566761ea12ce7f9d72",
        "gas": "0x2084c",
        "value": "0x0",
        "input": "0x5c19a95c0000000000000000000000003a9b0c811312a51fc63d3d4c21bcfbf1107c4d47",
        "nonce": "0x0",
        "chainId": "0x1"
      },
      "additionalContracts": [],
      "isFixedGasLimit": false
    },
    {
      "hash": "0xd6e9fe12366bc8dcc315c40ff73194f2798752c699edc4456a927d22cb40a5e6",
      "transactionType": "CALL",
      "contractName": null,
      "contractAddress": "0xc18360217d8f7ab5e7c516566761ea12ce7f9d72",
      "function": "transfer(address,uint256)",
      "arguments": [
        "0x409C30EdE66C2dE55f7B7152F6720A5811571aC7",
        "10000000000000000000000"
      ],
      "transaction": {
        "from": "0x690f0581ececcf8389c223170778cd9d029606f2",
        "to": "0xc18360217d8f7ab5e7c516566761ea12ce7f9d72",
        "gas": "0x14653",
        "value": "0x0",
        "input": "0xa9059cbb000000000000000000000000409c30ede66c2de55f7b7152f6720a5811571ac700000000000000000000000000000000000000000000021e19e0c9bab2400000",
        "nonce": "0x9",
        "chainId": "0x1"
      },
      "additionalContracts": [],
      "isFixedGasLimit": false
    },
    {
      "hash": "0xafb8f11ad61c105cf23c25fd4a7763ccce1bff1d1cfc590435db4cd893edda23",
      "transactionType": "CALL",
      "contractName": null,
      "contractAddress": "0x409c30ede66c2de55f7b7152f6720a5811571ac7",
      "function": null,
      "arguments": null,
      "transaction": {
        "from": "0x690f0581ececcf8389c223170778cd9d029606f2",
        "to": "0x409c30ede66c2de55f7b7152f6720a5811571ac7",
        "gas": "0x714d",
        "value": "0xde0b6b3a7640000",
        "input": "0x",
        "nonce": "0xa",
        "chainId": "0x1"
      },
      "additionalContracts": [],
      "isFixedGasLimit": false
    },
    {
      "hash": "0xe1c928fa3322e4d8d0faf0e393cdd107c5dba66546a39084978d86865f27accf",
      "transactionType": "CALL",
      "contractName": null,
      "contractAddress": "0xc18360217d8f7ab5e7c516566761ea12ce7f9d72",
      "function": "delegate(address)",
      "arguments": [
        "0x409C30EdE66C2dE55f7B7152F6720A5811571aC7"
      ],
      "transaction": {
        "from": "0x409c30ede66c2de55f7b7152f6720a5811571ac7",
        "to": "0xc18360217d8f7ab5e7c516566761ea12ce7f9d72",
        "gas": "0x2084c",
        "value": "0x0",
        "input": "0x5c19a95c000000000000000000000000409c30ede66c2de55f7b7152f6720a5811571ac7",
        "nonce": "0x0",
        "chainId": "0x1"
      },
      "additionalContracts": [],
      "isFixedGasLimit": false
    },
    {
      "hash": "0x768591549957f7ad9042be10a29bbcba32cedbd56756c260d34bc5a3a333e70b",
      "transactionType": "CALL",
      "contractName": null,
      "contractAddress": "0xc18360217d8f7ab5e7c516566761ea12ce7f9d72",
      "function": "transfer(address,uint256)",
      "arguments": [
        "0xfc4627A097987907642e6b8C90bCb69c9BEB6d71",
        "50000000000000000000000"
      ],
      "transaction": {
        "from": "0x690f0581ececcf8389c223170778cd9d029606f2",
        "to": "0xc18360217d8f7ab5e7c516566761ea12ce7f9d72",
        "gas": "0x14653",
        "value": "0x0",
        "input": "0xa9059cbb000000000000000000000000fc4627a097987907642e6b8c90bcb69c9beb6d71000000000000000000000000000000000000000000000a968163f0a57b400000",
        "nonce": "0xb",
        "chainId": "0x1"
      },
      "additionalContracts": [],
      "isFixedGasLimit": false
    },
    {
      "hash": "0xa1a164b59178edb623dfdbc1dcbb96c5bda2df309ec775b9030bb756c23e10e8",
      "transactionType": "CALL",
      "contractName": null,
      "contractAddress": "0xfc4627a097987907642e6b8c90bcb69c9beb6d71",
      "function": null,
      "arguments": null,
      "transaction": {
        "from": "0x690f0581ececcf8389c223170778cd9d029606f2",
        "to": "0xfc4627a097987907642e6b8c90bcb69c9beb6d71",
        "gas": "0x714d",
        "value": "0xde0b6b3a7640000",
        "input": "0x",
        "nonce": "0xc",
        "chainId": "0x1"
      },
      "additionalContracts": [],
      "isFixedGasLimit": false
    },
    {
      "hash": "0x5acb7b9b19ee1811b11abf27c919dc6ecebb38a5ae3a9182326d2de667b86f95",
      "transactionType": "CALL",
      "contractName": null,
      "contractAddress": "0xc18360217d8f7ab5e7c516566761ea12ce7f9d72",
      "function": "delegate(address)",
      "arguments": [
        "0xfc4627A097987907642e6b8C90bCb69c9BEB6d71"
      ],
      "transaction": {
        "from": "0xfc4627a097987907642e6b8c90bcb69c9beb6d71",
        "to": "0xc18360217d8f7ab5e7c516566761ea12ce7f9d72",
        "gas": "0x2084c",
        "value": "0x0",
        "input": "0x5c19a95c000000000000000000000000fc4627a097987907642e6b8c90bcb69c9beb6d71",
        "nonce": "0x0",
        "chainId": "0x1"
      },
      "additionalContracts": [],
      "isFixedGasLimit": false
    },
    {
      "hash": "0xf735ff7d7a2232b7816254e484c46e537d803eeb5af5826b38d86c559eadc116",
      "transactionType": "CALL",
      "contractName": null,
      "contractAddress": "0xc18360217d8f7ab5e7c516566761ea12ce7f9d72",
      "function": "transfer(address,uint256)",
      "arguments": [
        "0x715DF8928803e7c53C96021dcCD1F028BfE2777C",
        "1000000000000000000000"
      ],
      "transaction": {
        "from": "0x690f0581ececcf8389c223170778cd9d029606f2",
        "to": "0xc18360217d8f7ab5e7c516566761ea12ce7f9d72",
        "gas": "0x13421",
        "value": "0x0",
        "input": "0xa9059cbb000000000000000000000000715df8928803e7c53c96021dccd1f028bfe2777c00000000000000000000000000000000000000000000003635c9adc5dea00000",
        "nonce": "0xd",
        "chainId": "0x1"
      },
      "additionalContracts": [],
      "isFixedGasLimit": false
    },
    {
      "hash": "0xa956fb7b3adeacd3927b525e4bdb0126a5c82689e18a7d95e0e48e15f67bed32",
      "transactionType": "CALL",
      "contractName": null,
      "contractAddress": "0x715df8928803e7c53c96021dccd1f028bfe2777c",
      "function": null,
      "arguments": null,
      "transaction": {
        "from": "0x690f0581ececcf8389c223170778cd9d029606f2",
        "to": "0x715df8928803e7c53c96021dccd1f028bfe2777c",
        "gas": "0x714d",
        "value": "0xde0b6b3a7640000",
        "input": "0x",
        "nonce": "0xe",
        "chainId": "0x1"
      },
      "additionalContracts": [],
      "isFixedGasLimit": false
    },
    {
      "hash": "0x02fb9192abd08bdbe64b65ebfc2a56a6bf9962fad9b56ef43b2c1d89187a8aa9",
      "transactionType": "CALL",
      "contractName": null,
      "contractAddress": "0xc18360217d8f7ab5e7c516566761ea12ce7f9d72",
      "function": "delegate(address)",
      "arguments": [
        "0x715DF8928803e7c53C96021dcCD1F028BfE2777C"
      ],
      "transaction": {
        "from": "0x715df8928803e7c53c96021dccd1f028bfe2777c",
        "to": "0xc18360217d8f7ab5e7c516566761ea12ce7f9d72",
        "gas": "0x2084c",
        "value": "0x0",
        "input": "0x5c19a95c000000000000000000000000715df8928803e7c53c96021dccd1f028bfe2777c",
        "nonce": "0x0",
        "chainId": "0x1"
      },
      "additionalContracts": [],
      "isFixedGasLimit": false
    },
    {
      "hash": "0x03a254d5eeaecd88320d229a73cd72316c8a55d517011a79a4a8b6d37373acc7",
      "transactionType": "CALL",
      "contractName": null,
      "contractAddress": "0xc18360217d8f7ab5e7c516566761ea12ce7f9d72",
      "function": "transfer(address,uint256)",
      "arguments": [
        "0x9964e83371C90a07188450cDa2F1eb71D26Cf704",
        "10000000000000000000000"
      ],
      "transaction": {
        "from": "0x690f0581ececcf8389c223170778cd9d029606f2",
        "to": "0xc18360217d8f7ab5e7c516566761ea12ce7f9d72",
        "gas": "0x14653",
        "value": "0x0",
        "input": "0xa9059cbb0000000000000000000000009964e83371c90a07188450cda2f1eb71d26cf70400000000000000000000000000000000000000000000021e19e0c9bab2400000",
        "nonce": "0xf",
        "chainId": "0x1"
      },
      "additionalContracts": [],
      "isFixedGasLimit": false
    },
    {
      "hash": "0x49234692dfb99a8616fe08c9c5a1615ee60590d2e546b617bff6008e58ee9f0e",
      "transactionType": "CALL",
      "contractName": null,
      "contractAddress": "0x9964e83371c90a07188450cda2f1eb71d26cf704",
      "function": null,
      "arguments": null,
      "transaction": {
        "from": "0x690f0581ececcf8389c223170778cd9d029606f2",
        "to": "0x9964e83371c90a07188450cda2f1eb71d26cf704",
        "gas": "0x714d",
        "value": "0xde0b6b3a7640000",
        "input": "0x",
        "nonce": "0x10",
        "chainId": "0x1"
      },
      "additionalContracts": [],
      "isFixedGasLimit": false
    },
    {
      "hash": "0x0fe9af64904f43edfdfef3fd29e0a30201306dd37488204046af3400886ac844",
      "transactionType": "CALL",
      "contractName": null,
      "contractAddress": "0xc18360217d8f7ab5e7c516566761ea12ce7f9d72",
      "function": "delegate(address)",
      "arguments": [
        "0x9964e83371C90a07188450cDa2F1eb71D26Cf704"
      ],
      "transaction": {
        "from": "0x9964e83371c90a07188450cda2f1eb71d26cf704",
        "to": "0xc18360217d8f7ab5e7c516566761ea12ce7f9d72",
        "gas": "0x2084c",
        "value": "0x0",
        "input": "0x5c19a95c0000000000000000000000009964e83371c90a07188450cda2f1eb71d26cf704",
        "nonce": "0x0",
        "chainId": "0x1"
      },
      "additionalContracts": [],
      "isFixedGasLimit": false
    },
    {
      "hash": "0xf8669b5ce9f6e78f3b3161353e2fbaecf90cbe2e593ea0abe6125545390eca3c",
      "transactionType": "CALL",
      "contractName": null,
      "contractAddress": "0xc18360217d8f7ab5e7c516566761ea12ce7f9d72",
      "function": "transfer(address,uint256)",
      "arguments": [
        "0xAb14753F140280066cD201268Cc7AEf2d5d8CcbF",
        "50000000000000000000000"
      ],
      "transaction": {
        "from": "0x690f0581ececcf8389c223170778cd9d029606f2",
        "to": "0xc18360217d8f7ab5e7c516566761ea12ce7f9d72",
        "gas": "0x14653",
        "value": "0x0",
        "input": "0xa9059cbb000000000000000000000000ab14753f140280066cd201268cc7aef2d5d8ccbf000000000000000000000000000000000000000000000a968163f0a57b400000",
        "nonce": "0x11",
        "chainId": "0x1"
      },
      "additionalContracts": [],
      "isFixedGasLimit": false
    },
    {
      "hash": "0x46ea3601a2a02135f9b874e6e75d5f90dbcafe7aba18cdce0c424b8d78de54d5",
      "transactionType": "CALL",
      "contractName": null,
      "contractAddress": "0xab14753f140280066cd201268cc7aef2d5d8ccbf",
      "function": null,
      "arguments": null,
      "transaction": {
        "from": "0x690f0581ececcf8389c223170778cd9d029606f2",
        "to": "0xab14753f140280066cd201268cc7aef2d5d8ccbf",
        "gas": "0x714d",
        "value": "0xde0b6b3a7640000",
        "input": "0x",
        "nonce": "0x12",
        "chainId": "0x1"
      },
      "additionalContracts": [],
      "isFixedGasLimit": false
    },
    {
      "hash": "0x99a6e71ec61fded6e284345be2416c7bd7022c6bc32514aec88aa87b3f4579ec",
      "transactionType": "CALL",
      "contractName": null,
      "contractAddress": "0xc18360217d8f7ab5e7c516566761ea12ce7f9d72",
      "function": "delegate(address)",
      "arguments": [
        "0xAb14753F140280066cD201268Cc7AEf2d5d8CcbF"
      ],
      "transaction": {
        "from": "0xab14753f140280066cd201268cc7aef2d5d8ccbf",
        "to": "0xc18360217d8f7ab5e7c516566761ea12ce7f9d72",
        "gas": "0x2084c",
        "value": "0x0",
        "input": "0x5c19a95c000000000000000000000000ab14753f140280066cd201268cc7aef2d5d8ccbf",
        "nonce": "0x0",
        "chainId": "0x1"
      },
      "additionalContracts": [],
      "isFixedGasLimit": false
    },
    {
      "hash": "0x522fb2d89d076638bb2d7995e970120840ad63f574cd0bea23830947f74ab236",
      "transactionType": "CALL",
      "contractName": null,
      "contractAddress": "0xc18360217d8f7ab5e7c516566761ea12ce7f9d72",
      "function": "transfer(address,uint256)",
      "arguments": [
        "0x0623E0209E952a7a7A7eeDF0E34a4ca18907B835",
        "1000000000000000000000"
      ],
      "transaction": {
        "from": "0x690f0581ececcf8389c223170778cd9d029606f2",
        "to": "0xc18360217d8f7ab5e7c516566761ea12ce7f9d72",
        "gas": "0x13421",
        "value": "0x0",
        "input": "0xa9059cbb0000000000000000000000000623e0209e952a7a7a7eedf0e34a4ca18907b83500000000000000000000000000000000000000000000003635c9adc5dea00000",
        "nonce": "0x13",
        "chainId": "0x1"
      },
      "additionalContracts": [],
      "isFixedGasLimit": false
    },
    {
      "hash": "0x4920bc9f61e6cd0c313498a9ccaca97ed1612bb2168ea90e40293b607167d96a",
      "transactionType": "CALL",
      "contractName": null,
      "contractAddress": "0x0623e0209e952a7a7a7eedf0e34a4ca18907b835",
      "function": null,
      "arguments": null,
      "transaction": {
        "from": "0x690f0581ececcf8389c223170778cd9d029606f2",
        "to": "0x0623e0209e952a7a7a7eedf0e34a4ca18907b835",
        "gas": "0x714d",
        "value": "0xde0b6b3a7640000",
        "input": "0x",
        "nonce": "0x14",
        "chainId": "0x1"
      },
      "additionalContracts": [],
      "isFixedGasLimit": false
    },
    {
      "hash": "0x775a68def583fad8c5607bf70e07d29c95c375bd0c22c4849cc627ea6f156a74",
      "transactionType": "CALL",
      "contractName": null,
      "contractAddress": "0xc18360217d8f7ab5e7c516566761ea12ce7f9d72",
      "function": "delegate(address)",
      "arguments": [
        "0x0623E0209E952a7a7A7eeDF0E34a4ca18907B835"
      ],
      "transaction": {
        "from": "0x0623e0209e952a7a7a7eedf0e34a4ca18907b835",
        "to": "0xc18360217d8f7ab5e7c516566761ea12ce7f9d72",
        "gas": "0x2084c",
        "value": "0x0",
        "input": "0x5c19a95c0000000000000000000000000623e0209e952a7a7a7eedf0e34a4ca18907b835",
        "nonce": "0x0",
        "chainId": "0x1"
      },
      "additionalContracts": [],
      "isFixedGasLimit": false
    }
  ],
  "receipts": [
    {
      "status": "0x1",
      "cumulativeGasUsed": "0xdf15",
      "logs": [
        {
          "address": "0xc18360217d8f7ab5e7c516566761ea12ce7f9d72",
          "topics": [
            "0xddf252ad1be2c89b69c2b068fc378daa952ba7f163c4a11628f55a4df523b3ef",
            "0x000000000000000000000000690f0581ececcf8389c223170778cd9d029606f2",
            "0x000000000000000000000000d5e90edaa0a44f529cafde088e93c71527a39c8e"
          ],
          "data": "0x00000000000000000000000000000000000000000000003635c9adc5dea00000",
          "blockHash": "0xdf211a1b3d848cf804c28b63a13219e46adcd87d059003c141396e160f358926",
          "blockNumber": "0x157ddda",
          "blockTimestamp": "0x682e9598",
          "transactionHash": "0xc6bd2f0ecc56794836c1e97f131884418e033d3491a4be5cb959616f8bfefc7e",
          "transactionIndex": "0x0",
          "logIndex": "0x0",
          "removed": false
        }
      ],
      "logsBloom": "0x00000000000000000000000000010000000000000000000000000000000000000001000000000000000000000000000001000000000004000000000000000000200000000000000000000008000000000000000000000000000000000000000000000000000000000004000000000000000000000000008000000010000000000000000008000000000000000000000000000000000000000000000000000000000000000000000000000000000000000000000000000000000000000000000000000002000000000000000000000000000000000000000000000000000000000001000000000000000000000000000000000000000000000000000000000000",
      "type": "0x2",
      "transactionHash": "0xc6bd2f0ecc56794836c1e97f131884418e033d3491a4be5cb959616f8bfefc7e",
      "transactionIndex": "0x0",
      "blockHash": "0xdf211a1b3d848cf804c28b63a13219e46adcd87d059003c141396e160f358926",
      "blockNumber": "0x157ddda",
      "gasUsed": "0xdf15",
      "effectiveGasPrice": "0x455aa5e2",
      "blobGasPrice": "0x1",
      "from": "0x690f0581ececcf8389c223170778cd9d029606f2",
      "to": "0xc18360217d8f7ab5e7c516566761ea12ce7f9d72",
      "contractAddress": null
    },
    {
      "status": "0x1",
      "cumulativeGasUsed": "0x5208",
      "logs": [],
      "logsBloom": "0x00000000000000000000000000000000000000000000000000000000000000000000000000000000000000000000000000000000000000000000000000000000000000000000000000000000000000000000000000000000000000000000000000000000000000000000000000000000000000000000000000000000000000000000000000000000000000000000000000000000000000000000000000000000000000000000000000000000000000000000000000000000000000000000000000000000000000000000000000000000000000000000000000000000000000000000000000000000000000000000000000000000000000000000000000000000",
      "type": "0x2",
      "transactionHash": "0x5a60f2830af32a355a6895ba8b727ffd4b461ddddbf73e76bdd6941014f280dd",
      "transactionIndex": "0x0",
      "blockHash": "0xe8c89d3a035b5b4a505fbd0b4f1cebc4375919581aa217e3a99957f352bfe74a",
      "blockNumber": "0x157dddb",
      "gasUsed": "0x5208",
      "effectiveGasPrice": "0x3d156c55",
      "blobGasPrice": "0x1",
      "from": "0x690f0581ececcf8389c223170778cd9d029606f2",
      "to": "0xd5e90edaa0a44f529cafde088e93c71527a39c8e",
      "contractAddress": null
    },
    {
      "status": "0x1",
      "cumulativeGasUsed": "0x178b0",
      "logs": [
        {
          "address": "0xc18360217d8f7ab5e7c516566761ea12ce7f9d72",
          "topics": [
            "0x3134e8a2e6d97e929a7e54011ea5485d7d196dd5f0ba4d4ef95803e8e3fc257f",
            "0x000000000000000000000000d5e90edaa0a44f529cafde088e93c71527a39c8e",
            "0x0000000000000000000000000000000000000000000000000000000000000000",
            "0x000000000000000000000000d5e90edaa0a44f529cafde088e93c71527a39c8e"
          ],
          "data": "0x",
          "blockHash": "0x1e111bc01d360f8e7f7a037736276d32d23d86403894331d2f9a5a4219b67220",
          "blockNumber": "0x157dddc",
          "blockTimestamp": "0x682e9598",
          "transactionHash": "0x4c5e5c0626181ffc96acf7ec34fc14d4efe63e08887d37b91e5ed39465a18ef5",
          "transactionIndex": "0x0",
          "logIndex": "0x0",
          "removed": false
        },
        {
          "address": "0xc18360217d8f7ab5e7c516566761ea12ce7f9d72",
          "topics": [
            "0xdec2bacdd2f05b59de34da9b523dff8be42e5e38e818c82fdb0bae774387a724",
            "0x000000000000000000000000d5e90edaa0a44f529cafde088e93c71527a39c8e"
          ],
          "data": "0x000000000000000000000000000000000000000000000000000000000000000000000000000000000000000000000000000000000000003635c9adc5dea00000",
          "blockHash": "0x1e111bc01d360f8e7f7a037736276d32d23d86403894331d2f9a5a4219b67220",
          "blockNumber": "0x157dddc",
          "blockTimestamp": "0x682e9598",
          "transactionHash": "0x4c5e5c0626181ffc96acf7ec34fc14d4efe63e08887d37b91e5ed39465a18ef5",
          "transactionIndex": "0x0",
          "logIndex": "0x1",
          "removed": false
        }
      ],
      "logsBloom": "0x00000000000000000000000000000000000020000000000000000000000000000001000000000200000010000000000000020000000004000000000000000000200000000000000000000000000000000000000000000000000000000000000000000000020000000040000000000800000000000000008000000000000000000000000008000000000000000000000000000000000000000000000000000000040000000000000000000000000000000000000000000000000000000000000000000000000000000000000000000000000000000000000000000000000020000001000000000000000000000000000000000000000000000000000000000000",
      "type": "0x2",
      "transactionHash": "0x4c5e5c0626181ffc96acf7ec34fc14d4efe63e08887d37b91e5ed39465a18ef5",
      "transactionIndex": "0x0",
      "blockHash": "0x1e111bc01d360f8e7f7a037736276d32d23d86403894331d2f9a5a4219b67220",
      "blockNumber": "0x157dddc",
      "gasUsed": "0x178b0",
      "effectiveGasPrice": "0x35d4482b",
      "blobGasPrice": "0x1",
      "from": "0xd5e90edaa0a44f529cafde088e93c71527a39c8e",
      "to": "0xc18360217d8f7ab5e7c516566761ea12ce7f9d72",
      "contractAddress": null
    },
    {
      "status": "0x1",
      "cumulativeGasUsed": "0xdf21",
      "logs": [
        {
          "address": "0xc18360217d8f7ab5e7c516566761ea12ce7f9d72",
          "topics": [
            "0xddf252ad1be2c89b69c2b068fc378daa952ba7f163c4a11628f55a4df523b3ef",
            "0x000000000000000000000000690f0581ececcf8389c223170778cd9d029606f2",
            "0x000000000000000000000000e9d9c8f746937803094f1019c94e0252be8a0547"
          ],
          "data": "0x00000000000000000000000000000000000000000000021e19e0c9bab2400000",
          "blockHash": "0xc1abb2b502d602a29926eef267ec3a599edfc62ac6992be507c76b360b490dc3",
          "blockNumber": "0x157dddd",
          "blockTimestamp": "0x682e9598",
          "transactionHash": "0xbbedf7acd679a76164ff73e200eb2ed3f41bd1f14d2ef1a092ae95069c339f08",
          "transactionIndex": "0x0",
          "logIndex": "0x0",
          "removed": false
        }
      ],
      "logsBloom": "0x00000000000000000000000000010000000000000000000000000000000000000001000000000000000000000000000001000000000004000000000000000000000000000000000000000008000000000000000000000000000000000000100000000000000000000004000000000000000000000000000000000010000000000000000000000000000000000000000000000000000000000000000000000000000000000000000000000000000000000000000000000000000000000000000000000002000000000000000000000000004000000000000000000000000000000001000000000000000000000000000000000000000000000000400000000000",
      "type": "0x2",
      "transactionHash": "0xbbedf7acd679a76164ff73e200eb2ed3f41bd1f14d2ef1a092ae95069c339f08",
      "transactionIndex": "0x0",
      "blockHash": "0xc1abb2b502d602a29926eef267ec3a599edfc62ac6992be507c76b360b490dc3",
      "blockNumber": "0x157dddd",
      "gasUsed": "0xdf21",
      "effectiveGasPrice": "0x2f81d4d6",
      "blobGasPrice": "0x1",
      "from": "0x690f0581ececcf8389c223170778cd9d029606f2",
      "to": "0xc18360217d8f7ab5e7c516566761ea12ce7f9d72",
      "contractAddress": null
    },
    {
      "status": "0x1",
      "cumulativeGasUsed": "0x5208",
      "logs": [],
      "logsBloom": "0x00000000000000000000000000000000000000000000000000000000000000000000000000000000000000000000000000000000000000000000000000000000000000000000000000000000000000000000000000000000000000000000000000000000000000000000000000000000000000000000000000000000000000000000000000000000000000000000000000000000000000000000000000000000000000000000000000000000000000000000000000000000000000000000000000000000000000000000000000000000000000000000000000000000000000000000000000000000000000000000000000000000000000000000000000000000",
      "type": "0x2",
      "transactionHash": "0x130e64049338cd2e47cfe9d9592c3a88155e7caac9b0f139d23e9370f0da8390",
      "transactionIndex": "0x0",
      "blockHash": "0xb1fd767047257d3d6595d9cd9df96b9b5275ab16ed71073b575c7a2cc51c3e86",
      "blockNumber": "0x157ddde",
      "gasUsed": "0x5208",
      "effectiveGasPrice": "0x29f57dd6",
      "blobGasPrice": "0x1",
      "from": "0x690f0581ececcf8389c223170778cd9d029606f2",
      "to": "0xe9d9c8f746937803094f1019c94e0252be8a0547",
      "contractAddress": null
    },
    {
      "status": "0x1",
      "cumulativeGasUsed": "0x178b0",
      "logs": [
        {
          "address": "0xc18360217d8f7ab5e7c516566761ea12ce7f9d72",
          "topics": [
            "0x3134e8a2e6d97e929a7e54011ea5485d7d196dd5f0ba4d4ef95803e8e3fc257f",
            "0x000000000000000000000000e9d9c8f746937803094f1019c94e0252be8a0547",
            "0x0000000000000000000000000000000000000000000000000000000000000000",
            "0x000000000000000000000000e9d9c8f746937803094f1019c94e0252be8a0547"
          ],
          "data": "0x",
          "blockHash": "0x258d96a5eced372ee565b6b470147a06c83cd0f598ba812eef562234346ce507",
          "blockNumber": "0x157dddf",
          "blockTimestamp": "0x682e9598",
          "transactionHash": "0xe4050b02e4a695a256f1af9b3e9662d9f9507454a4ad936bde420b482d7f7e4a",
          "transactionIndex": "0x0",
          "logIndex": "0x0",
          "removed": false
        },
        {
          "address": "0xc18360217d8f7ab5e7c516566761ea12ce7f9d72",
          "topics": [
            "0xdec2bacdd2f05b59de34da9b523dff8be42e5e38e818c82fdb0bae774387a724",
            "0x000000000000000000000000e9d9c8f746937803094f1019c94e0252be8a0547"
          ],
          "data": "0x000000000000000000000000000000000000000000000000000000000000000000000000000000000000000000000000000000000000021e19e0c9bab2400000",
          "blockHash": "0x258d96a5eced372ee565b6b470147a06c83cd0f598ba812eef562234346ce507",
          "blockNumber": "0x157dddf",
          "blockTimestamp": "0x682e9598",
          "transactionHash": "0xe4050b02e4a695a256f1af9b3e9662d9f9507454a4ad936bde420b482d7f7e4a",
          "transactionIndex": "0x0",
          "logIndex": "0x1",
          "removed": false
        }
      ],
      "logsBloom": "0x00000000000000000000000000000000000020000000000000000000000000000001000000000200000010000000000000020000000004000000000000000000000000000000000000000000000000000000000000000000000000000000100000000000020000000040000000000800000000000000000000000000000000000000000000000000000000000000000000000000000000000000000000000000040000000000000000000000000000000000000000000000000000000000000000000000000000000000000000000000004000000000000000000000000020000001000000000000000000000000000000000000000000000000400000000000",
      "type": "0x2",
      "transactionHash": "0xe4050b02e4a695a256f1af9b3e9662d9f9507454a4ad936bde420b482d7f7e4a",
      "transactionIndex": "0x0",
      "blockHash": "0x258d96a5eced372ee565b6b470147a06c83cd0f598ba812eef562234346ce507",
      "blockNumber": "0x157dddf",
      "gasUsed": "0x178b0",
      "effectiveGasPrice": "0x2517a0b4",
      "blobGasPrice": "0x1",
      "from": "0xe9d9c8f746937803094f1019c94e0252be8a0547",
      "to": "0xc18360217d8f7ab5e7c516566761ea12ce7f9d72",
      "contractAddress": null
    },
    {
      "status": "0x1",
      "cumulativeGasUsed": "0xdf21",
      "logs": [
        {
          "address": "0xc18360217d8f7ab5e7c516566761ea12ce7f9d72",
          "topics": [
            "0xddf252ad1be2c89b69c2b068fc378daa952ba7f163c4a11628f55a4df523b3ef",
            "0x000000000000000000000000690f0581ececcf8389c223170778cd9d029606f2",
            "0x0000000000000000000000000b535a60b26023b4c5c6beea1e445f46bbdd906a"
          ],
          "data": "0x000000000000000000000000000000000000000000000a968163f0a57b400000",
          "blockHash": "0xb1afea9d8d70e876eff1a6ff2670d956add2c3a651451723d9b159e96d536593",
          "blockNumber": "0x157dde0",
          "blockTimestamp": "0x682e9598",
          "transactionHash": "0x65139385d4b6796e8b0b5abbb03749d748c537aa6fcf0e91cd1c99cc9883fcc9",
          "transactionIndex": "0x0",
          "logIndex": "0x0",
          "removed": false
        }
      ],
      "logsBloom": "0x00000000000000000000000000010000000000000000000000000000000000000001000000000000000000000000000001000000000004000000000000000000000000000000002000000008000000000000000000000000000000000000200000000000000000000004000000000000000000000000000000000010000000000000000000000000000000000000000000000000000000000000000000000200000000000000000000000000000000000000000000000000000000000000000000000002000000000000000000000000000000000000000000000000000000000001000000000000000000000000000000000000000000000000000000000000",
      "type": "0x2",
      "transactionHash": "0x65139385d4b6796e8b0b5abbb03749d748c537aa6fcf0e91cd1c99cc9883fcc9",
      "transactionIndex": "0x0",
      "blockHash": "0xb1afea9d8d70e876eff1a6ff2670d956add2c3a651451723d9b159e96d536593",
      "blockNumber": "0x157dde0",
      "gasUsed": "0xdf21",
      "effectiveGasPrice": "0x20d9e3c4",
      "blobGasPrice": "0x1",
      "from": "0x690f0581ececcf8389c223170778cd9d029606f2",
      "to": "0xc18360217d8f7ab5e7c516566761ea12ce7f9d72",
      "contractAddress": null
    },
    {
      "status": "0x1",
      "cumulativeGasUsed": "0x5208",
      "logs": [],
      "logsBloom": "0x00000000000000000000000000000000000000000000000000000000000000000000000000000000000000000000000000000000000000000000000000000000000000000000000000000000000000000000000000000000000000000000000000000000000000000000000000000000000000000000000000000000000000000000000000000000000000000000000000000000000000000000000000000000000000000000000000000000000000000000000000000000000000000000000000000000000000000000000000000000000000000000000000000000000000000000000000000000000000000000000000000000000000000000000000000000",
      "type": "0x2",
      "transactionHash": "0x6d1e3aa306369288ff925c04a881a187d762d32f3ca83994bc0daeb8882561f8",
      "transactionIndex": "0x0",
      "blockHash": "0x51f3bbd719d74026c3e70d4be142d769b876f5d9da004e1e0ade362932051082",
      "blockNumber": "0x157dde1",
      "gasUsed": "0x5208",
      "effectiveGasPrice": "0x1d210de5",
      "blobGasPrice": "0x1",
      "from": "0x690f0581ececcf8389c223170778cd9d029606f2",
      "to": "0x0b535a60b26023b4c5c6beea1e445f46bbdd906a",
      "contractAddress": null
    },
    {
      "status": "0x1",
      "cumulativeGasUsed": "0x178b0",
      "logs": [
        {
          "address": "0xc18360217d8f7ab5e7c516566761ea12ce7f9d72",
          "topics": [
            "0x3134e8a2e6d97e929a7e54011ea5485d7d196dd5f0ba4d4ef95803e8e3fc257f",
            "0x0000000000000000000000000b535a60b26023b4c5c6beea1e445f46bbdd906a",
            "0x0000000000000000000000000000000000000000000000000000000000000000",
            "0x0000000000000000000000000b535a60b26023b4c5c6beea1e445f46bbdd906a"
          ],
          "data": "0x",
          "blockHash": "0xfc2ad96efc3ac48fbf1305eb0d7b8730c416c579e49309fa291003b4b792219d",
          "blockNumber": "0x157dde2",
          "blockTimestamp": "0x682e9598",
          "transactionHash": "0x020598d7b751d3603ed294c1560f2b5e794151c98add9ea94bc4756b66ada373",
          "transactionIndex": "0x0",
          "logIndex": "0x0",
          "removed": false
        },
        {
          "address": "0xc18360217d8f7ab5e7c516566761ea12ce7f9d72",
          "topics": [
            "0xdec2bacdd2f05b59de34da9b523dff8be42e5e38e818c82fdb0bae774387a724",
            "0x0000000000000000000000000b535a60b26023b4c5c6beea1e445f46bbdd906a"
          ],
          "data": "0x0000000000000000000000000000000000000000000000000000000000000000000000000000000000000000000000000000000000000a968163f0a57b400000",
          "blockHash": "0xfc2ad96efc3ac48fbf1305eb0d7b8730c416c579e49309fa291003b4b792219d",
          "blockNumber": "0x157dde2",
          "blockTimestamp": "0x682e9598",
          "transactionHash": "0x020598d7b751d3603ed294c1560f2b5e794151c98add9ea94bc4756b66ada373",
          "transactionIndex": "0x0",
          "logIndex": "0x1",
          "removed": false
        }
      ],
      "logsBloom": "0x00000000000000000000000000000000000020000000000000000000000000000001000000000200000010000000000000020000000004000000000000000000000000000000002000000000000000000000000000000000000000000000200000000000020000000040000000000800000000000000000000000000000000000000000000000000000000000000000000000000000000000000000000000200040000000000000000000000000000000000000000000000000000000000000000000000000000000000000000000000000000000000000000000000000020000001000000000000000000000000000000000000000000000000000000000000",
      "type": "0x2",
      "transactionHash": "0x020598d7b751d3603ed294c1560f2b5e794151c98add9ea94bc4756b66ada373",
      "transactionIndex": "0x0",
      "blockHash": "0xfc2ad96efc3ac48fbf1305eb0d7b8730c416c579e49309fa291003b4b792219d",
      "blockNumber": "0x157dde2",
      "gasUsed": "0x178b0",
      "effectiveGasPrice": "0x19dd4423",
      "blobGasPrice": "0x1",
      "from": "0x0b535a60b26023b4c5c6beea1e445f46bbdd906a",
      "to": "0xc18360217d8f7ab5e7c516566761ea12ce7f9d72",
      "contractAddress": null
    },
    {
      "status": "0x1",
      "cumulativeGasUsed": "0xdf15",
      "logs": [
        {
          "address": "0xc18360217d8f7ab5e7c516566761ea12ce7f9d72",
          "topics": [
            "0xddf252ad1be2c89b69c2b068fc378daa952ba7f163c4a11628f55a4df523b3ef",
            "0x000000000000000000000000690f0581ececcf8389c223170778cd9d029606f2",
            "0x0000000000000000000000003a9b0c811312a51fc63d3d4c21bcfbf1107c4d47"
          ],
          "data": "0x00000000000000000000000000000000000000000000003635c9adc5dea00000",
          "blockHash": "0xfd13ecc6df499b5b3b55511f3287eeceb3cad8b680a345569a99ecc59bd77a3c",
          "blockNumber": "0x157dde3",
          "blockTimestamp": "0x682e9598",
          "transactionHash": "0xa0f45e074a46c3e4a1443f9234b1e31d0c30da4b3431db661d585a245deea669",
          "transactionIndex": "0x0",
          "logIndex": "0x0",
          "removed": false
        }
      ],
      "logsBloom": "0x00000000000000000000000000010000000000000000000000000000000000000001000000000000000000000000000001000000000004000000000000000000000000000000000000000008000000000000000000000000000000000000000000000000000000000004000000000000000000000000800000000010000000000000000008000000000000000000000000000000000000000000000000000000000000000000000000000000000000000000000000000000008000000000000000000002000000000000000000000000000000000000000000000000000000000001000000000000000000000000000000000000000000000000000000000000",
      "type": "0x2",
      "transactionHash": "0xa0f45e074a46c3e4a1443f9234b1e31d0c30da4b3431db661d585a245deea669",
      "transactionIndex": "0x0",
      "blockHash": "0xfd13ecc6df499b5b3b55511f3287eeceb3cad8b680a345569a99ecc59bd77a3c",
      "blockNumber": "0x157dde3",
      "gasUsed": "0xdf15",
      "effectiveGasPrice": "0x1704e601",
      "blobGasPrice": "0x1",
      "from": "0x690f0581ececcf8389c223170778cd9d029606f2",
      "to": "0xc18360217d8f7ab5e7c516566761ea12ce7f9d72",
      "contractAddress": null
    },
    {
      "status": "0x1",
      "cumulativeGasUsed": "0x5208",
      "logs": [],
      "logsBloom": "0x00000000000000000000000000000000000000000000000000000000000000000000000000000000000000000000000000000000000000000000000000000000000000000000000000000000000000000000000000000000000000000000000000000000000000000000000000000000000000000000000000000000000000000000000000000000000000000000000000000000000000000000000000000000000000000000000000000000000000000000000000000000000000000000000000000000000000000000000000000000000000000000000000000000000000000000000000000000000000000000000000000000000000000000000000000000",
      "type": "0x2",
      "transactionHash": "0x8e2a45ae1139a03a8e66ac538de8bf96ae4f94cfa91e6e3297d33e8a914c2aae",
      "transactionIndex": "0x0",
      "blockHash": "0x9a8984f415b10c6106942d60db7d2200f2d9dc02a1cdc6de8a46cd10ceed0f70",
      "blockNumber": "0x157dde4",
      "gasUsed": "0x5208",
      "effectiveGasPrice": "0x1485b026",
      "blobGasPrice": "0x1",
      "from": "0x690f0581ececcf8389c223170778cd9d029606f2",
      "to": "0x3a9b0c811312a51fc63d3d4c21bcfbf1107c4d47",
      "contractAddress": null
    },
    {
      "status": "0x1",
      "cumulativeGasUsed": "0x178b0",
      "logs": [
        {
          "address": "0xc18360217d8f7ab5e7c516566761ea12ce7f9d72",
          "topics": [
            "0x3134e8a2e6d97e929a7e54011ea5485d7d196dd5f0ba4d4ef95803e8e3fc257f",
            "0x0000000000000000000000003a9b0c811312a51fc63d3d4c21bcfbf1107c4d47",
            "0x0000000000000000000000000000000000000000000000000000000000000000",
            "0x0000000000000000000000003a9b0c811312a51fc63d3d4c21bcfbf1107c4d47"
          ],
          "data": "0x",
          "blockHash": "0x902dc7ad277fbb7e7a0c85691f63d145ca0f24a02eab1940b96dd902004cd397",
          "blockNumber": "0x157dde5",
          "blockTimestamp": "0x682e9598",
          "transactionHash": "0xa8d80ac705625010bf240063f7e58151d12ad93bb8d96abb1e94100a99ee0311",
          "transactionIndex": "0x0",
          "logIndex": "0x0",
          "removed": false
        },
        {
          "address": "0xc18360217d8f7ab5e7c516566761ea12ce7f9d72",
          "topics": [
            "0xdec2bacdd2f05b59de34da9b523dff8be42e5e38e818c82fdb0bae774387a724",
            "0x0000000000000000000000003a9b0c811312a51fc63d3d4c21bcfbf1107c4d47"
          ],
          "data": "0x000000000000000000000000000000000000000000000000000000000000000000000000000000000000000000000000000000000000003635c9adc5dea00000",
          "blockHash": "0x902dc7ad277fbb7e7a0c85691f63d145ca0f24a02eab1940b96dd902004cd397",
          "blockNumber": "0x157dde5",
          "blockTimestamp": "0x682e9598",
          "transactionHash": "0xa8d80ac705625010bf240063f7e58151d12ad93bb8d96abb1e94100a99ee0311",
          "transactionIndex": "0x0",
          "logIndex": "0x1",
          "removed": false
        }
      ],
      "logsBloom": "0x00000000000000000000000000000000000020000000000000000000000000000001000000000200000010000000000000020000000004000000000000000000000000000000000000000000000000000000000000000000000000000000000000000000020000000040000000000800000000000000800000000000000000000000000008000000000000000000000000000000000000000000000000000000040000000000000000000000000000000000000000000000008000000000000000000000000000000000000000000000000000000000000000000000000020000001000000000000000000000000000000000000000000000000000000000000",
      "type": "0x2",
      "transactionHash": "0xa8d80ac705625010bf240063f7e58151d12ad93bb8d96abb1e94100a99ee0311",
      "transactionIndex": "0x0",
      "blockHash": "0x902dc7ad277fbb7e7a0c85691f63d145ca0f24a02eab1940b96dd902004cd397",
      "blockNumber": "0x157dde5",
      "gasUsed": "0x178b0",
      "effectiveGasPrice": "0x1254ffd9",
      "blobGasPrice": "0x1",
      "from": "0x3a9b0c811312a51fc63d3d4c21bcfbf1107c4d47",
      "to": "0xc18360217d8f7ab5e7c516566761ea12ce7f9d72",
      "contractAddress": null
    },
    {
      "status": "0x1",
      "cumulativeGasUsed": "0xdf21",
      "logs": [
        {
          "address": "0xc18360217d8f7ab5e7c516566761ea12ce7f9d72",
          "topics": [
            "0xddf252ad1be2c89b69c2b068fc378daa952ba7f163c4a11628f55a4df523b3ef",
            "0x000000000000000000000000690f0581ececcf8389c223170778cd9d029606f2",
            "0x000000000000000000000000409c30ede66c2de55f7b7152f6720a5811571ac7"
          ],
          "data": "0x00000000000000000000000000000000000000000000021e19e0c9bab2400000",
          "blockHash": "0xd87d0916c3d4b6bf16a5df6cd7d93244b25cb08a9a9415c22ad166f8338a7b0c",
          "blockNumber": "0x157dde6",
          "blockTimestamp": "0x682e9598",
          "transactionHash": "0xd6e9fe12366bc8dcc315c40ff73194f2798752c699edc4456a927d22cb40a5e6",
          "transactionIndex": "0x0",
          "logIndex": "0x0",
          "removed": false
        }
      ],
      "logsBloom": "0x00000000000000000000000000010000000000000000000000000000000000000001000000000000000000000000000001000000000004000000020000000000000000000000000000000008000000000000000000000000000000000000000000000000000000000004000000000000000000000000000000000010000000000000000000000000000000000000000200000000000000000000000000000000000000000000000000000000000000000000000000000000000000000000000000000002000000000000000000000000000000000000000000000000000000000001000000000000000000000000000000000000000000010000000000000000",
      "type": "0x2",
      "transactionHash": "0xd6e9fe12366bc8dcc315c40ff73194f2798752c699edc4456a927d22cb40a5e6",
      "transactionIndex": "0x0",
      "blockHash": "0xd87d0916c3d4b6bf16a5df6cd7d93244b25cb08a9a9415c22ad166f8338a7b0c",
      "blockNumber": "0x157dde6",
      "gasUsed": "0xdf21",
      "effectiveGasPrice": "0x106c5fae",
      "blobGasPrice": "0x1",
      "from": "0x690f0581ececcf8389c223170778cd9d029606f2",
      "to": "0xc18360217d8f7ab5e7c516566761ea12ce7f9d72",
      "contractAddress": null
    },
    {
      "status": "0x1",
      "cumulativeGasUsed": "0x5208",
      "logs": [],
      "logsBloom": "0x00000000000000000000000000000000000000000000000000000000000000000000000000000000000000000000000000000000000000000000000000000000000000000000000000000000000000000000000000000000000000000000000000000000000000000000000000000000000000000000000000000000000000000000000000000000000000000000000000000000000000000000000000000000000000000000000000000000000000000000000000000000000000000000000000000000000000000000000000000000000000000000000000000000000000000000000000000000000000000000000000000000000000000000000000000000",
      "type": "0x2",
      "transactionHash": "0xafb8f11ad61c105cf23c25fd4a7763ccce1bff1d1cfc590435db4cd893edda23",
      "transactionIndex": "0x0",
      "blockHash": "0x67332d69f6ec027ff5c95272a7935b365446fe081c42436cc2278636f6a90654",
      "blockNumber": "0x157dde7",
      "gasUsed": "0x5208",
      "effectiveGasPrice": "0xebf8f42",
      "blobGasPrice": "0x1",
      "from": "0x690f0581ececcf8389c223170778cd9d029606f2",
      "to": "0x409c30ede66c2de55f7b7152f6720a5811571ac7",
      "contractAddress": null
    },
    {
      "status": "0x1",
      "cumulativeGasUsed": "0x178b0",
      "logs": [
        {
          "address": "0xc18360217d8f7ab5e7c516566761ea12ce7f9d72",
          "topics": [
            "0x3134e8a2e6d97e929a7e54011ea5485d7d196dd5f0ba4d4ef95803e8e3fc257f",
            "0x000000000000000000000000409c30ede66c2de55f7b7152f6720a5811571ac7",
            "0x0000000000000000000000000000000000000000000000000000000000000000",
            "0x000000000000000000000000409c30ede66c2de55f7b7152f6720a5811571ac7"
          ],
          "data": "0x",
          "blockHash": "0x9015ca03df4d9d2aa9508d86a70f91d2f0aa942cda5f6e5afe15185733e474a3",
          "blockNumber": "0x157dde8",
          "blockTimestamp": "0x682e9598",
          "transactionHash": "0xe1c928fa3322e4d8d0faf0e393cdd107c5dba66546a39084978d86865f27accf",
          "transactionIndex": "0x0",
          "logIndex": "0x0",
          "removed": false
        },
        {
          "address": "0xc18360217d8f7ab5e7c516566761ea12ce7f9d72",
          "topics": [
            "0xdec2bacdd2f05b59de34da9b523dff8be42e5e38e818c82fdb0bae774387a724",
            "0x000000000000000000000000409c30ede66c2de55f7b7152f6720a5811571ac7"
          ],
          "data": "0x000000000000000000000000000000000000000000000000000000000000000000000000000000000000000000000000000000000000021e19e0c9bab2400000",
          "blockHash": "0x9015ca03df4d9d2aa9508d86a70f91d2f0aa942cda5f6e5afe15185733e474a3",
          "blockNumber": "0x157dde8",
          "blockTimestamp": "0x682e9598",
          "transactionHash": "0xe1c928fa3322e4d8d0faf0e393cdd107c5dba66546a39084978d86865f27accf",
          "transactionIndex": "0x0",
          "logIndex": "0x1",
          "removed": false
        }
      ],
      "logsBloom": "0x00000000000000000000000000000000000020000000000000000000000000000001000000000200000010000000000000020000000004000000020000000000000000000000000000000000000000000000000000000000000000000000000000000000020000000040000000000800000000000000000000000000000000000000000000000000000000000000000200000000000000000000000000000000040000000000000000000000000000000000000000000000000000000000000000000000000000000000000000000000000000000000000000000000000020000001000000000000000000000000000000000000000000010000000000000000",
      "type": "0x2",
      "transactionHash": "0xe1c928fa3322e4d8d0faf0e393cdd107c5dba66546a39084978d86865f27accf",
      "transactionIndex": "0x0",
      "blockHash": "0x9015ca03df4d9d2aa9508d86a70f91d2f0aa942cda5f6e5afe15185733e474a3",
      "blockNumber": "0x157dde8",
      "gasUsed": "0x178b0",
      "effectiveGasPrice": "0xd476be3",
      "blobGasPrice": "0x1",
      "from": "0x409c30ede66c2de55f7b7152f6720a5811571ac7",
      "to": "0xc18360217d8f7ab5e7c516566761ea12ce7f9d72",
      "contractAddress": null
    },
    {
      "status": "0x1",
      "cumulativeGasUsed": "0xdf21",
      "logs": [
        {
          "address": "0xc18360217d8f7ab5e7c516566761ea12ce7f9d72",
          "topics": [
            "0xddf252ad1be2c89b69c2b068fc378daa952ba7f163c4a11628f55a4df523b3ef",
            "0x000000000000000000000000690f0581ececcf8389c223170778cd9d029606f2",
            "0x000000000000000000000000fc4627a097987907642e6b8c90bcb69c9beb6d71"
          ],
          "data": "0x000000000000000000000000000000000000000000000a968163f0a57b400000",
          "blockHash": "0xbb708dd3ee68714ab580bcdc0d60657d27a1bbc0c58431a2cdcb719857ed8c7e",
          "blockNumber": "0x157dde9",
          "blockTimestamp": "0x682e9598",
          "transactionHash": "0x768591549957f7ad9042be10a29bbcba32cedbd56756c260d34bc5a3a333e70b",
          "transactionIndex": "0x0",
          "logIndex": "0x0",
          "removed": false
        }
      ],
      "logsBloom": "0x00000000000000000000000000010000000000000000000000000000000000000801000000000000000000000000000001000000000004000000000000000000000000000000000000000008000000000000000000000000000000000000000000000000000000000004000000000000000000000000000000000010000000000000000000000000000000000000000000000000000000000000000000000000000000000000000000000000000000000000000000000000000000000000000000000002000000000000000000000000000000000000000000000000000000000001000000000000000000000000000000100000000000010000000000000000",
      "type": "0x2",
      "transactionHash": "0x768591549957f7ad9042be10a29bbcba32cedbd56756c260d34bc5a3a333e70b",
      "transactionIndex": "0x0",
      "blockHash": "0xbb708dd3ee68714ab580bcdc0d60657d27a1bbc0c58431a2cdcb719857ed8c7e",
      "blockNumber": "0x157dde9",
      "gasUsed": "0xdf21",
      "effectiveGasPrice": "0xbffa073",
      "blobGasPrice": "0x1",
      "from": "0x690f0581ececcf8389c223170778cd9d029606f2",
      "to": "0xc18360217d8f7ab5e7c516566761ea12ce7f9d72",
      "contractAddress": null
    },
    {
      "status": "0x1",
      "cumulativeGasUsed": "0x5208",
      "logs": [],
      "logsBloom": "0x00000000000000000000000000000000000000000000000000000000000000000000000000000000000000000000000000000000000000000000000000000000000000000000000000000000000000000000000000000000000000000000000000000000000000000000000000000000000000000000000000000000000000000000000000000000000000000000000000000000000000000000000000000000000000000000000000000000000000000000000000000000000000000000000000000000000000000000000000000000000000000000000000000000000000000000000000000000000000000000000000000000000000000000000000000000",
      "type": "0x2",
      "transactionHash": "0xa1a164b59178edb623dfdbc1dcbb96c5bda2df309ec775b9030bb756c23e10e8",
      "transactionIndex": "0x0",
      "blockHash": "0xf2639d42b03c5de2e982a48e78b5dfb3037c6a9e4c98918959cf93b8885af60e",
      "blockNumber": "0x157ddea",
      "gasUsed": "0x5208",
      "effectiveGasPrice": "0xadff4e7",
      "blobGasPrice": "0x1",
      "from": "0x690f0581ececcf8389c223170778cd9d029606f2",
      "to": "0xfc4627a097987907642e6b8c90bcb69c9beb6d71",
      "contractAddress": null
    },
    {
      "status": "0x1",
      "cumulativeGasUsed": "0x178b0",
      "logs": [
        {
          "address": "0xc18360217d8f7ab5e7c516566761ea12ce7f9d72",
          "topics": [
            "0x3134e8a2e6d97e929a7e54011ea5485d7d196dd5f0ba4d4ef95803e8e3fc257f",
            "0x000000000000000000000000fc4627a097987907642e6b8c90bcb69c9beb6d71",
            "0x0000000000000000000000000000000000000000000000000000000000000000",
            "0x000000000000000000000000fc4627a097987907642e6b8c90bcb69c9beb6d71"
          ],
          "data": "0x",
          "blockHash": "0xde870e5ccf37e527eb3054e8c4d4731f7c3ce260b864add9a779da2df31f112c",
          "blockNumber": "0x157ddeb",
          "blockTimestamp": "0x682e9598",
          "transactionHash": "0x5acb7b9b19ee1811b11abf27c919dc6ecebb38a5ae3a9182326d2de667b86f95",
          "transactionIndex": "0x0",
          "logIndex": "0x0",
          "removed": false
        },
        {
          "address": "0xc18360217d8f7ab5e7c516566761ea12ce7f9d72",
          "topics": [
            "0xdec2bacdd2f05b59de34da9b523dff8be42e5e38e818c82fdb0bae774387a724",
            "0x000000000000000000000000fc4627a097987907642e6b8c90bcb69c9beb6d71"
          ],
          "data": "0x0000000000000000000000000000000000000000000000000000000000000000000000000000000000000000000000000000000000000a968163f0a57b400000",
          "blockHash": "0xde870e5ccf37e527eb3054e8c4d4731f7c3ce260b864add9a779da2df31f112c",
          "blockNumber": "0x157ddeb",
          "blockTimestamp": "0x682e9598",
          "transactionHash": "0x5acb7b9b19ee1811b11abf27c919dc6ecebb38a5ae3a9182326d2de667b86f95",
          "transactionIndex": "0x0",
          "logIndex": "0x1",
          "removed": false
        }
      ],
      "logsBloom": "0x00000000000000000000000000000000000020000000000000000000000000000801000000000200000010000000000000020000000004000000000000000000000000000000000000000000000000000000000000000000000000000000000000000000020000000040000000000800000000000000000000000000000000000000000000000000000000000000000000000000000000000000000000000000040000000000000000000000000000000000000000000000000000000000000000000000000000000000000000000000000000000000000000000000000020000001000000000000000000000000000000100000000000010000000000000000",
      "type": "0x2",
      "transactionHash": "0x5acb7b9b19ee1811b11abf27c919dc6ecebb38a5ae3a9182326d2de667b86f95",
      "transactionIndex": "0x0",
      "blockHash": "0xde870e5ccf37e527eb3054e8c4d4731f7c3ce260b864add9a779da2df31f112c",
      "blockNumber": "0x157ddeb",
      "gasUsed": "0x178b0",
      "effectiveGasPrice": "0x9e39fce",
      "blobGasPrice": "0x1",
      "from": "0xfc4627a097987907642e6b8c90bcb69c9beb6d71",
      "to": "0xc18360217d8f7ab5e7c516566761ea12ce7f9d72",
      "contractAddress": null
    },
    {
      "status": "0x1",
      "cumulativeGasUsed": "0xdf15",
      "logs": [
        {
          "address": "0xc18360217d8f7ab5e7c516566761ea12ce7f9d72",
          "topics": [
            "0xddf252ad1be2c89b69c2b068fc378daa952ba7f163c4a11628f55a4df523b3ef",
            "0x000000000000000000000000690f0581ececcf8389c223170778cd9d029606f2",
            "0x000000000000000000000000715df8928803e7c53c96021dccd1f028bfe2777c"
          ],
          "data": "0x00000000000000000000000000000000000000000000003635c9adc5dea00000",
          "blockHash": "0x2a422186ba718de3c10bcc517fb8a96edf1aa8dc9c84531238b3ca5d892ee6c3",
          "blockNumber": "0x157ddec",
          "blockTimestamp": "0x682e9598",
          "transactionHash": "0xf735ff7d7a2232b7816254e484c46e537d803eeb5af5826b38d86c559eadc116",
          "transactionIndex": "0x0",
          "logIndex": "0x0",
          "removed": false
        }
      ],
      "logsBloom": "0x00000000000000000000000000010000000000000000000000000000080000000001000000000000000000000000000001000000000004000000000000000000000000000000000000000008000000000000000000000000000000000000000000000000000000000004000000000000000000000000000000004010000000000000000000000000000000000000000000000000000000000000000000000000000000000000000000000000000000000000000000000000000000000000000000000002001000000000000000000000000000000000000000000000000000000001000000000000000000000000000000000000000000000000000000000000",
      "type": "0x2",
      "transactionHash": "0xf735ff7d7a2232b7816254e484c46e537d803eeb5af5826b38d86c559eadc116",
      "transactionIndex": "0x0",
      "blockHash": "0x2a422186ba718de3c10bcc517fb8a96edf1aa8dc9c84531238b3ca5d892ee6c3",
      "blockNumber": "0x157ddec",
      "gasUsed": "0xdf15",
      "effectiveGasPrice": "0x907b91c",
      "blobGasPrice": "0x1",
      "from": "0x690f0581ececcf8389c223170778cd9d029606f2",
      "to": "0xc18360217d8f7ab5e7c516566761ea12ce7f9d72",
      "contractAddress": null
    },
    {
      "status": "0x1",
      "cumulativeGasUsed": "0x5208",
      "logs": [],
      "logsBloom": "0x00000000000000000000000000000000000000000000000000000000000000000000000000000000000000000000000000000000000000000000000000000000000000000000000000000000000000000000000000000000000000000000000000000000000000000000000000000000000000000000000000000000000000000000000000000000000000000000000000000000000000000000000000000000000000000000000000000000000000000000000000000000000000000000000000000000000000000000000000000000000000000000000000000000000000000000000000000000000000000000000000000000000000000000000000000000",
      "type": "0x2",
      "transactionHash": "0xa956fb7b3adeacd3927b525e4bdb0126a5c82689e18a7d95e0e48e15f67bed32",
      "transactionIndex": "0x0",
      "blockHash": "0x4d33bc715cd540918a53ff529486c7055f48f166cea4d63844809a3ae216cf02",
      "blockNumber": "0x157dded",
      "gasUsed": "0x5208",
      "effectiveGasPrice": "0x846bd47",
      "blobGasPrice": "0x1",
      "from": "0x690f0581ececcf8389c223170778cd9d029606f2",
      "to": "0x715df8928803e7c53c96021dccd1f028bfe2777c",
      "contractAddress": null
    },
    {
      "status": "0x1",
      "cumulativeGasUsed": "0x178b0",
      "logs": [
        {
          "address": "0xc18360217d8f7ab5e7c516566761ea12ce7f9d72",
          "topics": [
            "0x3134e8a2e6d97e929a7e54011ea5485d7d196dd5f0ba4d4ef95803e8e3fc257f",
            "0x000000000000000000000000715df8928803e7c53c96021dccd1f028bfe2777c",
            "0x0000000000000000000000000000000000000000000000000000000000000000",
            "0x000000000000000000000000715df8928803e7c53c96021dccd1f028bfe2777c"
          ],
          "data": "0x",
          "blockHash": "0x11d216d6a3fbe22b944b2c21315a6c98941cef8a95baa44682f00338ee06e2d3",
          "blockNumber": "0x157ddee",
          "blockTimestamp": "0x682e9598",
          "transactionHash": "0x02fb9192abd08bdbe64b65ebfc2a56a6bf9962fad9b56ef43b2c1d89187a8aa9",
          "transactionIndex": "0x0",
          "logIndex": "0x0",
          "removed": false
        },
        {
          "address": "0xc18360217d8f7ab5e7c516566761ea12ce7f9d72",
          "topics": [
            "0xdec2bacdd2f05b59de34da9b523dff8be42e5e38e818c82fdb0bae774387a724",
            "0x000000000000000000000000715df8928803e7c53c96021dccd1f028bfe2777c"
          ],
          "data": "0x000000000000000000000000000000000000000000000000000000000000000000000000000000000000000000000000000000000000003635c9adc5dea00000",
          "blockHash": "0x11d216d6a3fbe22b944b2c21315a6c98941cef8a95baa44682f00338ee06e2d3",
          "blockNumber": "0x157ddee",
          "blockTimestamp": "0x682e9598",
          "transactionHash": "0x02fb9192abd08bdbe64b65ebfc2a56a6bf9962fad9b56ef43b2c1d89187a8aa9",
          "transactionIndex": "0x0",
          "logIndex": "0x1",
          "removed": false
        }
      ],
      "logsBloom": "0x00000000000000000000000000000000000020000000000000000000080000000001000000000200000010000000000000020000000004000000000000000000000000000000000000000000000000000000000000000000000000000000000000000000020000000040000000000800000000000000000000004000000000000000000000000000000000000000000000000000000000000000000000000000040000000000000000000000000000000000000000000000000000000000000000000000001000000000000000000000000000000000000000000000000020000001000000000000000000000000000000000000000000000000000000000000",
      "type": "0x2",
      "transactionHash": "0x02fb9192abd08bdbe64b65ebfc2a56a6bf9962fad9b56ef43b2c1d89187a8aa9",
      "transactionIndex": "0x0",
      "blockHash": "0x11d216d6a3fbe22b944b2c21315a6c98941cef8a95baa44682f00338ee06e2d3",
      "blockNumber": "0x157ddee",
      "gasUsed": "0x178b0",
      "effectiveGasPrice": "0x79d764c",
      "blobGasPrice": "0x1",
      "from": "0x715df8928803e7c53c96021dccd1f028bfe2777c",
      "to": "0xc18360217d8f7ab5e7c516566761ea12ce7f9d72",
      "contractAddress": null
    },
    {
      "status": "0x1",
      "cumulativeGasUsed": "0xdf21",
      "logs": [
        {
          "address": "0xc18360217d8f7ab5e7c516566761ea12ce7f9d72",
          "topics": [
            "0xddf252ad1be2c89b69c2b068fc378daa952ba7f163c4a11628f55a4df523b3ef",
            "0x000000000000000000000000690f0581ececcf8389c223170778cd9d029606f2",
            "0x0000000000000000000000009964e83371c90a07188450cda2f1eb71d26cf704"
          ],
          "data": "0x00000000000000000000000000000000000000000000021e19e0c9bab2400000",
          "blockHash": "0xd2f62520aa64c5eae15ad4ac5bc9532ec6d3ca3f900236d764dec9d7ee4607f3",
          "blockNumber": "0x157ddef",
          "blockTimestamp": "0x682e9598",
          "transactionHash": "0x03a254d5eeaecd88320d229a73cd72316c8a55d517011a79a4a8b6d37373acc7",
          "transactionIndex": "0x0",
          "logIndex": "0x0",
          "removed": false
        }
      ],
      "logsBloom": "0x00000000000000000000000000010000000000000000000000000000000000000001000000000000000000000000080001000000000004000000000000000000000000000000000000000008000000000000000000000000000000000000000000000000000000000004000000000000000000000000000000000010000000000000000000000000000000000000000004000000000000000000000000000000000000000000000000000000000000000000000000000000000000000000000000000002000000000000000000000000000080000000000000000000000000000001000000000000000000000000000000000000000000000000000000000000",
      "type": "0x2",
      "transactionHash": "0x03a254d5eeaecd88320d229a73cd72316c8a55d517011a79a4a8b6d37373acc7",
      "transactionIndex": "0x0",
      "blockHash": "0xd2f62520aa64c5eae15ad4ac5bc9532ec6d3ca3f900236d764dec9d7ee4607f3",
      "blockNumber": "0x157ddef",
      "gasUsed": "0xdf21",
      "effectiveGasPrice": "0x709f0fc",
      "blobGasPrice": "0x1",
      "from": "0x690f0581ececcf8389c223170778cd9d029606f2",
      "to": "0xc18360217d8f7ab5e7c516566761ea12ce7f9d72",
      "contractAddress": null
    },
    {
      "status": "0x1",
      "cumulativeGasUsed": "0x5208",
      "logs": [],
      "logsBloom": "0x00000000000000000000000000000000000000000000000000000000000000000000000000000000000000000000000000000000000000000000000000000000000000000000000000000000000000000000000000000000000000000000000000000000000000000000000000000000000000000000000000000000000000000000000000000000000000000000000000000000000000000000000000000000000000000000000000000000000000000000000000000000000000000000000000000000000000000000000000000000000000000000000000000000000000000000000000000000000000000000000000000000000000000000000000000000",
      "type": "0x2",
      "transactionHash": "0x49234692dfb99a8616fe08c9c5a1615ee60590d2e546b617bff6008e58ee9f0e",
      "transactionIndex": "0x0",
      "blockHash": "0x1cf8d4672035f1e146a5b3d458c3268e48a89cc9f86000ad606ff050e3520c8a",
      "blockNumber": "0x157ddf0",
      "gasUsed": "0x5208",
      "effectiveGasPrice": "0x6887a6f",
      "blobGasPrice": "0x1",
      "from": "0x690f0581ececcf8389c223170778cd9d029606f2",
      "to": "0x9964e83371c90a07188450cda2f1eb71d26cf704",
      "contractAddress": null
    },
    {
      "status": "0x1",
      "cumulativeGasUsed": "0x178b0",
      "logs": [
        {
          "address": "0xc18360217d8f7ab5e7c516566761ea12ce7f9d72",
          "topics": [
            "0x3134e8a2e6d97e929a7e54011ea5485d7d196dd5f0ba4d4ef95803e8e3fc257f",
            "0x0000000000000000000000009964e83371c90a07188450cda2f1eb71d26cf704",
            "0x0000000000000000000000000000000000000000000000000000000000000000",
            "0x0000000000000000000000009964e83371c90a07188450cda2f1eb71d26cf704"
          ],
          "data": "0x",
          "blockHash": "0x6668efe200f80ab049dd45dfd67c876242566e1bf8c60f00b41f4dc3d59b96e1",
          "blockNumber": "0x157ddf1",
          "blockTimestamp": "0x682e9598",
          "transactionHash": "0x0fe9af64904f43edfdfef3fd29e0a30201306dd37488204046af3400886ac844",
          "transactionIndex": "0x0",
          "logIndex": "0x0",
          "removed": false
        },
        {
          "address": "0xc18360217d8f7ab5e7c516566761ea12ce7f9d72",
          "topics": [
            "0xdec2bacdd2f05b59de34da9b523dff8be42e5e38e818c82fdb0bae774387a724",
            "0x0000000000000000000000009964e83371c90a07188450cda2f1eb71d26cf704"
          ],
          "data": "0x000000000000000000000000000000000000000000000000000000000000000000000000000000000000000000000000000000000000021e19e0c9bab2400000",
          "blockHash": "0x6668efe200f80ab049dd45dfd67c876242566e1bf8c60f00b41f4dc3d59b96e1",
          "blockNumber": "0x157ddf1",
          "blockTimestamp": "0x682e9598",
          "transactionHash": "0x0fe9af64904f43edfdfef3fd29e0a30201306dd37488204046af3400886ac844",
          "transactionIndex": "0x0",
          "logIndex": "0x1",
          "removed": false
        }
      ],
      "logsBloom": "0x00000000000000000000000000000000000020000000000000000000000000000001000000000200000010000000080000020000000004000000000000000000000000000000000000000000000000000000000000000000000000000000000000000000020000000040000000000800000000000000000000000000000000000000000000000000000000000000000004000000000000000000000000000000040000000000000000000000000000000000000000000000000000000000000000000000000000000000000000000000000080000000000000000000000020000001000000000000000000000000000000000000000000000000000000000000",
      "type": "0x2",
      "transactionHash": "0x0fe9af64904f43edfdfef3fd29e0a30201306dd37488204046af3400886ac844",
      "transactionIndex": "0x0",
      "blockHash": "0x6668efe200f80ab049dd45dfd67c876242566e1bf8c60f00b41f4dc3d59b96e1",
      "blockNumber": "0x157ddf1",
      "gasUsed": "0x178b0",
      "effectiveGasPrice": "0x616eb26",
      "blobGasPrice": "0x1",
      "from": "0x9964e83371c90a07188450cda2f1eb71d26cf704",
      "to": "0xc18360217d8f7ab5e7c516566761ea12ce7f9d72",
      "contractAddress": null
    },
    {
      "status": "0x1",
      "cumulativeGasUsed": "0xdf21",
      "logs": [
        {
          "address": "0xc18360217d8f7ab5e7c516566761ea12ce7f9d72",
          "topics": [
            "0xddf252ad1be2c89b69c2b068fc378daa952ba7f163c4a11628f55a4df523b3ef",
            "0x000000000000000000000000690f0581ececcf8389c223170778cd9d029606f2",
            "0x000000000000000000000000ab14753f140280066cd201268cc7aef2d5d8ccbf"
          ],
          "data": "0x000000000000000000000000000000000000000000000a968163f0a57b400000",
          "blockHash": "0xbd377c90ad5a0e66e7e4c7e6326b847ea4078c86f3ebdb6aecab5667cdf13a29",
          "blockNumber": "0x157ddf2",
          "blockTimestamp": "0x682e9598",
          "transactionHash": "0xf8669b5ce9f6e78f3b3161353e2fbaecf90cbe2e593ea0abe6125545390eca3c",
          "transactionIndex": "0x0",
          "logIndex": "0x0",
          "removed": false
        }
      ],
      "logsBloom": "0x00000000000000000000000000010000000000000000000000000000000000000001000000000000000000000000000001000000000004000000000000000000000000000000000000000008000000000400000000000000000000000000000000000000000000000004000000000000000000000000000000000010000000000000000000000008000000000000000000000000000000000000000000000000000000000000000000000000000000000000000000000000000000000000000000000002000000000000000000000000000000000000080000000000000000000001000000000000000000000000000000000000000000000000000000000000",
      "type": "0x2",
      "transactionHash": "0xf8669b5ce9f6e78f3b3161353e2fbaecf90cbe2e593ea0abe6125545390eca3c",
      "transactionIndex": "0x0",
      "blockHash": "0xbd377c90ad5a0e66e7e4c7e6326b847ea4078c86f3ebdb6aecab5667cdf13a29",
      "blockNumber": "0x157ddf2",
      "gasUsed": "0xdf21",
      "effectiveGasPrice": "0x5b3f447",
      "blobGasPrice": "0x1",
      "from": "0x690f0581ececcf8389c223170778cd9d029606f2",
      "to": "0xc18360217d8f7ab5e7c516566761ea12ce7f9d72",
      "contractAddress": null
    },
    {
      "status": "0x1",
      "cumulativeGasUsed": "0x5208",
      "logs": [],
      "logsBloom": "0x00000000000000000000000000000000000000000000000000000000000000000000000000000000000000000000000000000000000000000000000000000000000000000000000000000000000000000000000000000000000000000000000000000000000000000000000000000000000000000000000000000000000000000000000000000000000000000000000000000000000000000000000000000000000000000000000000000000000000000000000000000000000000000000000000000000000000000000000000000000000000000000000000000000000000000000000000000000000000000000000000000000000000000000000000000000",
      "type": "0x2",
      "transactionHash": "0x46ea3601a2a02135f9b874e6e75d5f90dbcafe7aba18cdce0c424b8d78de54d5",
      "transactionIndex": "0x0",
      "blockHash": "0xff071d5d65b51b12de5e10a6004ece06d88541966ca0ae50a6769c15eb606749",
      "blockNumber": "0x157ddf3",
      "gasUsed": "0x5208",
      "effectiveGasPrice": "0x55d1a97",
      "blobGasPrice": "0x1",
      "from": "0x690f0581ececcf8389c223170778cd9d029606f2",
      "to": "0xab14753f140280066cd201268cc7aef2d5d8ccbf",
      "contractAddress": null
    },
    {
      "status": "0x1",
      "cumulativeGasUsed": "0x178b0",
      "logs": [
        {
          "address": "0xc18360217d8f7ab5e7c516566761ea12ce7f9d72",
          "topics": [
            "0x3134e8a2e6d97e929a7e54011ea5485d7d196dd5f0ba4d4ef95803e8e3fc257f",
            "0x000000000000000000000000ab14753f140280066cd201268cc7aef2d5d8ccbf",
            "0x0000000000000000000000000000000000000000000000000000000000000000",
            "0x000000000000000000000000ab14753f140280066cd201268cc7aef2d5d8ccbf"
          ],
          "data": "0x",
          "blockHash": "0x1e9d1462aee090472cb16f6a46fdcbff5001813c304e9bf93385081483a71ad2",
          "blockNumber": "0x157ddf4",
          "blockTimestamp": "0x682e9598",
          "transactionHash": "0x99a6e71ec61fded6e284345be2416c7bd7022c6bc32514aec88aa87b3f4579ec",
          "transactionIndex": "0x0",
          "logIndex": "0x0",
          "removed": false
        },
        {
          "address": "0xc18360217d8f7ab5e7c516566761ea12ce7f9d72",
          "topics": [
            "0xdec2bacdd2f05b59de34da9b523dff8be42e5e38e818c82fdb0bae774387a724",
            "0x000000000000000000000000ab14753f140280066cd201268cc7aef2d5d8ccbf"
          ],
          "data": "0x0000000000000000000000000000000000000000000000000000000000000000000000000000000000000000000000000000000000000a968163f0a57b400000",
          "blockHash": "0x1e9d1462aee090472cb16f6a46fdcbff5001813c304e9bf93385081483a71ad2",
          "blockNumber": "0x157ddf4",
          "blockTimestamp": "0x682e9598",
          "transactionHash": "0x99a6e71ec61fded6e284345be2416c7bd7022c6bc32514aec88aa87b3f4579ec",
          "transactionIndex": "0x0",
          "logIndex": "0x1",
          "removed": false
        }
      ],
      "logsBloom": "0x00000000000000000000000000000000000020000000000000000000000000000001000000000200000010000000000000020000000004000000000000000000000000000000000000000000000000000400000000000000000000000000000000000000020000000040000000000800000000000000000000000000000000000000000000000008000000000000000000000000000000000000000000000000040000000000000000000000000000000000000000000000000000000000000000000000000000000000000000000000000000000000080000000000000020000001000000000000000000000000000000000000000000000000000000000000",
      "type": "0x2",
      "transactionHash": "0x99a6e71ec61fded6e284345be2416c7bd7022c6bc32514aec88aa87b3f4579ec",
      "transactionIndex": "0x0",
      "blockHash": "0x1e9d1462aee090472cb16f6a46fdcbff5001813c304e9bf93385081483a71ad2",
      "blockNumber": "0x157ddf4",
      "gasUsed": "0x178b0",
      "effectiveGasPrice": "0x510ec1c",
      "blobGasPrice": "0x1",
      "from": "0xab14753f140280066cd201268cc7aef2d5d8ccbf",
      "to": "0xc18360217d8f7ab5e7c516566761ea12ce7f9d72",
      "contractAddress": null
    },
    {
      "status": "0x1",
      "cumulativeGasUsed": "0xdf15",
      "logs": [
        {
          "address": "0xc18360217d8f7ab5e7c516566761ea12ce7f9d72",
          "topics": [
            "0xddf252ad1be2c89b69c2b068fc378daa952ba7f163c4a11628f55a4df523b3ef",
            "0x000000000000000000000000690f0581ececcf8389c223170778cd9d029606f2",
            "0x0000000000000000000000000623e0209e952a7a7a7eedf0e34a4ca18907b835"
          ],
          "data": "0x00000000000000000000000000000000000000000000003635c9adc5dea00000",
          "blockHash": "0xa58c40761518f915ec3410717db2433b347f04b2564015d04a741b5932e4f85d",
          "blockNumber": "0x157ddf5",
          "blockTimestamp": "0x682e9598",
          "transactionHash": "0x522fb2d89d076638bb2d7995e970120840ad63f574cd0bea23830947f74ab236",
          "transactionIndex": "0x0",
          "logIndex": "0x0",
          "removed": false
        }
      ],
      "logsBloom": "0x00000000000000000000000000010000000000000000000000000000000000000001000000000000000000000000000001000000000004000000000000000000000000000000000000000008000000000000000000000000000000000000000000000000000000000004000000000000000000000000000000000010000000000000000020000000000000000000000000000020000000000000000000000000000000000000000000000000000000000000000000000000000000000000000000000002000000000000000000000000000000000000000000000000000000000001000400000000000000000000000000000000000000000000000000000000",
      "type": "0x2",
      "transactionHash": "0x522fb2d89d076638bb2d7995e970120840ad63f574cd0bea23830947f74ab236",
      "transactionIndex": "0x0",
      "blockHash": "0xa58c40761518f915ec3410717db2433b347f04b2564015d04a741b5932e4f85d",
      "blockNumber": "0x157ddf5",
      "gasUsed": "0xdf15",
      "effectiveGasPrice": "0x4ce8834",
      "blobGasPrice": "0x1",
      "from": "0x690f0581ececcf8389c223170778cd9d029606f2",
      "to": "0xc18360217d8f7ab5e7c516566761ea12ce7f9d72",
      "contractAddress": null
    },
    {
      "status": "0x1",
      "cumulativeGasUsed": "0x5208",
      "logs": [],
      "logsBloom": "0x00000000000000000000000000000000000000000000000000000000000000000000000000000000000000000000000000000000000000000000000000000000000000000000000000000000000000000000000000000000000000000000000000000000000000000000000000000000000000000000000000000000000000000000000000000000000000000000000000000000000000000000000000000000000000000000000000000000000000000000000000000000000000000000000000000000000000000000000000000000000000000000000000000000000000000000000000000000000000000000000000000000000000000000000000000000",
      "type": "0x2",
      "transactionHash": "0x4920bc9f61e6cd0c313498a9ccaca97ed1612bb2168ea90e40293b607167d96a",
      "transactionIndex": "0x0",
      "blockHash": "0xf2eaa6b4f8d27607c7cff56df2774092c0908261fb5f69796b653ea58f901a5c",
      "blockNumber": "0x157ddf6",
      "gasUsed": "0x5208",
      "effectiveGasPrice": "0x49444b7",
      "blobGasPrice": "0x1",
      "from": "0x690f0581ececcf8389c223170778cd9d029606f2",
      "to": "0x0623e0209e952a7a7a7eedf0e34a4ca18907b835",
      "contractAddress": null
    },
    {
      "status": "0x1",
      "cumulativeGasUsed": "0x178b0",
      "logs": [
        {
          "address": "0xc18360217d8f7ab5e7c516566761ea12ce7f9d72",
          "topics": [
            "0x3134e8a2e6d97e929a7e54011ea5485d7d196dd5f0ba4d4ef95803e8e3fc257f",
            "0x0000000000000000000000000623e0209e952a7a7a7eedf0e34a4ca18907b835",
            "0x0000000000000000000000000000000000000000000000000000000000000000",
            "0x0000000000000000000000000623e0209e952a7a7a7eedf0e34a4ca18907b835"
          ],
          "data": "0x",
          "blockHash": "0x69d7b287ea41479aaf26c6ced44cbae0ffd2e7efd52e2b461d6825489b43beb6",
          "blockNumber": "0x157ddf7",
          "blockTimestamp": "0x682e9598",
          "transactionHash": "0x775a68def583fad8c5607bf70e07d29c95c375bd0c22c4849cc627ea6f156a74",
          "transactionIndex": "0x0",
          "logIndex": "0x0",
          "removed": false
        },
        {
          "address": "0xc18360217d8f7ab5e7c516566761ea12ce7f9d72",
          "topics": [
            "0xdec2bacdd2f05b59de34da9b523dff8be42e5e38e818c82fdb0bae774387a724",
            "0x0000000000000000000000000623e0209e952a7a7a7eedf0e34a4ca18907b835"
          ],
          "data": "0x000000000000000000000000000000000000000000000000000000000000000000000000000000000000000000000000000000000000003635c9adc5dea00000",
          "blockHash": "0x69d7b287ea41479aaf26c6ced44cbae0ffd2e7efd52e2b461d6825489b43beb6",
          "blockNumber": "0x157ddf7",
          "blockTimestamp": "0x682e9598",
          "transactionHash": "0x775a68def583fad8c5607bf70e07d29c95c375bd0c22c4849cc627ea6f156a74",
          "transactionIndex": "0x0",
          "logIndex": "0x1",
          "removed": false
        }
      ],
      "logsBloom": "0x00000000000000000000000000000000000020000000000000000000000000000001000000000200000010000000000000020000000004000000000000000000000000000000000000000000000000000000000000000000000000000000000000000000020000000040000000000800000000000000000000000000000000000000000020000000000000000000000000000020000000000000000000000000040000000000000000000000000000000000000000000000000000000000000000000000000000000000000000000000000000000000000000000000000020000001000400000000000000000000000000000000000000000000000000000000",
      "type": "0x2",
      "transactionHash": "0x775a68def583fad8c5607bf70e07d29c95c375bd0c22c4849cc627ea6f156a74",
      "transactionIndex": "0x0",
      "blockHash": "0x69d7b287ea41479aaf26c6ced44cbae0ffd2e7efd52e2b461d6825489b43beb6",
      "blockNumber": "0x157ddf7",
      "gasUsed": "0x178b0",
      "effectiveGasPrice": "0x4612979",
      "blobGasPrice": "0x1",
      "from": "0x0623e0209e952a7a7a7eedf0e34a4ca18907b835",
      "to": "0xc18360217d8f7ab5e7c516566761ea12ce7f9d72",
      "contractAddress": null
    }
  ],
  "libraries": [],
  "pending": [],
  "returns": {},
  "timestamp": 1747884954,
  "chain": 1,
  "commit": "ff54867"
}