{
  "transactions": [
    {
      "hash": "0xc6bd2f0ecc56794836c1e97f131884418e033d3491a4be5cb959616f8bfefc7e",
      "transactionType": "CALL",
      "contractName": null,
      "contractAddress": "0xc18360217d8f7ab5e7c516566761ea12ce7f9d72",
      "function": "transfer(address,uint256)",
      "arguments": [
        "0xD5E90EdAa0a44f529cafDe088E93C71527A39c8E",
        "1000000000000000000000"
      ],
      "transaction": {
        "from": "0x690f0581ececcf8389c223170778cd9d029606f2",
        "to": "0xc18360217d8f7ab5e7c516566761ea12ce7f9d72",
        "gas": "0x13421",
        "value": "0x0",
        "input": "0xa9059cbb000000000000000000000000d5e90edaa0a44f529cafde088e93c71527a39c8e00000000000000000000000000000000000000000000003635c9adc5dea00000",
        "nonce": "0x1",
        "chainId": "0x1"
      },
      "additionalContracts": [],
      "isFixedGasLimit": false
    },
    {
      "hash": "0x5a60f2830af32a355a6895ba8b727ffd4b461ddddbf73e76bdd6941014f280dd",
      "transactionType": "CALL",
      "contractName": null,
      "contractAddress": "0xd5e90edaa0a44f529cafde088e93c71527a39c8e",
      "function": null,
      "arguments": null,
      "transaction": {
        "from": "0x690f0581ececcf8389c223170778cd9d029606f2",
        "to": "0xd5e90edaa0a44f529cafde088e93c71527a39c8e",
        "gas": "0x714d",
        "value": "0xde0b6b3a7640000",
        "input": "0x",
        "nonce": "0x2",
        "chainId": "0x1"
      },
      "additionalContracts": [],
      "isFixedGasLimit": false
    },
    {
      "hash": "0x4c5e5c0626181ffc96acf7ec34fc14d4efe63e08887d37b91e5ed39465a18ef5",
      "transactionType": "CALL",
      "contractName": null,
      "contractAddress": "0xc18360217d8f7ab5e7c516566761ea12ce7f9d72",
      "function": "delegate(address)",
      "arguments": [
        "0xD5E90EdAa0a44f529cafDe088E93C71527A39c8E"
      ],
      "transaction": {
        "from": "0xd5e90edaa0a44f529cafde088e93c71527a39c8e",
        "to": "0xc18360217d8f7ab5e7c516566761ea12ce7f9d72",
        "gas": "0x2084c",
        "value": "0x0",
        "input": "0x5c19a95c000000000000000000000000d5e90edaa0a44f529cafde088e93c71527a39c8e",
        "nonce": "0x0",
        "chainId": "0x1"
      },
      "additionalContracts": [],
      "isFixedGasLimit": false
    },
    {
      "hash": "0xbbedf7acd679a76164ff73e200eb2ed3f41bd1f14d2ef1a092ae95069c339f08",
      "transactionType": "CALL",
      "contractName": null,
      "contractAddress": "0xc18360217d8f7ab5e7c516566761ea12ce7f9d72",
      "function": "transfer(address,uint256)",
      "arguments": [
        "0xe9D9c8f746937803094f1019C94e0252Be8A0547",
        "10000000000000000000000"
      ],
      "transaction": {
        "from": "0x690f0581ececcf8389c223170778cd9d029606f2",
        "to": "0xc18360217d8f7ab5e7c516566761ea12ce7f9d72",
        "gas": "0x14653",
        "value": "0x0",
        "input": "0xa9059cbb000000000000000000000000e9d9c8f746937803094f1019c94e0252be8a054700000000000000000000000000000000000000000000021e19e0c9bab2400000",
        "nonce": "0x3",
        "chainId": "0x1"
      },
      "additionalContracts": [],
      "isFixedGasLimit": false
    },
    {
      "hash": "0x130e64049338cd2e47cfe9d9592c3a88155e7caac9b0f139d23e9370f0da8390",
      "transactionType": "CALL",
      "contractName": null,
      "contractAddress": "0xe9d9c8f746937803094f1019c94e0252be8a0547",
      "function": null,
      "arguments": null,
      "transaction": {
        "from": "0x690f0581ececcf8389c223170778cd9d029606f2",
        "to": "0xe9d9c8f746937803094f1019c94e0252be8a0547",
        "gas": "0x714d",
        "value": "0xde0b6b3a7640000",
        "input": "0x",
        "nonce": "0x4",
        "chainId": "0x1"
      },
      "additionalContracts": [],
      "isFixedGasLimit": false
    },
    {
      "hash": "0xe4050b02e4a695a256f1af9b3e9662d9f9507454a4ad936bde420b482d7f7e4a",
      "transactionType": "CALL",
      "contractName": null,
      "contractAddress": "0xc18360217d8f7ab5e7c516566761ea12ce7f9d72",
      "function": "delegate(address)",
      "arguments": [
        "0xe9D9c8f746937803094f1019C94e0252Be8A0547"
      ],
      "transaction": {
        "from": "0xe9d9c8f746937803094f1019c94e0252be8a0547",
        "to": "0xc18360217d8f7ab5e7c516566761ea12ce7f9d72",
        "gas": "0x2084c",
        "value": "0x0",
        "input": "0x5c19a95c000000000000000000000000e9d9c8f746937803094f1019c94e0252be8a0547",
        "nonce": "0x0",
        "chainId": "0x1"
      },
      "additionalContracts": [],
      "isFixedGasLimit": false
    },
    {
      "hash": "0x65139385d4b6796e8b0b5abbb03749d748c537aa6fcf0e91cd1c99cc9883fcc9",
      "transactionType": "CALL",
      "contractName": null,
      "contractAddress": "0xc18360217d8f7ab5e7c516566761ea12ce7f9d72",
      "function": "transfer(address,uint256)",
      "arguments": [
        "0x0B535A60b26023B4c5c6BeEa1e445f46BBDd906A",
        "50000000000000000000000"
      ],
      "transaction": {
        "from": "0x690f0581ececcf8389c223170778cd9d029606f2",
        "to": "0xc18360217d8f7ab5e7c516566761ea12ce7f9d72",
        "gas": "0x14653",
        "value": "0x0",
        "input": "0xa9059cbb0000000000000000000000000b535a60b26023b4c5c6beea1e445f46bbdd906a000000000000000000000000000000000000000000000a968163f0a57b400000",
        "nonce": "0x5",
        "chainId": "0x1"
      },
      "additionalContracts": [],
      "isFixedGasLimit": false
    },
    {
      "hash": "0x6d1e3aa306369288ff925c04a881a187d762d32f3ca83994bc0daeb8882561f8",
      "transactionType": "CALL",
      "contractName": null,
      "contractAddress": "0x0b535a60b26023b4c5c6beea1e445f46bbdd906a",
      "function": null,
      "arguments": null,
      "transaction": {
        "from": "0x690f0581ececcf8389c223170778cd9d029606f2",
        "to": "0x0b535a60b26023b4c5c6beea1e445f46bbdd906a",
        "gas": "0x714d",
        "value": "0xde0b6b3a7640000",
        "input": "0x",
        "nonce": "0x6",
        "chainId": "0x1"
      },
      "additionalContracts": [],
      "isFixedGasLimit": false
    },
    {
      "hash": "0x020598d7b751d3603ed294c1560f2b5e794151c98add9ea94bc4756b66ada373",
      "transactionType": "CALL",
      "contractName": null,
      "contractAddress": "0xc18360217d8f7ab5e7c516566761ea12ce7f9d72",
      "function": "delegate(address)",
      "arguments": [
        "0x0B535A60b26023B4c5c6BeEa1e445f46BBDd906A"
      ],
      "transaction": {
        "from": "0x0b535a60b26023b4c5c6beea1e445f46bbdd906a",
        "to": "0xc18360217d8f7ab5e7c516566761ea12ce7f9d72",
        "gas": "0x2084c",
        "value": "0x0",
        "input": "0x5c19a95c0000000000000000000000000b535a60b26023b4c5c6beea1e445f46bbdd906a",
        "nonce": "0x0",
        "chainId": "0x1"
      },
      "additionalContracts": [],
      "isFixedGasLimit": false
    },
    {
      "hash": "0xa0f45e074a46c3e4a1443f9234b1e31d0c30da4b3431db661d585a245deea669",
      "transactionType": "CALL",
      "contractName": null,
      "contractAddress": "0xc18360217d8f7ab5e7c516566761ea12ce7f9d72",
      "function": "transfer(address,uint256)",
      "arguments": [
        "0x3a9b0C811312A51fc63D3D4C21BCFbF1107C4d47",
        "1000000000000000000000"
      ],
      "transaction": {
        "from": "0x690f0581ececcf8389c223170778cd9d029606f2",
        "to": "0xc18360217d8f7ab5e7c516566761ea12ce7f9d72",
        "gas": "0x13421",
        "value": "0x0",
        "input": "0xa9059cbb0000000000000000000000003a9b0c811312a51fc63d3d4c21bcfbf1107c4d4700000000000000000000000000000000000000000000003635c9adc5dea00000",
        "nonce": "0x7",
        "chainId": "0x1"
      },
      "additionalContracts": [],
      "isFixedGasLimit": false
    },
    {
      "hash": "0x8e2a45ae1139a03a8e66ac538de8bf96ae4f94cfa91e6e3297d33e8a914c2aae",
      "transactionType": "CALL",
      "contractName": null,
      "contractAddress": "0x3a9b0c811312a51fc63d3d4c21bcfbf1107c4d47",
      "function": null,
      "arguments": null,
      "transaction": {
        "from": "0x690f0581ececcf8389c223170778cd9d029606f2",
        "to": "0x3a9b0c811312a51fc63d3d4c21bcfbf1107c4d47",
        "gas": "0x714d",
        "value": "0xde0b6b3a7640000",
        "input": "0x",
        "nonce": "0x8",
        "chainId": "0x1"
      },
      "additionalContracts": [],
      "isFixedGasLimit": false
    },
    {
      "hash": "0xa8d80ac705625010bf240063f7e58151d12ad93bb8d96abb1e94100a99ee0311",
      "transactionType": "CALL",
      "contractName": null,
      "contractAddress": "0xc18360217d8f7ab5e7c516566761ea12ce7f9d72",
      "function": "delegate(address)",
      "arguments": [
        "0x3a9b0C811312A51fc63D3D4C21BCFbF1107C4d47"
      ],
      "transaction": {
        "from": "0x3a9b0c811312a51fc63d3d4c21bcfbf1107c4d47",
        "to": "0xc18360217d8f7ab5e7c516566761ea12ce7f9d72",
        "gas": "0x2084c",
        "value": "0x0",
        "input": "0x5c19a95c0000000000000000000000003a9b0c811312a51fc63d3d4c21bcfbf1107c4d47",
        "nonce": "0x0",
        "chainId": "0x1"
      },
      "additionalContracts": [],
      "isFixedGasLimit": false
    },
    {
      "hash": "0xd6e9fe12366bc8dcc315c40ff73194f2798752c699edc4456a927d22cb40a5e6",
      "transactionType": "CALL",
      "contractName": null,
      "contractAddress": "0xc18360217d8f7ab5e7c516566761ea12ce7f9d72",
      "function": "transfer(address,uint256)",
      "arguments": [
        "0x409C30EdE66C2dE55f7B7152F6720A5811571aC7",
        "10000000000000000000000"
      ],
      "transaction": {
        "from": "0x690f0581ececcf8389c223170778cd9d029606f2",
        "to": "0xc18360217d8f7ab5e7c516566761ea12ce7f9d72",
        "gas": "0x14653",
        "value": "0x0",
        "input": "0xa9059cbb000000000000000000000000409c30ede66c2de55f7b7152f6720a5811571ac700000000000000000000000000000000000000000000021e19e0c9bab2400000",
        "nonce": "0x9",
        "chainId": "0x1"
      },
      "additionalContracts": [],
      "isFixedGasLimit": false
    },
    {
      "hash": "0xafb8f11ad61c105cf23c25fd4a7763ccce1bff1d1cfc590435db4cd893edda23",
      "transactionType": "CALL",
      "contractName": null,
      "contractAddress": "0x409c30ede66c2de55f7b7152f6720a5811571ac7",
      "function": null,
      "arguments": null,
      "transaction": {
        "from": "0x690f0581ececcf8389c223170778cd9d029606f2",
        "to": "0x409c30ede66c2de55f7b7152f6720a5811571ac7",
        "gas": "0x714d",
        "value": "0xde0b6b3a7640000",
        "input": "0x",
        "nonce": "0xa",
        "chainId": "0x1"
      },
      "additionalContracts": [],
      "isFixedGasLimit": false
    },
    {
      "hash": "0xe1c928fa3322e4d8d0faf0e393cdd107c5dba66546a39084978d86865f27accf",
      "transactionType": "CALL",
      "contractName": null,
      "contractAddress": "0xc18360217d8f7ab5e7c516566761ea12ce7f9d72",
      "function": "delegate(address)",
      "arguments": [
        "0x409C30EdE66C2dE55f7B7152F6720A5811571aC7"
      ],
      "transaction": {
        "from": "0x409c30ede66c2de55f7b7152f6720a5811571ac7",
        "to": "0xc18360217d8f7ab5e7c516566761ea12ce7f9d72",
        "gas": "0x2084c",
        "value": "0x0",
        "input": "0x5c19a95c000000000000000000000000409c30ede66c2de55f7b7152f6720a5811571ac7",
        "nonce": "0x0",
        "chainId": "0x1"
      },
      "additionalContracts": [],
      "isFixedGasLimit": false
    },
    {
      "hash": "0x768591549957f7ad9042be10a29bbcba32cedbd56756c260d34bc5a3a333e70b",
      "transactionType": "CALL",
      "contractName": null,
      "contractAddress": "0xc18360217d8f7ab5e7c516566761ea12ce7f9d72",
      "function": "transfer(address,uint256)",
      "arguments": [
        "0xfc4627A097987907642e6b8C90bCb69c9BEB6d71",
        "50000000000000000000000"
      ],
      "transaction": {
        "from": "0x690f0581ececcf8389c223170778cd9d029606f2",
        "to": "0xc18360217d8f7ab5e7c516566761ea12ce7f9d72",
        "gas": "0x14653",
        "value": "0x0",
        "input": "0xa9059cbb000000000000000000000000fc4627a097987907642e6b8c90bcb69c9beb6d71000000000000000000000000000000000000000000000a968163f0a57b400000",
        "nonce": "0xb",
        "chainId": "0x1"
      },
      "additionalContracts": [],
      "isFixedGasLimit": false
    },
    {
      "hash": "0xa1a164b59178edb623dfdbc1dcbb96c5bda2df309ec775b9030bb756c23e10e8",
      "transactionType": "CALL",
      "contractName": null,
      "contractAddress": "0xfc4627a097987907642e6b8c90bcb69c9beb6d71",
      "function": null,
      "arguments": null,
      "transaction": {
        "from": "0x690f0581ececcf8389c223170778cd9d029606f2",
        "to": "0xfc4627a097987907642e6b8c90bcb69c9beb6d71",
        "gas": "0x714d",
        "value": "0xde0b6b3a7640000",
        "input": "0x",
        "nonce": "0xc",
        "chainId": "0x1"
      },
      "additionalContracts": [],
      "isFixedGasLimit": false
    },
    {
      "hash": "0x5acb7b9b19ee1811b11abf27c919dc6ecebb38a5ae3a9182326d2de667b86f95",
      "transactionType": "CALL",
      "contractName": null,
      "contractAddress": "0xc18360217d8f7ab5e7c516566761ea12ce7f9d72",
      "function": "delegate(address)",
      "arguments": [
        "0xfc4627A097987907642e6b8C90bCb69c9BEB6d71"
      ],
      "transaction": {
        "from": "0xfc4627a097987907642e6b8c90bcb69c9beb6d71",
        "to": "0xc18360217d8f7ab5e7c516566761ea12ce7f9d72",
        "gas": "0x2084c",
        "value": "0x0",
        "input": "0x5c19a95c000000000000000000000000fc4627a097987907642e6b8c90bcb69c9beb6d71",
        "nonce": "0x0",
        "chainId": "0x1"
      },
      "additionalContracts": [],
      "isFixedGasLimit": false
    },
    {
      "hash": "0xf735ff7d7a2232b7816254e484c46e537d803eeb5af5826b38d86c559eadc116",
      "transactionType": "CALL",
      "contractName": null,
      "contractAddress": "0xc18360217d8f7ab5e7c516566761ea12ce7f9d72",
      "function": "transfer(address,uint256)",
      "arguments": [
        "0x715DF8928803e7c53C96021dcCD1F028BfE2777C",
        "1000000000000000000000"
      ],
      "transaction": {
        "from": "0x690f0581ececcf8389c223170778cd9d029606f2",
        "to": "0xc18360217d8f7ab5e7c516566761ea12ce7f9d72",
        "gas": "0x13421",
        "value": "0x0",
        "input": "0xa9059cbb000000000000000000000000715df8928803e7c53c96021dccd1f028bfe2777c00000000000000000000000000000000000000000000003635c9adc5dea00000",
        "nonce": "0xd",
        "chainId": "0x1"
      },
      "additionalContracts": [],
      "isFixedGasLimit": false
    },
    {
      "hash": "0xa956fb7b3adeacd3927b525e4bdb0126a5c82689e18a7d95e0e48e15f67bed32",
      "transactionType": "CALL",
      "contractName": null,
      "contractAddress": "0x715df8928803e7c53c96021dccd1f028bfe2777c",
      "function": null,
      "arguments": null,
      "transaction": {
        "from": "0x690f0581ececcf8389c223170778cd9d029606f2",
        "to": "0x715df8928803e7c53c96021dccd1f028bfe2777c",
        "gas": "0x714d",
        "value": "0xde0b6b3a7640000",
        "input": "0x",
        "nonce": "0xe",
        "chainId": "0x1"
      },
      "additionalContracts": [],
      "isFixedGasLimit": false
    },
    {
      "hash": "0x02fb9192abd08bdbe64b65ebfc2a56a6bf9962fad9b56ef43b2c1d89187a8aa9",
      "transactionType": "CALL",
      "contractName": null,
      "contractAddress": "0xc18360217d8f7ab5e7c516566761ea12ce7f9d72",
      "function": "delegate(address)",
      "arguments": [
        "0x715DF8928803e7c53C96021dcCD1F028BfE2777C"
      ],
      "transaction": {
        "from": "0x715df8928803e7c53c96021dccd1f028bfe2777c",
        "to": "0xc18360217d8f7ab5e7c516566761ea12ce7f9d72",
        "gas": "0x2084c",
        "value": "0x0",
        "input": "0x5c19a95c000000000000000000000000715df8928803e7c53c96021dccd1f028bfe2777c",
        "nonce": "0x0",
        "chainId": "0x1"
      },
      "additionalContracts": [],
      "isFixedGasLimit": false
    },
    {
      "hash": "0x03a254d5eeaecd88320d229a73cd72316c8a55d517011a79a4a8b6d37373acc7",
      "transactionType": "CALL",
      "contractName": null,
      "contractAddress": "0xc18360217d8f7ab5e7c516566761ea12ce7f9d72",
      "function": "transfer(address,uint256)",
      "arguments": [
        "0x9964e83371C90a07188450cDa2F1eb71D26Cf704",
        "10000000000000000000000"
      ],
      "transaction": {
        "from": "0x690f0581ececcf8389c223170778cd9d029606f2",
        "to": "0xc18360217d8f7ab5e7c516566761ea12ce7f9d72",
        "gas": "0x14653",
        "value": "0x0",
        "input": "0xa9059cbb0000000000000000000000009964e83371c90a07188450cda2f1eb71d26cf70400000000000000000000000000000000000000000000021e19e0c9bab2400000",
        "nonce": "0xf",
        "chainId": "0x1"
      },
      "additionalContracts": [],
      "isFixedGasLimit": false
    },
    {
      "hash": "0x49234692dfb99a8616fe08c9c5a1615ee60590d2e546b617bff6008e58ee9f0e",
      "transactionType": "CALL",
      "contractName": null,
      "contractAddress": "0x9964e83371c90a07188450cda2f1eb71d26cf704",
      "function": null,
      "arguments": null,
      "transaction": {
        "from": "0x690f0581ececcf8389c223170778cd9d029606f2",
        "to": "0x9964e83371c90a07188450cda2f1eb71d26cf704",
        "gas": "0x714d",
        "value": "0xde0b6b3a7640000",
        "input": "0x",
        "nonce": "0x10",
        "chainId": "0x1"
      },
      "additionalContracts": [],
      "isFixedGasLimit": false
    },
    {
      "hash": "0x0fe9af64904f43edfdfef3fd29e0a30201306dd37488204046af3400886ac844",
      "transactionType": "CALL",
      "contractName": null,
      "contractAddress": "0xc18360217d8f7ab5e7c516566761ea12ce7f9d72",
      "function": "delegate(address)",
      "arguments": [
        "0x9964e83371C90a07188450cDa2F1eb71D26Cf704"
      ],
      "transaction": {
        "from": "0x9964e83371c90a07188450cda2f1eb71d26cf704",
        "to": "0xc18360217d8f7ab5e7c516566761ea12ce7f9d72",
        "gas": "0x2084c",
        "value": "0x0",
        "input": "0x5c19a95c0000000000000000000000009964e83371c90a07188450cda2f1eb71d26cf704",
        "nonce": "0x0",
        "chainId": "0x1"
      },
      "additionalContracts": [],
      "isFixedGasLimit": false
    },
    {
      "hash": "0xf8669b5ce9f6e78f3b3161353e2fbaecf90cbe2e593ea0abe6125545390eca3c",
      "transactionType": "CALL",
      "contractName": null,
      "contractAddress": "0xc18360217d8f7ab5e7c516566761ea12ce7f9d72",
      "function": "transfer(address,uint256)",
      "arguments": [
        "0xAb14753F140280066cD201268Cc7AEf2d5d8CcbF",
        "50000000000000000000000"
      ],
      "transaction": {
        "from": "0x690f0581ececcf8389c223170778cd9d029606f2",
        "to": "0xc18360217d8f7ab5e7c516566761ea12ce7f9d72",
        "gas": "0x14653",
        "value": "0x0",
        "input": "0xa9059cbb000000000000000000000000ab14753f140280066cd201268cc7aef2d5d8ccbf000000000000000000000000000000000000000000000a968163f0a57b400000",
        "nonce": "0x11",
        "chainId": "0x1"
      },
      "additionalContracts": [],
      "isFixedGasLimit": false
    },
    {
      "hash": "0x46ea3601a2a02135f9b874e6e75d5f90dbcafe7aba18cdce0c424b8d78de54d5",
      "transactionType": "CALL",
      "contractName": null,
      "contractAddress": "0xab14753f140280066cd201268cc7aef2d5d8ccbf",
      "function": null,
      "arguments": null,
      "transaction": {
        "from": "0x690f0581ececcf8389c223170778cd9d029606f2",
        "to": "0xab14753f140280066cd201268cc7aef2d5d8ccbf",
        "gas": "0x714d",
        "value": "0xde0b6b3a7640000",
        "input": "0x",
        "nonce": "0x12",
        "chainId": "0x1"
      },
      "additionalContracts": [],
      "isFixedGasLimit": false
    },
    {
      "hash": "0x99a6e71ec61fded6e284345be2416c7bd7022c6bc32514aec88aa87b3f4579ec",
      "transactionType": "CALL",
      "contractName": null,
      "contractAddress": "0xc18360217d8f7ab5e7c516566761ea12ce7f9d72",
      "function": "delegate(address)",
      "arguments": [
        "0xAb14753F140280066cD201268Cc7AEf2d5d8CcbF"
      ],
      "transaction": {
        "from": "0xab14753f140280066cd201268cc7aef2d5d8ccbf",
        "to": "0xc18360217d8f7ab5e7c516566761ea12ce7f9d72",
        "gas": "0x2084c",
        "value": "0x0",
        "input": "0x5c19a95c000000000000000000000000ab14753f140280066cd201268cc7aef2d5d8ccbf",
        "nonce": "0x0",
        "chainId": "0x1"
      },
      "additionalContracts": [],
      "isFixedGasLimit": false
    },
    {
      "hash": "0x522fb2d89d076638bb2d7995e970120840ad63f574cd0bea23830947f74ab236",
      "transactionType": "CALL",
      "contractName": null,
      "contractAddress": "0xc18360217d8f7ab5e7c516566761ea12ce7f9d72",
      "function": "transfer(address,uint256)",
      "arguments": [
        "0x0623E0209E952a7a7A7eeDF0E34a4ca18907B835",
        "1000000000000000000000"
      ],
      "transaction": {
        "from": "0x690f0581ececcf8389c223170778cd9d029606f2",
        "to": "0xc18360217d8f7ab5e7c516566761ea12ce7f9d72",
        "gas": "0x13421",
        "value": "0x0",
        "input": "0xa9059cbb0000000000000000000000000623e0209e952a7a7a7eedf0e34a4ca18907b83500000000000000000000000000000000000000000000003635c9adc5dea00000",
        "nonce": "0x13",
        "chainId": "0x1"
      },
      "additionalContracts": [],
      "isFixedGasLimit": false
    },
    {
      "hash": "0x4920bc9f61e6cd0c313498a9ccaca97ed1612bb2168ea90e40293b607167d96a",
      "transactionType": "CALL",
      "contractName": null,
      "contractAddress": "0x0623e0209e952a7a7a7eedf0e34a4ca18907b835",
      "function": null,
      "arguments": null,
      "transaction": {
        "from": "0x690f0581ececcf8389c223170778cd9d029606f2",
        "to": "0x0623e0209e952a7a7a7eedf0e34a4ca18907b835",
        "gas": "0x714d",
        "value": "0xde0b6b3a7640000",
        "input": "0x",
        "nonce": "0x14",
        "chainId": "0x1"
      },
      "additionalContracts": [],
      "isFixedGasLimit": false
    },
    {
      "hash": "0x775a68def583fad8c5607bf70e07d29c95c375bd0c22c4849cc627ea6f156a74",
      "transactionType": "CALL",
      "contractName": null,
      "contractAddress": "0xc18360217d8f7ab5e7c516566761ea12ce7f9d72",
      "function": "delegate(address)",
      "arguments": [
        "0x0623E0209E952a7a7A7eeDF0E34a4ca18907B835"
      ],
      "transaction": {
        "from": "0x0623e0209e952a7a7a7eedf0e34a4ca18907b835",
        "to": "0xc18360217d8f7ab5e7c516566761ea12ce7f9d72",
        "gas": "0x2084c",
        "value": "0x0",
        "input": "0x5c19a95c0000000000000000000000000623e0209e952a7a7a7eedf0e34a4ca18907b835",
        "nonce": "0x0",
        "chainId": "0x1"
      },
      "additionalContracts": [],
      "isFixedGasLimit": false
    }
  ],
  "receipts": [
    {
      "status": "0x1",
      "cumulativeGasUsed": "0xdf15",
      "logs": [
        {
          "address": "0xc18360217d8f7ab5e7c516566761ea12ce7f9d72",
          "topics": [
            "0xddf252ad1be2c89b69c2b068fc378daa952ba7f163c4a11628f55a4df523b3ef",
            "0x000000000000000000000000690f0581ececcf8389c223170778cd9d029606f2",
            "0x000000000000000000000000d5e90edaa0a44f529cafde088e93c71527a39c8e"
          ],
          "data": "0x00000000000000000000000000000000000000000000003635c9adc5dea00000",
          "blockHash": "0x3ebc47c042d695faefea79fbc2385e561f1d3edd320e9ae44137c26b55f1aad3",
          "blockNumber": "0x157ddda",
          "blockTimestamp": "0x682e9597",
          "transactionHash": "0xc6bd2f0ecc56794836c1e97f131884418e033d3491a4be5cb959616f8bfefc7e",
          "transactionIndex": "0x0",
          "logIndex": "0x0",
          "removed": false
        }
      ],
      "logsBloom": "0x00000000000000000000000000010000000000000000000000000000000000000001000000000000000000000000000001000000000004000000000000000000200000000000000000000008000000000000000000000000000000000000000000000000000000000004000000000000000000000000008000000010000000000000000008000000000000000000000000000000000000000000000000000000000000000000000000000000000000000000000000000000000000000000000000000002000000000000000000000000000000000000000000000000000000000001000000000000000000000000000000000000000000000000000000000000",
      "type": "0x2",
      "transactionHash": "0xc6bd2f0ecc56794836c1e97f131884418e033d3491a4be5cb959616f8bfefc7e",
      "transactionIndex": "0x0",
      "blockHash": "0x3ebc47c042d695faefea79fbc2385e561f1d3edd320e9ae44137c26b55f1aad3",
      "blockNumber": "0x157ddda",
      "gasUsed": "0xdf15",
      "effectiveGasPrice": "0x455aa5e2",
      "blobGasPrice": "0x1",
      "from": "0x690f0581ececcf8389c223170778cd9d029606f2",
      "to": "0xc18360217d8f7ab5e7c516566761ea12ce7f9d72",
      "contractAddress": null
    },
    {
      "status": "0x1",
      "cumulativeGasUsed": "0x5208",
      "logs": [],
      "logsBloom": "0x00000000000000000000000000000000000000000000000000000000000000000000000000000000000000000000000000000000000000000000000000000000000000000000000000000000000000000000000000000000000000000000000000000000000000000000000000000000000000000000000000000000000000000000000000000000000000000000000000000000000000000000000000000000000000000000000000000000000000000000000000000000000000000000000000000000000000000000000000000000000000000000000000000000000000000000000000000000000000000000000000000000000000000000000000000000",
      "type": "0x2",
      "transactionHash": "0x5a60f2830af32a355a6895ba8b727ffd4b461ddddbf73e76bdd6941014f280dd",
      "transactionIndex": "0x0",
      "blockHash": "0x127e00420170833c625ec4e1bdff016bbf250237f040eb96c0db25f2ab493faa",
      "blockNumber": "0x157dddb",
      "gasUsed": "0x5208",
      "effectiveGasPrice": "0x3d156c55",
      "blobGasPrice": "0x1",
      "from": "0x690f0581ececcf8389c223170778cd9d029606f2",
      "to": "0xd5e90edaa0a44f529cafde088e93c71527a39c8e",
      "contractAddress": null
    },
    {
      "status": "0x1",
      "cumulativeGasUsed": "0x178b0",
      "logs": [
        {
          "address": "0xc18360217d8f7ab5e7c516566761ea12ce7f9d72",
          "topics": [
            "0x3134e8a2e6d97e929a7e54011ea5485d7d196dd5f0ba4d4ef95803e8e3fc257f",
            "0x000000000000000000000000d5e90edaa0a44f529cafde088e93c71527a39c8e",
            "0x0000000000000000000000000000000000000000000000000000000000000000",
            "0x000000000000000000000000d5e90edaa0a44f529cafde088e93c71527a39c8e"
          ],
          "data": "0x",
          "blockHash": "0xed0db73fe9bd94b3291e92bcd63731f6ee1d5fea9c491fdf3e42c7e218e3c041",
          "blockNumber": "0x157dddc",
          "blockTimestamp": "0x682e9597",
          "transactionHash": "0x4c5e5c0626181ffc96acf7ec34fc14d4efe63e08887d37b91e5ed39465a18ef5",
          "transactionIndex": "0x0",
          "logIndex": "0x0",
          "removed": false
        },
        {
          "address": "0xc18360217d8f7ab5e7c516566761ea12ce7f9d72",
          "topics": [
            "0xdec2bacdd2f05b59de34da9b523dff8be42e5e38e818c82fdb0bae774387a724",
            "0x000000000000000000000000d5e90edaa0a44f529cafde088e93c71527a39c8e"
          ],
          "data": "0x000000000000000000000000000000000000000000000000000000000000000000000000000000000000000000000000000000000000003635c9adc5dea00000",
          "blockHash": "0xed0db73fe9bd94b3291e92bcd63731f6ee1d5fea9c491fdf3e42c7e218e3c041",
          "blockNumber": "0x157dddc",
          "blockTimestamp": "0x682e9597",
          "transactionHash": "0x4c5e5c0626181ffc96acf7ec34fc14d4efe63e08887d37b91e5ed39465a18ef5",
          "transactionIndex": "0x0",
          "logIndex": "0x1",
          "removed": false
        }
      ],
      "logsBloom": "0x00000000000000000000000000000000000020000000000000000000000000000001000000000200000010000000000000020000000004000000000000000000200000000000000000000000000000000000000000000000000000000000000000000000020000000040000000000800000000000000008000000000000000000000000008000000000000000000000000000000000000000000000000000000040000000000000000000000000000000000000000000000000000000000000000000000000000000000000000000000000000000000000000000000000020000001000000000000000000000000000000000000000000000000000000000000",
      "type": "0x2",
      "transactionHash": "0x4c5e5c0626181ffc96acf7ec34fc14d4efe63e08887d37b91e5ed39465a18ef5",
      "transactionIndex": "0x0",
      "blockHash": "0xed0db73fe9bd94b3291e92bcd63731f6ee1d5fea9c491fdf3e42c7e218e3c041",
      "blockNumber": "0x157dddc",
      "gasUsed": "0x178b0",
      "effectiveGasPrice": "0x35d4482b",
      "blobGasPrice": "0x1",
      "from": "0xd5e90edaa0a44f529cafde088e93c71527a39c8e",
      "to": "0xc18360217d8f7ab5e7c516566761ea12ce7f9d72",
      "contractAddress": null
    },
    {
      "status": "0x1",
      "cumulativeGasUsed": "0xdf21",
      "logs": [
        {
          "address": "0xc18360217d8f7ab5e7c516566761ea12ce7f9d72",
          "topics": [
            "0xddf252ad1be2c89b69c2b068fc378daa952ba7f163c4a11628f55a4df523b3ef",
            "0x000000000000000000000000690f0581ececcf8389c223170778cd9d029606f2",
            "0x000000000000000000000000e9d9c8f746937803094f1019c94e0252be8a0547"
          ],
          "data": "0x00000000000000000000000000000000000000000000021e19e0c9bab2400000",
          "blockHash": "0x3b925477c6f0e93cbea401484e93b6b048926fd487713aed6c0c1a43d31220cd",
          "blockNumber": "0x157dddd",
          "blockTimestamp": "0x682e9597",
          "transactionHash": "0xbbedf7acd679a76164ff73e200eb2ed3f41bd1f14d2ef1a092ae95069c339f08",
          "transactionIndex": "0x0",
          "logIndex": "0x0",
          "removed": false
        }
      ],
      "logsBloom": "0x00000000000000000000000000010000000000000000000000000000000000000001000000000000000000000000000001000000000004000000000000000000000000000000000000000008000000000000000000000000000000000000100000000000000000000004000000000000000000000000000000000010000000000000000000000000000000000000000000000000000000000000000000000000000000000000000000000000000000000000000000000000000000000000000000000002000000000000000000000000004000000000000000000000000000000001000000000000000000000000000000000000000000000000400000000000",
      "type": "0x2",
      "transactionHash": "0xbbedf7acd679a76164ff73e200eb2ed3f41bd1f14d2ef1a092ae95069c339f08",
      "transactionIndex": "0x0",
      "blockHash": "0x3b925477c6f0e93cbea401484e93b6b048926fd487713aed6c0c1a43d31220cd",
      "blockNumber": "0x157dddd",
      "gasUsed": "0xdf21",
      "effectiveGasPrice": "0x2f81d4d6",
      "blobGasPrice": "0x1",
      "from": "0x690f0581ececcf8389c223170778cd9d029606f2",
      "to": "0xc18360217d8f7ab5e7c516566761ea12ce7f9d72",
      "contractAddress": null
    },
    {
      "status": "0x1",
      "cumulativeGasUsed": "0x5208",
      "logs": [],
      "logsBloom": "0x00000000000000000000000000000000000000000000000000000000000000000000000000000000000000000000000000000000000000000000000000000000000000000000000000000000000000000000000000000000000000000000000000000000000000000000000000000000000000000000000000000000000000000000000000000000000000000000000000000000000000000000000000000000000000000000000000000000000000000000000000000000000000000000000000000000000000000000000000000000000000000000000000000000000000000000000000000000000000000000000000000000000000000000000000000000",
      "type": "0x2",
      "transactionHash": "0x130e64049338cd2e47cfe9d9592c3a88155e7caac9b0f139d23e9370f0da8390",
      "transactionIndex": "0x0",
      "blockHash": "0x8efd1b4059063977355ba9cba1c523c156098d52f757054f992e95fc6b933c4d",
      "blockNumber": "0x157ddde",
      "gasUsed": "0x5208",
      "effectiveGasPrice": "0x29f57dd6",
      "blobGasPrice": "0x1",
      "from": "0x690f0581ececcf8389c223170778cd9d029606f2",
      "to": "0xe9d9c8f746937803094f1019c94e0252be8a0547",
      "contractAddress": null
    },
    {
      "status": "0x1",
      "cumulativeGasUsed": "0x178b0",
      "logs": [
        {
          "address": "0xc18360217d8f7ab5e7c516566761ea12ce7f9d72",
          "topics": [
            "0x3134e8a2e6d97e929a7e54011ea5485d7d196dd5f0ba4d4ef95803e8e3fc257f",
            "0x000000000000000000000000e9d9c8f746937803094f1019c94e0252be8a0547",
            "0x0000000000000000000000000000000000000000000000000000000000000000",
            "0x000000000000000000000000e9d9c8f746937803094f1019c94e0252be8a0547"
          ],
          "data": "0x",
          "blockHash": "0x99b2827b42e627e66f93847de8dc525a127939ab449e6ecba525325b72323e5f",
          "blockNumber": "0x157dddf",
          "blockTimestamp": "0x682e9597",
          "transactionHash": "0xe4050b02e4a695a256f1af9b3e9662d9f9507454a4ad936bde420b482d7f7e4a",
          "transactionIndex": "0x0",
          "logIndex": "0x0",
          "removed": false
        },
        {
          "address": "0xc18360217d8f7ab5e7c516566761ea12ce7f9d72",
          "topics": [
            "0xdec2bacdd2f05b59de34da9b523dff8be42e5e38e818c82fdb0bae774387a724",
            "0x000000000000000000000000e9d9c8f746937803094f1019c94e0252be8a0547"
          ],
          "data": "0x000000000000000000000000000000000000000000000000000000000000000000000000000000000000000000000000000000000000021e19e0c9bab2400000",
          "blockHash": "0x99b2827b42e627e66f93847de8dc525a127939ab449e6ecba525325b72323e5f",
          "blockNumber": "0x157dddf",
          "blockTimestamp": "0x682e9597",
          "transactionHash": "0xe4050b02e4a695a256f1af9b3e9662d9f9507454a4ad936bde420b482d7f7e4a",
          "transactionIndex": "0x0",
          "logIndex": "0x1",
          "removed": false
        }
      ],
      "logsBloom": "0x00000000000000000000000000000000000020000000000000000000000000000001000000000200000010000000000000020000000004000000000000000000000000000000000000000000000000000000000000000000000000000000100000000000020000000040000000000800000000000000000000000000000000000000000000000000000000000000000000000000000000000000000000000000040000000000000000000000000000000000000000000000000000000000000000000000000000000000000000000000004000000000000000000000000020000001000000000000000000000000000000000000000000000000400000000000",
      "type": "0x2",
      "transactionHash": "0xe4050b02e4a695a256f1af9b3e9662d9f9507454a4ad936bde420b482d7f7e4a",
      "transactionIndex": "0x0",
      "blockHash": "0x99b2827b42e627e66f93847de8dc525a127939ab449e6ecba525325b72323e5f",
      "blockNumber": "0x157dddf",
      "gasUsed": "0x178b0",
      "effectiveGasPrice": "0x2517a0b4",
      "blobGasPrice": "0x1",
      "from": "0xe9d9c8f746937803094f1019c94e0252be8a0547",
      "to": "0xc18360217d8f7ab5e7c516566761ea12ce7f9d72",
      "contractAddress": null
    },
    {
      "status": "0x1",
      "cumulativeGasUsed": "0xdf21",
      "logs": [
        {
          "address": "0xc18360217d8f7ab5e7c516566761ea12ce7f9d72",
          "topics": [
            "0xddf252ad1be2c89b69c2b068fc378daa952ba7f163c4a11628f55a4df523b3ef",
            "0x000000000000000000000000690f0581ececcf8389c223170778cd9d029606f2",
            "0x0000000000000000000000000b535a60b26023b4c5c6beea1e445f46bbdd906a"
          ],
          "data": "0x000000000000000000000000000000000000000000000a968163f0a57b400000",
          "blockHash": "0x8afc54b086618354ddbb6998dda6f368a39273422b36139d52b5e209cc6f8bfe",
          "blockNumber": "0x157dde0",
          "blockTimestamp": "0x682e9597",
          "transactionHash": "0x65139385d4b6796e8b0b5abbb03749d748c537aa6fcf0e91cd1c99cc9883fcc9",
          "transactionIndex": "0x0",
          "logIndex": "0x0",
          "removed": false
        }
      ],
      "logsBloom": "0x00000000000000000000000000010000000000000000000000000000000000000001000000000000000000000000000001000000000004000000000000000000000000000000002000000008000000000000000000000000000000000000200000000000000000000004000000000000000000000000000000000010000000000000000000000000000000000000000000000000000000000000000000000200000000000000000000000000000000000000000000000000000000000000000000000002000000000000000000000000000000000000000000000000000000000001000000000000000000000000000000000000000000000000000000000000",
      "type": "0x2",
      "transactionHash": "0x65139385d4b6796e8b0b5abbb03749d748c537aa6fcf0e91cd1c99cc9883fcc9",
      "transactionIndex": "0x0",
      "blockHash": "0x8afc54b086618354ddbb6998dda6f368a39273422b36139d52b5e209cc6f8bfe",
      "blockNumber": "0x157dde0",
      "gasUsed": "0xdf21",
      "effectiveGasPrice": "0x20d9e3c4",
      "blobGasPrice": "0x1",
      "from": "0x690f0581ececcf8389c223170778cd9d029606f2",
      "to": "0xc18360217d8f7ab5e7c516566761ea12ce7f9d72",
      "contractAddress": null
    },
    {
      "status": "0x1",
      "cumulativeGasUsed": "0x5208",
      "logs": [],
      "logsBloom": "0x00000000000000000000000000000000000000000000000000000000000000000000000000000000000000000000000000000000000000000000000000000000000000000000000000000000000000000000000000000000000000000000000000000000000000000000000000000000000000000000000000000000000000000000000000000000000000000000000000000000000000000000000000000000000000000000000000000000000000000000000000000000000000000000000000000000000000000000000000000000000000000000000000000000000000000000000000000000000000000000000000000000000000000000000000000000",
      "type": "0x2",
      "transactionHash": "0x6d1e3aa306369288ff925c04a881a187d762d32f3ca83994bc0daeb8882561f8",
      "transactionIndex": "0x0",
      "blockHash": "0xd9751d70f5c77e3f2091c9cd9096d52ca98b8c689f0b6daffbc95f6762559eb9",
      "blockNumber": "0x157dde1",
      "gasUsed": "0x5208",
      "effectiveGasPrice": "0x1d210de5",
      "blobGasPrice": "0x1",
      "from": "0x690f0581ececcf8389c223170778cd9d029606f2",
      "to": "0x0b535a60b26023b4c5c6beea1e445f46bbdd906a",
      "contractAddress": null
    },
    {
      "status": "0x1",
      "cumulativeGasUsed": "0x178b0",
      "logs": [
        {
          "address": "0xc18360217d8f7ab5e7c516566761ea12ce7f9d72",
          "topics": [
            "0x3134e8a2e6d97e929a7e54011ea5485d7d196dd5f0ba4d4ef95803e8e3fc257f",
            "0x0000000000000000000000000b535a60b26023b4c5c6beea1e445f46bbdd906a",
            "0x0000000000000000000000000000000000000000000000000000000000000000",
            "0x0000000000000000000000000b535a60b26023b4c5c6beea1e445f46bbdd906a"
          ],
          "data": "0x",
          "blockHash": "0x50efda26ba3f6fb6c78d329b4072731db9e4947f5824b80a00fd486a6f3d6c32",
          "blockNumber": "0x157dde2",
          "blockTimestamp": "0x682e9597",
          "transactionHash": "0x020598d7b751d3603ed294c1560f2b5e794151c98add9ea94bc4756b66ada373",
          "transactionIndex": "0x0",
          "logIndex": "0x0",
          "removed": false
        },
        {
          "address": "0xc18360217d8f7ab5e7c516566761ea12ce7f9d72",
          "topics": [
            "0xdec2bacdd2f05b59de34da9b523dff8be42e5e38e818c82fdb0bae774387a724",
            "0x0000000000000000000000000b535a60b26023b4c5c6beea1e445f46bbdd906a"
          ],
          "data": "0x0000000000000000000000000000000000000000000000000000000000000000000000000000000000000000000000000000000000000a968163f0a57b400000",
          "blockHash": "0x50efda26ba3f6fb6c78d329b4072731db9e4947f5824b80a00fd486a6f3d6c32",
          "blockNumber": "0x157dde2",
          "blockTimestamp": "0x682e9597",
          "transactionHash": "0x020598d7b751d3603ed294c1560f2b5e794151c98add9ea94bc4756b66ada373",
          "transactionIndex": "0x0",
          "logIndex": "0x1",
          "removed": false
        }
      ],
      "logsBloom": "0x00000000000000000000000000000000000020000000000000000000000000000001000000000200000010000000000000020000000004000000000000000000000000000000002000000000000000000000000000000000000000000000200000000000020000000040000000000800000000000000000000000000000000000000000000000000000000000000000000000000000000000000000000000200040000000000000000000000000000000000000000000000000000000000000000000000000000000000000000000000000000000000000000000000000020000001000000000000000000000000000000000000000000000000000000000000",
      "type": "0x2",
      "transactionHash": "0x020598d7b751d3603ed294c1560f2b5e794151c98add9ea94bc4756b66ada373",
      "transactionIndex": "0x0",
      "blockHash": "0x50efda26ba3f6fb6c78d329b4072731db9e4947f5824b80a00fd486a6f3d6c32",
      "blockNumber": "0x157dde2",
      "gasUsed": "0x178b0",
      "effectiveGasPrice": "0x19dd4423",
      "blobGasPrice": "0x1",
      "from": "0x0b535a60b26023b4c5c6beea1e445f46bbdd906a",
      "to": "0xc18360217d8f7ab5e7c516566761ea12ce7f9d72",
      "contractAddress": null
    },
    {
      "status": "0x1",
      "cumulativeGasUsed": "0xdf15",
      "logs": [
        {
          "address": "0xc18360217d8f7ab5e7c516566761ea12ce7f9d72",
          "topics": [
            "0xddf252ad1be2c89b69c2b068fc378daa952ba7f163c4a11628f55a4df523b3ef",
            "0x000000000000000000000000690f0581ececcf8389c223170778cd9d029606f2",
            "0x0000000000000000000000003a9b0c811312a51fc63d3d4c21bcfbf1107c4d47"
          ],
          "data": "0x00000000000000000000000000000000000000000000003635c9adc5dea00000",
          "blockHash": "0x332911680195d0fe9b21b1c42a91c28c024e0f114baca364dee7878237a27d64",
          "blockNumber": "0x157dde3",
          "blockTimestamp": "0x682e9597",
          "transactionHash": "0xa0f45e074a46c3e4a1443f9234b1e31d0c30da4b3431db661d585a245deea669",
          "transactionIndex": "0x0",
          "logIndex": "0x0",
          "removed": false
        }
      ],
      "logsBloom": "0x00000000000000000000000000010000000000000000000000000000000000000001000000000000000000000000000001000000000004000000000000000000000000000000000000000008000000000000000000000000000000000000000000000000000000000004000000000000000000000000800000000010000000000000000008000000000000000000000000000000000000000000000000000000000000000000000000000000000000000000000000000000008000000000000000000002000000000000000000000000000000000000000000000000000000000001000000000000000000000000000000000000000000000000000000000000",
      "type": "0x2",
      "transactionHash": "0xa0f45e074a46c3e4a1443f9234b1e31d0c30da4b3431db661d585a245deea669",
      "transactionIndex": "0x0",
      "blockHash": "0x332911680195d0fe9b21b1c42a91c28c024e0f114baca364dee7878237a27d64",
      "blockNumber": "0x157dde3",
      "gasUsed": "0xdf15",
      "effectiveGasPrice": "0x1704e601",
      "blobGasPrice": "0x1",
      "from": "0x690f0581ececcf8389c223170778cd9d029606f2",
      "to": "0xc18360217d8f7ab5e7c516566761ea12ce7f9d72",
      "contractAddress": null
    },
    {
      "status": "0x1",
      "cumulativeGasUsed": "0x5208",
      "logs": [],
      "logsBloom": "0x00000000000000000000000000000000000000000000000000000000000000000000000000000000000000000000000000000000000000000000000000000000000000000000000000000000000000000000000000000000000000000000000000000000000000000000000000000000000000000000000000000000000000000000000000000000000000000000000000000000000000000000000000000000000000000000000000000000000000000000000000000000000000000000000000000000000000000000000000000000000000000000000000000000000000000000000000000000000000000000000000000000000000000000000000000000",
      "type": "0x2",
      "transactionHash": "0x8e2a45ae1139a03a8e66ac538de8bf96ae4f94cfa91e6e3297d33e8a914c2aae",
      "transactionIndex": "0x0",
      "blockHash": "0x65301bba5b5160b143bd0b22245bc1415911d51a371cafe651667230d18aa1db",
      "blockNumber": "0x157dde4",
      "gasUsed": "0x5208",
      "effectiveGasPrice": "0x1485b026",
      "blobGasPrice": "0x1",
      "from": "0x690f0581ececcf8389c223170778cd9d029606f2",
      "to": "0x3a9b0c811312a51fc63d3d4c21bcfbf1107c4d47",
      "contractAddress": null
    },
    {
      "status": "0x1",
      "cumulativeGasUsed": "0x178b0",
      "logs": [
        {
          "address": "0xc18360217d8f7ab5e7c516566761ea12ce7f9d72",
          "topics": [
            "0x3134e8a2e6d97e929a7e54011ea5485d7d196dd5f0ba4d4ef95803e8e3fc257f",
            "0x0000000000000000000000003a9b0c811312a51fc63d3d4c21bcfbf1107c4d47",
            "0x0000000000000000000000000000000000000000000000000000000000000000",
            "0x0000000000000000000000003a9b0c811312a51fc63d3d4c21bcfbf1107c4d47"
          ],
          "data": "0x",
          "blockHash": "0xc7a1df0e669cce5d0ff76f7f2898b6f1777c932ffe35c2eee2b07bdf5bbfb49b",
          "blockNumber": "0x157dde5",
          "blockTimestamp": "0x682e9597",
          "transactionHash": "0xa8d80ac705625010bf240063f7e58151d12ad93bb8d96abb1e94100a99ee0311",
          "transactionIndex": "0x0",
          "logIndex": "0x0",
          "removed": false
        },
        {
          "address": "0xc18360217d8f7ab5e7c516566761ea12ce7f9d72",
          "topics": [
            "0xdec2bacdd2f05b59de34da9b523dff8be42e5e38e818c82fdb0bae774387a724",
            "0x0000000000000000000000003a9b0c811312a51fc63d3d4c21bcfbf1107c4d47"
          ],
          "data": "0x000000000000000000000000000000000000000000000000000000000000000000000000000000000000000000000000000000000000003635c9adc5dea00000",
          "blockHash": "0xc7a1df0e669cce5d0ff76f7f2898b6f1777c932ffe35c2eee2b07bdf5bbfb49b",
          "blockNumber": "0x157dde5",
          "blockTimestamp": "0x682e9597",
          "transactionHash": "0xa8d80ac705625010bf240063f7e58151d12ad93bb8d96abb1e94100a99ee0311",
          "transactionIndex": "0x0",
          "logIndex": "0x1",
          "removed": false
        }
      ],
      "logsBloom": "0x00000000000000000000000000000000000020000000000000000000000000000001000000000200000010000000000000020000000004000000000000000000000000000000000000000000000000000000000000000000000000000000000000000000020000000040000000000800000000000000800000000000000000000000000008000000000000000000000000000000000000000000000000000000040000000000000000000000000000000000000000000000008000000000000000000000000000000000000000000000000000000000000000000000000020000001000000000000000000000000000000000000000000000000000000000000",
      "type": "0x2",
      "transactionHash": "0xa8d80ac705625010bf240063f7e58151d12ad93bb8d96abb1e94100a99ee0311",
      "transactionIndex": "0x0",
      "blockHash": "0xc7a1df0e669cce5d0ff76f7f2898b6f1777c932ffe35c2eee2b07bdf5bbfb49b",
      "blockNumber": "0x157dde5",
      "gasUsed": "0x178b0",
      "effectiveGasPrice": "0x1254ffd9",
      "blobGasPrice": "0x1",
      "from": "0x3a9b0c811312a51fc63d3d4c21bcfbf1107c4d47",
      "to": "0xc18360217d8f7ab5e7c516566761ea12ce7f9d72",
      "contractAddress": null
    },
    {
      "status": "0x1",
      "cumulativeGasUsed": "0xdf21",
      "logs": [
        {
          "address": "0xc18360217d8f7ab5e7c516566761ea12ce7f9d72",
          "topics": [
            "0xddf252ad1be2c89b69c2b068fc378daa952ba7f163c4a11628f55a4df523b3ef",
            "0x000000000000000000000000690f0581ececcf8389c223170778cd9d029606f2",
            "0x000000000000000000000000409c30ede66c2de55f7b7152f6720a5811571ac7"
          ],
          "data": "0x00000000000000000000000000000000000000000000021e19e0c9bab2400000",
          "blockHash": "0x9b3ebfc54a52b69313f8994df5850b2f74b8b37a0a9f3122bc4e6cc8471af475",
          "blockNumber": "0x157dde6",
          "blockTimestamp": "0x682e9597",
          "transactionHash": "0xd6e9fe12366bc8dcc315c40ff73194f2798752c699edc4456a927d22cb40a5e6",
          "transactionIndex": "0x0",
          "logIndex": "0x0",
          "removed": false
        }
      ],
      "logsBloom": "0x00000000000000000000000000010000000000000000000000000000000000000001000000000000000000000000000001000000000004000000020000000000000000000000000000000008000000000000000000000000000000000000000000000000000000000004000000000000000000000000000000000010000000000000000000000000000000000000000200000000000000000000000000000000000000000000000000000000000000000000000000000000000000000000000000000002000000000000000000000000000000000000000000000000000000000001000000000000000000000000000000000000000000010000000000000000",
      "type": "0x2",
      "transactionHash": "0xd6e9fe12366bc8dcc315c40ff73194f2798752c699edc4456a927d22cb40a5e6",
      "transactionIndex": "0x0",
      "blockHash": "0x9b3ebfc54a52b69313f8994df5850b2f74b8b37a0a9f3122bc4e6cc8471af475",
      "blockNumber": "0x157dde6",
      "gasUsed": "0xdf21",
      "effectiveGasPrice": "0x106c5fae",
      "blobGasPrice": "0x1",
      "from": "0x690f0581ececcf8389c223170778cd9d029606f2",
      "to": "0xc18360217d8f7ab5e7c516566761ea12ce7f9d72",
      "contractAddress": null
    },
    {
      "status": "0x1",
      "cumulativeGasUsed": "0x5208",
      "logs": [],
      "logsBloom": "0x00000000000000000000000000000000000000000000000000000000000000000000000000000000000000000000000000000000000000000000000000000000000000000000000000000000000000000000000000000000000000000000000000000000000000000000000000000000000000000000000000000000000000000000000000000000000000000000000000000000000000000000000000000000000000000000000000000000000000000000000000000000000000000000000000000000000000000000000000000000000000000000000000000000000000000000000000000000000000000000000000000000000000000000000000000000",
      "type": "0x2",
      "transactionHash": "0xafb8f11ad61c105cf23c25fd4a7763ccce1bff1d1cfc590435db4cd893edda23",
      "transactionIndex": "0x0",
      "blockHash": "0xd18713080840406e0be76706778f0910e1d852eca2b59cd79501ba96df36f0ed",
      "blockNumber": "0x157dde7",
      "gasUsed": "0x5208",
      "effectiveGasPrice": "0xebf8f42",
      "blobGasPrice": "0x1",
      "from": "0x690f0581ececcf8389c223170778cd9d029606f2",
      "to": "0x409c30ede66c2de55f7b7152f6720a5811571ac7",
      "contractAddress": null
    },
    {
      "status": "0x1",
      "cumulativeGasUsed": "0x178b0",
      "logs": [
        {
          "address": "0xc18360217d8f7ab5e7c516566761ea12ce7f9d72",
          "topics": [
            "0x3134e8a2e6d97e929a7e54011ea5485d7d196dd5f0ba4d4ef95803e8e3fc257f",
            "0x000000000000000000000000409c30ede66c2de55f7b7152f6720a5811571ac7",
            "0x0000000000000000000000000000000000000000000000000000000000000000",
            "0x000000000000000000000000409c30ede66c2de55f7b7152f6720a5811571ac7"
          ],
          "data": "0x",
          "blockHash": "0x6120e212f7e6218fc702ea67125f62a252884b70aa7a94b834fd32dc6173a4dd",
          "blockNumber": "0x157dde8",
          "blockTimestamp": "0x682e9597",
          "transactionHash": "0xe1c928fa3322e4d8d0faf0e393cdd107c5dba66546a39084978d86865f27accf",
          "transactionIndex": "0x0",
          "logIndex": "0x0",
          "removed": false
        },
        {
          "address": "0xc18360217d8f7ab5e7c516566761ea12ce7f9d72",
          "topics": [
            "0xdec2bacdd2f05b59de34da9b523dff8be42e5e38e818c82fdb0bae774387a724",
            "0x000000000000000000000000409c30ede66c2de55f7b7152f6720a5811571ac7"
          ],
          "data": "0x000000000000000000000000000000000000000000000000000000000000000000000000000000000000000000000000000000000000021e19e0c9bab2400000",
          "blockHash": "0x6120e212f7e6218fc702ea67125f62a252884b70aa7a94b834fd32dc6173a4dd",
          "blockNumber": "0x157dde8",
          "blockTimestamp": "0x682e9597",
          "transactionHash": "0xe1c928fa3322e4d8d0faf0e393cdd107c5dba66546a39084978d86865f27accf",
          "transactionIndex": "0x0",
          "logIndex": "0x1",
          "removed": false
        }
      ],
      "logsBloom": "0x00000000000000000000000000000000000020000000000000000000000000000001000000000200000010000000000000020000000004000000020000000000000000000000000000000000000000000000000000000000000000000000000000000000020000000040000000000800000000000000000000000000000000000000000000000000000000000000000200000000000000000000000000000000040000000000000000000000000000000000000000000000000000000000000000000000000000000000000000000000000000000000000000000000000020000001000000000000000000000000000000000000000000010000000000000000",
      "type": "0x2",
      "transactionHash": "0xe1c928fa3322e4d8d0faf0e393cdd107c5dba66546a39084978d86865f27accf",
      "transactionIndex": "0x0",
      "blockHash": "0x6120e212f7e6218fc702ea67125f62a252884b70aa7a94b834fd32dc6173a4dd",
      "blockNumber": "0x157dde8",
      "gasUsed": "0x178b0",
      "effectiveGasPrice": "0xd476be3",
      "blobGasPrice": "0x1",
      "from": "0x409c30ede66c2de55f7b7152f6720a5811571ac7",
      "to": "0xc18360217d8f7ab5e7c516566761ea12ce7f9d72",
      "contractAddress": null
    },
    {
      "status": "0x1",
      "cumulativeGasUsed": "0xdf21",
      "logs": [
        {
          "address": "0xc18360217d8f7ab5e7c516566761ea12ce7f9d72",
          "topics": [
            "0xddf252ad1be2c89b69c2b068fc378daa952ba7f163c4a11628f55a4df523b3ef",
            "0x000000000000000000000000690f0581ececcf8389c223170778cd9d029606f2",
            "0x000000000000000000000000fc4627a097987907642e6b8c90bcb69c9beb6d71"
          ],
          "data": "0x000000000000000000000000000000000000000000000a968163f0a57b400000",
          "blockHash": "0xc711b803f8dc2c8dc28c0805fbbdf156b893dff4d9b0f52dda7cd27ba42887fa",
          "blockNumber": "0x157dde9",
          "blockTimestamp": "0x682e9597",
          "transactionHash": "0x768591549957f7ad9042be10a29bbcba32cedbd56756c260d34bc5a3a333e70b",
          "transactionIndex": "0x0",
          "logIndex": "0x0",
          "removed": false
        }
      ],
      "logsBloom": "0x00000000000000000000000000010000000000000000000000000000000000000801000000000000000000000000000001000000000004000000000000000000000000000000000000000008000000000000000000000000000000000000000000000000000000000004000000000000000000000000000000000010000000000000000000000000000000000000000000000000000000000000000000000000000000000000000000000000000000000000000000000000000000000000000000000002000000000000000000000000000000000000000000000000000000000001000000000000000000000000000000100000000000010000000000000000",
      "type": "0x2",
      "transactionHash": "0x768591549957f7ad9042be10a29bbcba32cedbd56756c260d34bc5a3a333e70b",
      "transactionIndex": "0x0",
      "blockHash": "0xc711b803f8dc2c8dc28c0805fbbdf156b893dff4d9b0f52dda7cd27ba42887fa",
      "blockNumber": "0x157dde9",
      "gasUsed": "0xdf21",
      "effectiveGasPrice": "0xbffa073",
      "blobGasPrice": "0x1",
      "from": "0x690f0581ececcf8389c223170778cd9d029606f2",
      "to": "0xc18360217d8f7ab5e7c516566761ea12ce7f9d72",
      "contractAddress": null
    },
    {
      "status": "0x1",
      "cumulativeGasUsed": "0x5208",
      "logs": [],
      "logsBloom": "0x00000000000000000000000000000000000000000000000000000000000000000000000000000000000000000000000000000000000000000000000000000000000000000000000000000000000000000000000000000000000000000000000000000000000000000000000000000000000000000000000000000000000000000000000000000000000000000000000000000000000000000000000000000000000000000000000000000000000000000000000000000000000000000000000000000000000000000000000000000000000000000000000000000000000000000000000000000000000000000000000000000000000000000000000000000000",
      "type": "0x2",
      "transactionHash": "0xa1a164b59178edb623dfdbc1dcbb96c5bda2df309ec775b9030bb756c23e10e8",
      "transactionIndex": "0x0",
      "blockHash": "0xe9db72436b0c9f4754921d453d9fb8c6e668017c84e04b55f1b49fed7321e269",
      "blockNumber": "0x157ddea",
      "gasUsed": "0x5208",
      "effectiveGasPrice": "0xadff4e7",
      "blobGasPrice": "0x1",
      "from": "0x690f0581ececcf8389c223170778cd9d029606f2",
      "to": "0xfc4627a097987907642e6b8c90bcb69c9beb6d71",
      "contractAddress": null
    },
    {
      "status": "0x1",
      "cumulativeGasUsed": "0x178b0",
      "logs": [
        {
          "address": "0xc18360217d8f7ab5e7c516566761ea12ce7f9d72",
          "topics": [
            "0x3134e8a2e6d97e929a7e54011ea5485d7d196dd5f0ba4d4ef95803e8e3fc257f",
            "0x000000000000000000000000fc4627a097987907642e6b8c90bcb69c9beb6d71",
            "0x0000000000000000000000000000000000000000000000000000000000000000",
            "0x000000000000000000000000fc4627a097987907642e6b8c90bcb69c9beb6d71"
          ],
          "data": "0x",
          "blockHash": "0xa5d0d493a665c6b160b298fb3fcb0fb261432ecdfa4d5075bb94793273d5572f",
          "blockNumber": "0x157ddeb",
          "blockTimestamp": "0x682e9597",
          "transactionHash": "0x5acb7b9b19ee1811b11abf27c919dc6ecebb38a5ae3a9182326d2de667b86f95",
          "transactionIndex": "0x0",
          "logIndex": "0x0",
          "removed": false
        },
        {
          "address": "0xc18360217d8f7ab5e7c516566761ea12ce7f9d72",
          "topics": [
            "0xdec2bacdd2f05b59de34da9b523dff8be42e5e38e818c82fdb0bae774387a724",
            "0x000000000000000000000000fc4627a097987907642e6b8c90bcb69c9beb6d71"
          ],
          "data": "0x0000000000000000000000000000000000000000000000000000000000000000000000000000000000000000000000000000000000000a968163f0a57b400000",
          "blockHash": "0xa5d0d493a665c6b160b298fb3fcb0fb261432ecdfa4d5075bb94793273d5572f",
          "blockNumber": "0x157ddeb",
          "blockTimestamp": "0x682e9597",
          "transactionHash": "0x5acb7b9b19ee1811b11abf27c919dc6ecebb38a5ae3a9182326d2de667b86f95",
          "transactionIndex": "0x0",
          "logIndex": "0x1",
          "removed": false
        }
      ],
      "logsBloom": "0x00000000000000000000000000000000000020000000000000000000000000000801000000000200000010000000000000020000000004000000000000000000000000000000000000000000000000000000000000000000000000000000000000000000020000000040000000000800000000000000000000000000000000000000000000000000000000000000000000000000000000000000000000000000040000000000000000000000000000000000000000000000000000000000000000000000000000000000000000000000000000000000000000000000000020000001000000000000000000000000000000100000000000010000000000000000",
      "type": "0x2",
      "transactionHash": "0x5acb7b9b19ee1811b11abf27c919dc6ecebb38a5ae3a9182326d2de667b86f95",
      "transactionIndex": "0x0",
      "blockHash": "0xa5d0d493a665c6b160b298fb3fcb0fb261432ecdfa4d5075bb94793273d5572f",
      "blockNumber": "0x157ddeb",
      "gasUsed": "0x178b0",
      "effectiveGasPrice": "0x9e39fce",
      "blobGasPrice": "0x1",
      "from": "0xfc4627a097987907642e6b8c90bcb69c9beb6d71",
      "to": "0xc18360217d8f7ab5e7c516566761ea12ce7f9d72",
      "contractAddress": null
    },
    {
      "status": "0x1",
      "cumulativeGasUsed": "0xdf15",
      "logs": [
        {
          "address": "0xc18360217d8f7ab5e7c516566761ea12ce7f9d72",
          "topics": [
            "0xddf252ad1be2c89b69c2b068fc378daa952ba7f163c4a11628f55a4df523b3ef",
            "0x000000000000000000000000690f0581ececcf8389c223170778cd9d029606f2",
            "0x000000000000000000000000715df8928803e7c53c96021dccd1f028bfe2777c"
          ],
          "data": "0x00000000000000000000000000000000000000000000003635c9adc5dea00000",
          "blockHash": "0xc4eec167a27d84a14af00699e777dad1e75b41cc8a5b056f04441e5f4599b551",
          "blockNumber": "0x157ddec",
          "blockTimestamp": "0x682e9597",
          "transactionHash": "0xf735ff7d7a2232b7816254e484c46e537d803eeb5af5826b38d86c559eadc116",
          "transactionIndex": "0x0",
          "logIndex": "0x0",
          "removed": false
        }
      ],
      "logsBloom": "0x00000000000000000000000000010000000000000000000000000000080000000001000000000000000000000000000001000000000004000000000000000000000000000000000000000008000000000000000000000000000000000000000000000000000000000004000000000000000000000000000000004010000000000000000000000000000000000000000000000000000000000000000000000000000000000000000000000000000000000000000000000000000000000000000000000002001000000000000000000000000000000000000000000000000000000001000000000000000000000000000000000000000000000000000000000000",
      "type": "0x2",
      "transactionHash": "0xf735ff7d7a2232b7816254e484c46e537d803eeb5af5826b38d86c559eadc116",
      "transactionIndex": "0x0",
      "blockHash": "0xc4eec167a27d84a14af00699e777dad1e75b41cc8a5b056f04441e5f4599b551",
      "blockNumber": "0x157ddec",
      "gasUsed": "0xdf15",
      "effectiveGasPrice": "0x907b91c",
      "blobGasPrice": "0x1",
      "from": "0x690f0581ececcf8389c223170778cd9d029606f2",
      "to": "0xc18360217d8f7ab5e7c516566761ea12ce7f9d72",
      "contractAddress": null
    },
    {
      "status": "0x1",
      "cumulativeGasUsed": "0x5208",
      "logs": [],
      "logsBloom": "0x00000000000000000000000000000000000000000000000000000000000000000000000000000000000000000000000000000000000000000000000000000000000000000000000000000000000000000000000000000000000000000000000000000000000000000000000000000000000000000000000000000000000000000000000000000000000000000000000000000000000000000000000000000000000000000000000000000000000000000000000000000000000000000000000000000000000000000000000000000000000000000000000000000000000000000000000000000000000000000000000000000000000000000000000000000000",
      "type": "0x2",
      "transactionHash": "0xa956fb7b3adeacd3927b525e4bdb0126a5c82689e18a7d95e0e48e15f67bed32",
      "transactionIndex": "0x0",
      "blockHash": "0x77c58dbf77c4f065930cb6048544bc63b7cee341835faea11c6035ed1e178e6a",
      "blockNumber": "0x157dded",
      "gasUsed": "0x5208",
      "effectiveGasPrice": "0x846bd47",
      "blobGasPrice": "0x1",
      "from": "0x690f0581ececcf8389c223170778cd9d029606f2",
      "to": "0x715df8928803e7c53c96021dccd1f028bfe2777c",
      "contractAddress": null
    },
    {
      "status": "0x1",
      "cumulativeGasUsed": "0x178b0",
      "logs": [
        {
          "address": "0xc18360217d8f7ab5e7c516566761ea12ce7f9d72",
          "topics": [
            "0x3134e8a2e6d97e929a7e54011ea5485d7d196dd5f0ba4d4ef95803e8e3fc257f",
            "0x000000000000000000000000715df8928803e7c53c96021dccd1f028bfe2777c",
            "0x0000000000000000000000000000000000000000000000000000000000000000",
            "0x000000000000000000000000715df8928803e7c53c96021dccd1f028bfe2777c"
          ],
          "data": "0x",
          "blockHash": "0x3612dc7e2b1707861e59d60b7683a2eb0e33bcaf9e50f5694fb1e7603c8fd001",
          "blockNumber": "0x157ddee",
          "blockTimestamp": "0x682e9597",
          "transactionHash": "0x02fb9192abd08bdbe64b65ebfc2a56a6bf9962fad9b56ef43b2c1d89187a8aa9",
          "transactionIndex": "0x0",
          "logIndex": "0x0",
          "removed": false
        },
        {
          "address": "0xc18360217d8f7ab5e7c516566761ea12ce7f9d72",
          "topics": [
            "0xdec2bacdd2f05b59de34da9b523dff8be42e5e38e818c82fdb0bae774387a724",
            "0x000000000000000000000000715df8928803e7c53c96021dccd1f028bfe2777c"
          ],
          "data": "0x000000000000000000000000000000000000000000000000000000000000000000000000000000000000000000000000000000000000003635c9adc5dea00000",
          "blockHash": "0x3612dc7e2b1707861e59d60b7683a2eb0e33bcaf9e50f5694fb1e7603c8fd001",
          "blockNumber": "0x157ddee",
          "blockTimestamp": "0x682e9597",
          "transactionHash": "0x02fb9192abd08bdbe64b65ebfc2a56a6bf9962fad9b56ef43b2c1d89187a8aa9",
          "transactionIndex": "0x0",
          "logIndex": "0x1",
          "removed": false
        }
      ],
      "logsBloom": "0x00000000000000000000000000000000000020000000000000000000080000000001000000000200000010000000000000020000000004000000000000000000000000000000000000000000000000000000000000000000000000000000000000000000020000000040000000000800000000000000000000004000000000000000000000000000000000000000000000000000000000000000000000000000040000000000000000000000000000000000000000000000000000000000000000000000001000000000000000000000000000000000000000000000000020000001000000000000000000000000000000000000000000000000000000000000",
      "type": "0x2",
      "transactionHash": "0x02fb9192abd08bdbe64b65ebfc2a56a6bf9962fad9b56ef43b2c1d89187a8aa9",
      "transactionIndex": "0x0",
      "blockHash": "0x3612dc7e2b1707861e59d60b7683a2eb0e33bcaf9e50f5694fb1e7603c8fd001",
      "blockNumber": "0x157ddee",
      "gasUsed": "0x178b0",
      "effectiveGasPrice": "0x79d764c",
      "blobGasPrice": "0x1",
      "from": "0x715df8928803e7c53c96021dccd1f028bfe2777c",
      "to": "0xc18360217d8f7ab5e7c516566761ea12ce7f9d72",
      "contractAddress": null
    },
    {
      "status": "0x1",
      "cumulativeGasUsed": "0xdf21",
      "logs": [
        {
          "address": "0xc18360217d8f7ab5e7c516566761ea12ce7f9d72",
          "topics": [
            "0xddf252ad1be2c89b69c2b068fc378daa952ba7f163c4a11628f55a4df523b3ef",
            "0x000000000000000000000000690f0581ececcf8389c223170778cd9d029606f2",
            "0x0000000000000000000000009964e83371c90a07188450cda2f1eb71d26cf704"
          ],
          "data": "0x00000000000000000000000000000000000000000000021e19e0c9bab2400000",
          "blockHash": "0x55d68675db9198acc020ea2583335189e4f8fd90265b89537e18f8a0cf709713",
          "blockNumber": "0x157ddef",
          "blockTimestamp": "0x682e9597",
          "transactionHash": "0x03a254d5eeaecd88320d229a73cd72316c8a55d517011a79a4a8b6d37373acc7",
          "transactionIndex": "0x0",
          "logIndex": "0x0",
          "removed": false
        }
      ],
      "logsBloom": "0x00000000000000000000000000010000000000000000000000000000000000000001000000000000000000000000080001000000000004000000000000000000000000000000000000000008000000000000000000000000000000000000000000000000000000000004000000000000000000000000000000000010000000000000000000000000000000000000000004000000000000000000000000000000000000000000000000000000000000000000000000000000000000000000000000000002000000000000000000000000000080000000000000000000000000000001000000000000000000000000000000000000000000000000000000000000",
      "type": "0x2",
      "transactionHash": "0x03a254d5eeaecd88320d229a73cd72316c8a55d517011a79a4a8b6d37373acc7",
      "transactionIndex": "0x0",
      "blockHash": "0x55d68675db9198acc020ea2583335189e4f8fd90265b89537e18f8a0cf709713",
      "blockNumber": "0x157ddef",
      "gasUsed": "0xdf21",
      "effectiveGasPrice": "0x709f0fc",
      "blobGasPrice": "0x1",
      "from": "0x690f0581ececcf8389c223170778cd9d029606f2",
      "to": "0xc18360217d8f7ab5e7c516566761ea12ce7f9d72",
      "contractAddress": null
    },
    {
      "status": "0x1",
      "cumulativeGasUsed": "0x5208",
      "logs": [],
      "logsBloom": "0x00000000000000000000000000000000000000000000000000000000000000000000000000000000000000000000000000000000000000000000000000000000000000000000000000000000000000000000000000000000000000000000000000000000000000000000000000000000000000000000000000000000000000000000000000000000000000000000000000000000000000000000000000000000000000000000000000000000000000000000000000000000000000000000000000000000000000000000000000000000000000000000000000000000000000000000000000000000000000000000000000000000000000000000000000000000",
      "type": "0x2",
      "transactionHash": "0x49234692dfb99a8616fe08c9c5a1615ee60590d2e546b617bff6008e58ee9f0e",
      "transactionIndex": "0x0",
      "blockHash": "0x9b71b11b70714ad3e83a6fca7ed36240dfe387857067bed46916e285b6e82576",
      "blockNumber": "0x157ddf0",
      "gasUsed": "0x5208",
      "effectiveGasPrice": "0x6887a6f",
      "blobGasPrice": "0x1",
      "from": "0x690f0581ececcf8389c223170778cd9d029606f2",
      "to": "0x9964e83371c90a07188450cda2f1eb71d26cf704",
      "contractAddress": null
    },
    {
      "status": "0x1",
      "cumulativeGasUsed": "0x178b0",
      "logs": [
        {
          "address": "0xc18360217d8f7ab5e7c516566761ea12ce7f9d72",
          "topics": [
            "0x3134e8a2e6d97e929a7e54011ea5485d7d196dd5f0ba4d4ef95803e8e3fc257f",
            "0x0000000000000000000000009964e83371c90a07188450cda2f1eb71d26cf704",
            "0x0000000000000000000000000000000000000000000000000000000000000000",
            "0x0000000000000000000000009964e83371c90a07188450cda2f1eb71d26cf704"
          ],
          "data": "0x",
          "blockHash": "0xf39ac47423f5df6a5e4872b18be6471ec22fccfa2ee979d730d95db2b4014a0b",
          "blockNumber": "0x157ddf1",
          "blockTimestamp": "0x682e9597",
          "transactionHash": "0x0fe9af64904f43edfdfef3fd29e0a30201306dd37488204046af3400886ac844",
          "transactionIndex": "0x0",
          "logIndex": "0x0",
          "removed": false
        },
        {
          "address": "0xc18360217d8f7ab5e7c516566761ea12ce7f9d72",
          "topics": [
            "0xdec2bacdd2f05b59de34da9b523dff8be42e5e38e818c82fdb0bae774387a724",
            "0x0000000000000000000000009964e83371c90a07188450cda2f1eb71d26cf704"
          ],
          "data": "0x000000000000000000000000000000000000000000000000000000000000000000000000000000000000000000000000000000000000021e19e0c9bab2400000",
          "blockHash": "0xf39ac47423f5df6a5e4872b18be6471ec22fccfa2ee979d730d95db2b4014a0b",
          "blockNumber": "0x157ddf1",
          "blockTimestamp": "0x682e9597",
          "transactionHash": "0x0fe9af64904f43edfdfef3fd29e0a30201306dd37488204046af3400886ac844",
          "transactionIndex": "0x0",
          "logIndex": "0x1",
          "removed": false
        }
      ],
      "logsBloom": "0x00000000000000000000000000000000000020000000000000000000000000000001000000000200000010000000080000020000000004000000000000000000000000000000000000000000000000000000000000000000000000000000000000000000020000000040000000000800000000000000000000000000000000000000000000000000000000000000000004000000000000000000000000000000040000000000000000000000000000000000000000000000000000000000000000000000000000000000000000000000000080000000000000000000000020000001000000000000000000000000000000000000000000000000000000000000",
      "type": "0x2",
      "transactionHash": "0x0fe9af64904f43edfdfef3fd29e0a30201306dd37488204046af3400886ac844",
      "transactionIndex": "0x0",
      "blockHash": "0xf39ac47423f5df6a5e4872b18be6471ec22fccfa2ee979d730d95db2b4014a0b",
      "blockNumber": "0x157ddf1",
      "gasUsed": "0x178b0",
      "effectiveGasPrice": "0x616eb26",
      "blobGasPrice": "0x1",
      "from": "0x9964e83371c90a07188450cda2f1eb71d26cf704",
      "to": "0xc18360217d8f7ab5e7c516566761ea12ce7f9d72",
      "contractAddress": null
    },
    {
      "status": "0x1",
      "cumulativeGasUsed": "0xdf21",
      "logs": [
        {
          "address": "0xc18360217d8f7ab5e7c516566761ea12ce7f9d72",
          "topics": [
            "0xddf252ad1be2c89b69c2b068fc378daa952ba7f163c4a11628f55a4df523b3ef",
            "0x000000000000000000000000690f0581ececcf8389c223170778cd9d029606f2",
            "0x000000000000000000000000ab14753f140280066cd201268cc7aef2d5d8ccbf"
          ],
          "data": "0x000000000000000000000000000000000000000000000a968163f0a57b400000",
          "blockHash": "0xb7fb99efa384aed28f72e6c2fd48505e148751035036ee8228bced8c9593fc4e",
          "blockNumber": "0x157ddf2",
          "blockTimestamp": "0x682e9597",
          "transactionHash": "0xf8669b5ce9f6e78f3b3161353e2fbaecf90cbe2e593ea0abe6125545390eca3c",
          "transactionIndex": "0x0",
          "logIndex": "0x0",
          "removed": false
        }
      ],
      "logsBloom": "0x00000000000000000000000000010000000000000000000000000000000000000001000000000000000000000000000001000000000004000000000000000000000000000000000000000008000000000400000000000000000000000000000000000000000000000004000000000000000000000000000000000010000000000000000000000008000000000000000000000000000000000000000000000000000000000000000000000000000000000000000000000000000000000000000000000002000000000000000000000000000000000000080000000000000000000001000000000000000000000000000000000000000000000000000000000000",
      "type": "0x2",
      "transactionHash": "0xf8669b5ce9f6e78f3b3161353e2fbaecf90cbe2e593ea0abe6125545390eca3c",
      "transactionIndex": "0x0",
      "blockHash": "0xb7fb99efa384aed28f72e6c2fd48505e148751035036ee8228bced8c9593fc4e",
      "blockNumber": "0x157ddf2",
      "gasUsed": "0xdf21",
      "effectiveGasPrice": "0x5b3f447",
      "blobGasPrice": "0x1",
      "from": "0x690f0581ececcf8389c223170778cd9d029606f2",
      "to": "0xc18360217d8f7ab5e7c516566761ea12ce7f9d72",
      "contractAddress": null
    },
    {
      "status": "0x1",
      "cumulativeGasUsed": "0x5208",
      "logs": [],
      "logsBloom": "0x00000000000000000000000000000000000000000000000000000000000000000000000000000000000000000000000000000000000000000000000000000000000000000000000000000000000000000000000000000000000000000000000000000000000000000000000000000000000000000000000000000000000000000000000000000000000000000000000000000000000000000000000000000000000000000000000000000000000000000000000000000000000000000000000000000000000000000000000000000000000000000000000000000000000000000000000000000000000000000000000000000000000000000000000000000000",
      "type": "0x2",
      "transactionHash": "0x46ea3601a2a02135f9b874e6e75d5f90dbcafe7aba18cdce0c424b8d78de54d5",
      "transactionIndex": "0x0",
      "blockHash": "0x6db8953ab2940b2692cb72ad6b4871db275d19dfb7ee709e6465ab023100d7d4",
      "blockNumber": "0x157ddf3",
      "gasUsed": "0x5208",
      "effectiveGasPrice": "0x55d1a97",
      "blobGasPrice": "0x1",
      "from": "0x690f0581ececcf8389c223170778cd9d029606f2",
      "to": "0xab14753f140280066cd201268cc7aef2d5d8ccbf",
      "contractAddress": null
    },
    {
      "status": "0x1",
      "cumulativeGasUsed": "0x178b0",
      "logs": [
        {
          "address": "0xc18360217d8f7ab5e7c516566761ea12ce7f9d72",
          "topics": [
            "0x3134e8a2e6d97e929a7e54011ea5485d7d196dd5f0ba4d4ef95803e8e3fc257f",
            "0x000000000000000000000000ab14753f140280066cd201268cc7aef2d5d8ccbf",
            "0x0000000000000000000000000000000000000000000000000000000000000000",
            "0x000000000000000000000000ab14753f140280066cd201268cc7aef2d5d8ccbf"
          ],
          "data": "0x",
          "blockHash": "0x6eb9027c307ebd1a4d21e02b25d72dfe06b2eb32d07a5d0080e20472d680c43e",
          "blockNumber": "0x157ddf4",
          "blockTimestamp": "0x682e9597",
          "transactionHash": "0x99a6e71ec61fded6e284345be2416c7bd7022c6bc32514aec88aa87b3f4579ec",
          "transactionIndex": "0x0",
          "logIndex": "0x0",
          "removed": false
        },
        {
          "address": "0xc18360217d8f7ab5e7c516566761ea12ce7f9d72",
          "topics": [
            "0xdec2bacdd2f05b59de34da9b523dff8be42e5e38e818c82fdb0bae774387a724",
            "0x000000000000000000000000ab14753f140280066cd201268cc7aef2d5d8ccbf"
          ],
          "data": "0x0000000000000000000000000000000000000000000000000000000000000000000000000000000000000000000000000000000000000a968163f0a57b400000",
          "blockHash": "0x6eb9027c307ebd1a4d21e02b25d72dfe06b2eb32d07a5d0080e20472d680c43e",
          "blockNumber": "0x157ddf4",
          "blockTimestamp": "0x682e9597",
          "transactionHash": "0x99a6e71ec61fded6e284345be2416c7bd7022c6bc32514aec88aa87b3f4579ec",
          "transactionIndex": "0x0",
          "logIndex": "0x1",
          "removed": false
        }
      ],
      "logsBloom": "0x00000000000000000000000000000000000020000000000000000000000000000001000000000200000010000000000000020000000004000000000000000000000000000000000000000000000000000400000000000000000000000000000000000000020000000040000000000800000000000000000000000000000000000000000000000008000000000000000000000000000000000000000000000000040000000000000000000000000000000000000000000000000000000000000000000000000000000000000000000000000000000000080000000000000020000001000000000000000000000000000000000000000000000000000000000000",
      "type": "0x2",
      "transactionHash": "0x99a6e71ec61fded6e284345be2416c7bd7022c6bc32514aec88aa87b3f4579ec",
      "transactionIndex": "0x0",
      "blockHash": "0x6eb9027c307ebd1a4d21e02b25d72dfe06b2eb32d07a5d0080e20472d680c43e",
      "blockNumber": "0x157ddf4",
      "gasUsed": "0x178b0",
      "effectiveGasPrice": "0x510ec1c",
      "blobGasPrice": "0x1",
      "from": "0xab14753f140280066cd201268cc7aef2d5d8ccbf",
      "to": "0xc18360217d8f7ab5e7c516566761ea12ce7f9d72",
      "contractAddress": null
    },
    {
      "status": "0x1",
      "cumulativeGasUsed": "0xdf15",
      "logs": [
        {
          "address": "0xc18360217d8f7ab5e7c516566761ea12ce7f9d72",
          "topics": [
            "0xddf252ad1be2c89b69c2b068fc378daa952ba7f163c4a11628f55a4df523b3ef",
            "0x000000000000000000000000690f0581ececcf8389c223170778cd9d029606f2",
            "0x0000000000000000000000000623e0209e952a7a7a7eedf0e34a4ca18907b835"
          ],
          "data": "0x00000000000000000000000000000000000000000000003635c9adc5dea00000",
          "blockHash": "0x87b3f10e68074529b57d6716fc98a206b23500c9e63b5737cec4895f6424d02e",
          "blockNumber": "0x157ddf5",
          "blockTimestamp": "0x682e9597",
          "transactionHash": "0x522fb2d89d076638bb2d7995e970120840ad63f574cd0bea23830947f74ab236",
          "transactionIndex": "0x0",
          "logIndex": "0x0",
          "removed": false
        }
      ],
      "logsBloom": "0x00000000000000000000000000010000000000000000000000000000000000000001000000000000000000000000000001000000000004000000000000000000000000000000000000000008000000000000000000000000000000000000000000000000000000000004000000000000000000000000000000000010000000000000000020000000000000000000000000000020000000000000000000000000000000000000000000000000000000000000000000000000000000000000000000000002000000000000000000000000000000000000000000000000000000000001000400000000000000000000000000000000000000000000000000000000",
      "type": "0x2",
      "transactionHash": "0x522fb2d89d076638bb2d7995e970120840ad63f574cd0bea23830947f74ab236",
      "transactionIndex": "0x0",
      "blockHash": "0x87b3f10e68074529b57d6716fc98a206b23500c9e63b5737cec4895f6424d02e",
      "blockNumber": "0x157ddf5",
      "gasUsed": "0xdf15",
      "effectiveGasPrice": "0x4ce8834",
      "blobGasPrice": "0x1",
      "from": "0x690f0581ececcf8389c223170778cd9d029606f2",
      "to": "0xc18360217d8f7ab5e7c516566761ea12ce7f9d72",
      "contractAddress": null
    },
    {
      "status": "0x1",
      "cumulativeGasUsed": "0x5208",
      "logs": [],
      "logsBloom": "0x00000000000000000000000000000000000000000000000000000000000000000000000000000000000000000000000000000000000000000000000000000000000000000000000000000000000000000000000000000000000000000000000000000000000000000000000000000000000000000000000000000000000000000000000000000000000000000000000000000000000000000000000000000000000000000000000000000000000000000000000000000000000000000000000000000000000000000000000000000000000000000000000000000000000000000000000000000000000000000000000000000000000000000000000000000000",
      "type": "0x2",
      "transactionHash": "0x4920bc9f61e6cd0c313498a9ccaca97ed1612bb2168ea90e40293b607167d96a",
      "transactionIndex": "0x0",
      "blockHash": "0xcfba08f91fbe736a588faf8973b2e8dfae879602da9c6e987a350dcec1004cfd",
      "blockNumber": "0x157ddf6",
      "gasUsed": "0x5208",
      "effectiveGasPrice": "0x49444b7",
      "blobGasPrice": "0x1",
      "from": "0x690f0581ececcf8389c223170778cd9d029606f2",
      "to": "0x0623e0209e952a7a7a7eedf0e34a4ca18907b835",
      "contractAddress": null
    },
    {
      "status": "0x1",
      "cumulativeGasUsed": "0x178b0",
      "logs": [
        {
          "address": "0xc18360217d8f7ab5e7c516566761ea12ce7f9d72",
          "topics": [
            "0x3134e8a2e6d97e929a7e54011ea5485d7d196dd5f0ba4d4ef95803e8e3fc257f",
            "0x0000000000000000000000000623e0209e952a7a7a7eedf0e34a4ca18907b835",
            "0x0000000000000000000000000000000000000000000000000000000000000000",
            "0x0000000000000000000000000623e0209e952a7a7a7eedf0e34a4ca18907b835"
          ],
          "data": "0x",
          "blockHash": "0x8719103d337370e6882f66d790c90b56fb9b1db929cdeb6b381fc8d9a70546b6",
          "blockNumber": "0x157ddf7",
          "blockTimestamp": "0x682e9597",
          "transactionHash": "0x775a68def583fad8c5607bf70e07d29c95c375bd0c22c4849cc627ea6f156a74",
          "transactionIndex": "0x0",
          "logIndex": "0x0",
          "removed": false
        },
        {
          "address": "0xc18360217d8f7ab5e7c516566761ea12ce7f9d72",
          "topics": [
            "0xdec2bacdd2f05b59de34da9b523dff8be42e5e38e818c82fdb0bae774387a724",
            "0x0000000000000000000000000623e0209e952a7a7a7eedf0e34a4ca18907b835"
          ],
          "data": "0x000000000000000000000000000000000000000000000000000000000000000000000000000000000000000000000000000000000000003635c9adc5dea00000",
          "blockHash": "0x8719103d337370e6882f66d790c90b56fb9b1db929cdeb6b381fc8d9a70546b6",
          "blockNumber": "0x157ddf7",
          "blockTimestamp": "0x682e9597",
          "transactionHash": "0x775a68def583fad8c5607bf70e07d29c95c375bd0c22c4849cc627ea6f156a74",
          "transactionIndex": "0x0",
          "logIndex": "0x1",
          "removed": false
        }
      ],
      "logsBloom": "0x00000000000000000000000000000000000020000000000000000000000000000001000000000200000010000000000000020000000004000000000000000000000000000000000000000000000000000000000000000000000000000000000000000000020000000040000000000800000000000000000000000000000000000000000020000000000000000000000000000020000000000000000000000000040000000000000000000000000000000000000000000000000000000000000000000000000000000000000000000000000000000000000000000000000020000001000400000000000000000000000000000000000000000000000000000000",
      "type": "0x2",
      "transactionHash": "0x775a68def583fad8c5607bf70e07d29c95c375bd0c22c4849cc627ea6f156a74",
      "transactionIndex": "0x0",
      "blockHash": "0x8719103d337370e6882f66d790c90b56fb9b1db929cdeb6b381fc8d9a70546b6",
      "blockNumber": "0x157ddf7",
      "gasUsed": "0x178b0",
      "effectiveGasPrice": "0x4612979",
      "blobGasPrice": "0x1",
      "from": "0x0623e0209e952a7a7a7eedf0e34a4ca18907b835",
      "to": "0xc18360217d8f7ab5e7c516566761ea12ce7f9d72",
      "contractAddress": null
    }
  ],
  "libraries": [],
  "pending": [],
  "returns": {},
  "timestamp": 1747885020,
  "chain": 1,
  "commit": "ff54867"
}