{
  "transactions": [
    {
      "hash": "0x16885d2f8cdf8ff29602d31fd95113bb9bc101c7da695f50209e979d4c439047",
      "transactionType": "CALL",
      "contractName": null,
      "contractAddress": "0xc18360217d8f7ab5e7c516566761ea12ce7f9d72",
      "function": "transfer(address,uint256)",
      "arguments": [
        "0xD5E90EdAa0a44f529cafDe088E93C71527A39c8E",
        "1000000000000000000000"
      ],
      "transaction": {
        "from": "0x690f0581ececcf8389c223170778cd9d029606f2",
        "to": "0xc18360217d8f7ab5e7c516566761ea12ce7f9d72",
        "gas": "0x1a470",
        "value": "0x0",
        "input": "0xa9059cbb000000000000000000000000d5e90edaa0a44f529cafde088e93c71527a39c8e00000000000000000000000000000000000000000000003635c9adc5dea00000",
        "nonce": "0x15",
        "chainId": "0x1"
      },
      "additionalContracts": [],
      "isFixedGasLimit": false
    },
    {
      "hash": "0x1a57838c7dad74a2c522cc040f51aae171eda04d41ff065c0183bad4852b47b8",
      "transactionType": "CALL",
      "contractName": null,
      "contractAddress": "0xd5e90edaa0a44f529cafde088e93c71527a39c8e",
      "function": null,
      "arguments": null,
      "transaction": {
        "from": "0x690f0581ececcf8389c223170778cd9d029606f2",
        "to": "0xd5e90edaa0a44f529cafde088e93c71527a39c8e",
        "gas": "0x714d",
        "value": "0xde0b6b3a7640000",
        "input": "0x",
        "nonce": "0x16",
        "chainId": "0x1"
      },
      "additionalContracts": [],
      "isFixedGasLimit": false
    },
    {
      "hash": "0xe0833ab65cbc85b423e353ea5517671d9887abb87188e0880b8b691a7f1e0d68",
      "transactionType": "CALL",
      "contractName": null,
      "contractAddress": "0xc18360217d8f7ab5e7c516566761ea12ce7f9d72",
      "function": "delegate(address)",
      "arguments": [
        "0xD5E90EdAa0a44f529cafDe088E93C71527A39c8E"
      ],
      "transaction": {
        "from": "0xd5e90edaa0a44f529cafde088e93c71527a39c8e",
        "to": "0xc18360217d8f7ab5e7c516566761ea12ce7f9d72",
        "gas": "0x9c1f",
        "value": "0x0",
        "input": "0x5c19a95c000000000000000000000000d5e90edaa0a44f529cafde088e93c71527a39c8e",
        "nonce": "0x1",
        "chainId": "0x1"
      },
      "additionalContracts": [],
      "isFixedGasLimit": false
    },
    {
      "hash": "0xb7dd207f7eb2c224197bb485c09660267ad4ea0958f2f53dcf821385b96a7f55",
      "transactionType": "CALL",
      "contractName": null,
      "contractAddress": "0xc18360217d8f7ab5e7c516566761ea12ce7f9d72",
      "function": "transfer(address,uint256)",
      "arguments": [
        "0xe9D9c8f746937803094f1019C94e0252Be8A0547",
        "10000000000000000000000"
      ],
      "transaction": {
        "from": "0x690f0581ececcf8389c223170778cd9d029606f2",
        "to": "0xc18360217d8f7ab5e7c516566761ea12ce7f9d72",
        "gas": "0x18d25",
        "value": "0x0",
        "input": "0xa9059cbb000000000000000000000000e9d9c8f746937803094f1019c94e0252be8a054700000000000000000000000000000000000000000000021e19e0c9bab2400000",
        "nonce": "0x17",
        "chainId": "0x1"
      },
      "additionalContracts": [],
      "isFixedGasLimit": false
    },
    {
      "hash": "0x8b441c3ee3166c01cb50f98f166f5d38c6f95d930bc35fcb54bfba8025ae5bfb",
      "transactionType": "CALL",
      "contractName": null,
      "contractAddress": "0xe9d9c8f746937803094f1019c94e0252be8a0547",
      "function": null,
      "arguments": null,
      "transaction": {
        "from": "0x690f0581ececcf8389c223170778cd9d029606f2",
        "to": "0xe9d9c8f746937803094f1019c94e0252be8a0547",
        "gas": "0x714d",
        "value": "0xde0b6b3a7640000",
        "input": "0x",
        "nonce": "0x18",
        "chainId": "0x1"
      },
      "additionalContracts": [],
      "isFixedGasLimit": false
    },
    {
      "hash": "0xf0c6227353130f345883e3adb51634bc412b6fde4e3fdb994b2c595ac3caa696",
      "transactionType": "CALL",
      "contractName": null,
      "contractAddress": "0xc18360217d8f7ab5e7c516566761ea12ce7f9d72",
      "function": "delegate(address)",
      "arguments": [
        "0xe9D9c8f746937803094f1019C94e0252Be8A0547"
      ],
      "transaction": {
        "from": "0xe9d9c8f746937803094f1019c94e0252be8a0547",
        "to": "0xc18360217d8f7ab5e7c516566761ea12ce7f9d72",
        "gas": "0x9c1f",
        "value": "0x0",
        "input": "0x5c19a95c000000000000000000000000e9d9c8f746937803094f1019c94e0252be8a0547",
        "nonce": "0x1",
        "chainId": "0x1"
      },
      "additionalContracts": [],
      "isFixedGasLimit": false
    },
    {
      "hash": "0x49e4f75e207327e5a8defc5b70acaef03a2471d5679728dabf91b49542cb40db",
      "transactionType": "CALL",
      "contractName": null,
      "contractAddress": "0xc18360217d8f7ab5e7c516566761ea12ce7f9d72",
      "function": "transfer(address,uint256)",
      "arguments": [
        "0x0B535A60b26023B4c5c6BeEa1e445f46BBDd906A",
        "50000000000000000000000"
      ],
      "transaction": {
        "from": "0x690f0581ececcf8389c223170778cd9d029606f2",
        "to": "0xc18360217d8f7ab5e7c516566761ea12ce7f9d72",
        "gas": "0x18d25",
        "value": "0x0",
        "input": "0xa9059cbb0000000000000000000000000b535a60b26023b4c5c6beea1e445f46bbdd906a000000000000000000000000000000000000000000000a968163f0a57b400000",
        "nonce": "0x19",
        "chainId": "0x1"
      },
      "additionalContracts": [],
      "isFixedGasLimit": false
    },
    {
      "hash": "0xaee05ec8364a4b1eda01b9dd33079c3f722905155bf0cfb3a6464ba897dd2746",
      "transactionType": "CALL",
      "contractName": null,
      "contractAddress": "0x0b535a60b26023b4c5c6beea1e445f46bbdd906a",
      "function": null,
      "arguments": null,
      "transaction": {
        "from": "0x690f0581ececcf8389c223170778cd9d029606f2",
        "to": "0x0b535a60b26023b4c5c6beea1e445f46bbdd906a",
        "gas": "0x714d",
        "value": "0xde0b6b3a7640000",
        "input": "0x",
        "nonce": "0x1a",
        "chainId": "0x1"
      },
      "additionalContracts": [],
      "isFixedGasLimit": false
    },
    {
      "hash": "0x1d937483c8415b88a715913e101529a9c8fe37d913eb9c2dfcfec74e59a7b489",
      "transactionType": "CALL",
      "contractName": null,
      "contractAddress": "0xc18360217d8f7ab5e7c516566761ea12ce7f9d72",
      "function": "delegate(address)",
      "arguments": [
        "0x0B535A60b26023B4c5c6BeEa1e445f46BBDd906A"
      ],
      "transaction": {
        "from": "0x0b535a60b26023b4c5c6beea1e445f46bbdd906a",
        "to": "0xc18360217d8f7ab5e7c516566761ea12ce7f9d72",
        "gas": "0x9c1f",
        "value": "0x0",
        "input": "0x5c19a95c0000000000000000000000000b535a60b26023b4c5c6beea1e445f46bbdd906a",
        "nonce": "0x1",
        "chainId": "0x1"
      },
      "additionalContracts": [],
      "isFixedGasLimit": false
    },
    {
      "hash": "0xaa2e054fdba19e4e2ac09348e19d4072dd1bdf22e1c3512c1f7424613d2586a9",
      "transactionType": "CALL",
      "contractName": null,
      "contractAddress": "0xc18360217d8f7ab5e7c516566761ea12ce7f9d72",
      "function": "transfer(address,uint256)",
      "arguments": [
        "0x3a9b0C811312A51fc63D3D4C21BCFbF1107C4d47",
        "1000000000000000000000"
      ],
      "transaction": {
        "from": "0x690f0581ececcf8389c223170778cd9d029606f2",
        "to": "0xc18360217d8f7ab5e7c516566761ea12ce7f9d72",
        "gas": "0x1a470",
        "value": "0x0",
        "input": "0xa9059cbb0000000000000000000000003a9b0c811312a51fc63d3d4c21bcfbf1107c4d4700000000000000000000000000000000000000000000003635c9adc5dea00000",
        "nonce": "0x1b",
        "chainId": "0x1"
      },
      "additionalContracts": [],
      "isFixedGasLimit": false
    },
    {
      "hash": "0x84ee693a969d1403a2cd63f9f9ef688fa99e331497efe6dc205edf36c94b4be8",
      "transactionType": "CALL",
      "contractName": null,
      "contractAddress": "0x3a9b0c811312a51fc63d3d4c21bcfbf1107c4d47",
      "function": null,
      "arguments": null,
      "transaction": {
        "from": "0x690f0581ececcf8389c223170778cd9d029606f2",
        "to": "0x3a9b0c811312a51fc63d3d4c21bcfbf1107c4d47",
        "gas": "0x714d",
        "value": "0xde0b6b3a7640000",
        "input": "0x",
        "nonce": "0x1c",
        "chainId": "0x1"
      },
      "additionalContracts": [],
      "isFixedGasLimit": false
    },
    {
      "hash": "0xb791457d9cf09fc7c5b45292b199ceb6d1c7ef23d6c8d2e31fd2efa667a40336",
      "transactionType": "CALL",
      "contractName": null,
      "contractAddress": "0xc18360217d8f7ab5e7c516566761ea12ce7f9d72",
      "function": "delegate(address)",
      "arguments": [
        "0x3a9b0C811312A51fc63D3D4C21BCFbF1107C4d47"
      ],
      "transaction": {
        "from": "0x3a9b0c811312a51fc63d3d4c21bcfbf1107c4d47",
        "to": "0xc18360217d8f7ab5e7c516566761ea12ce7f9d72",
        "gas": "0x9c1f",
        "value": "0x0",
        "input": "0x5c19a95c0000000000000000000000003a9b0c811312a51fc63d3d4c21bcfbf1107c4d47",
        "nonce": "0x1",
        "chainId": "0x1"
      },
      "additionalContracts": [],
      "isFixedGasLimit": false
    },
    {
      "hash": "0x8215796bd5765f7d81ea3a94e7da7670eab095436699c008b5ed0ce051dc5159",
      "transactionType": "CALL",
      "contractName": null,
      "contractAddress": "0xc18360217d8f7ab5e7c516566761ea12ce7f9d72",
      "function": "transfer(address,uint256)",
      "arguments": [
        "0x409C30EdE66C2dE55f7B7152F6720A5811571aC7",
        "10000000000000000000000"
      ],
      "transaction": {
        "from": "0x690f0581ececcf8389c223170778cd9d029606f2",
        "to": "0xc18360217d8f7ab5e7c516566761ea12ce7f9d72",
        "gas": "0x18d25",
        "value": "0x0",
        "input": "0xa9059cbb000000000000000000000000409c30ede66c2de55f7b7152f6720a5811571ac700000000000000000000000000000000000000000000021e19e0c9bab2400000",
        "nonce": "0x1d",
        "chainId": "0x1"
      },
      "additionalContracts": [],
      "isFixedGasLimit": false
    },
    {
      "hash": "0xd26e436f20ae6bba91c8341dbd1f8a3c2425a913458f9c4aa2e060b6024a4947",
      "transactionType": "CALL",
      "contractName": null,
      "contractAddress": "0x409c30ede66c2de55f7b7152f6720a5811571ac7",
      "function": null,
      "arguments": null,
      "transaction": {
        "from": "0x690f0581ececcf8389c223170778cd9d029606f2",
        "to": "0x409c30ede66c2de55f7b7152f6720a5811571ac7",
        "gas": "0x714d",
        "value": "0xde0b6b3a7640000",
        "input": "0x",
        "nonce": "0x1e",
        "chainId": "0x1"
      },
      "additionalContracts": [],
      "isFixedGasLimit": false
    },
    {
      "hash": "0xd1f0b3e314f6a1152639d2830794b0ac64e9cc0d4acb827b8a6ec7895c59dcee",
      "transactionType": "CALL",
      "contractName": null,
      "contractAddress": "0xc18360217d8f7ab5e7c516566761ea12ce7f9d72",
      "function": "delegate(address)",
      "arguments": [
        "0x409C30EdE66C2dE55f7B7152F6720A5811571aC7"
      ],
      "transaction": {
        "from": "0x409c30ede66c2de55f7b7152f6720a5811571ac7",
        "to": "0xc18360217d8f7ab5e7c516566761ea12ce7f9d72",
        "gas": "0x9c1f",
        "value": "0x0",
        "input": "0x5c19a95c000000000000000000000000409c30ede66c2de55f7b7152f6720a5811571ac7",
        "nonce": "0x1",
        "chainId": "0x1"
      },
      "additionalContracts": [],
      "isFixedGasLimit": false
    },
    {
      "hash": "0x4bf1aa5454ed51df00cdb9cde0981fe10ae2c74f2d3bb14f52ff34226bc6bb13",
      "transactionType": "CALL",
      "contractName": null,
      "contractAddress": "0xc18360217d8f7ab5e7c516566761ea12ce7f9d72",
      "function": "transfer(address,uint256)",
      "arguments": [
        "0xfc4627A097987907642e6b8C90bCb69c9BEB6d71",
        "50000000000000000000000"
      ],
      "transaction": {
        "from": "0x690f0581ececcf8389c223170778cd9d029606f2",
        "to": "0xc18360217d8f7ab5e7c516566761ea12ce7f9d72",
        "gas": "0x18d25",
        "value": "0x0",
        "input": "0xa9059cbb000000000000000000000000fc4627a097987907642e6b8c90bcb69c9beb6d71000000000000000000000000000000000000000000000a968163f0a57b400000",
        "nonce": "0x1f",
        "chainId": "0x1"
      },
      "additionalContracts": [],
      "isFixedGasLimit": false
    },
    {
      "hash": "0xb8461e306a479655db80aa0941473252d9bb8660f4c37f84796a493b780c44ea",
      "transactionType": "CALL",
      "contractName": null,
      "contractAddress": "0xfc4627a097987907642e6b8c90bcb69c9beb6d71",
      "function": null,
      "arguments": null,
      "transaction": {
        "from": "0x690f0581ececcf8389c223170778cd9d029606f2",
        "to": "0xfc4627a097987907642e6b8c90bcb69c9beb6d71",
        "gas": "0x714d",
        "value": "0xde0b6b3a7640000",
        "input": "0x",
        "nonce": "0x20",
        "chainId": "0x1"
      },
      "additionalContracts": [],
      "isFixedGasLimit": false
    },
    {
      "hash": "0x60444f0dc22e504ca9fc0b6c5905743badf7306c79117d604b9eb45f8a287bca",
      "transactionType": "CALL",
      "contractName": null,
      "contractAddress": "0xc18360217d8f7ab5e7c516566761ea12ce7f9d72",
      "function": "delegate(address)",
      "arguments": [
        "0xfc4627A097987907642e6b8C90bCb69c9BEB6d71"
      ],
      "transaction": {
        "from": "0xfc4627a097987907642e6b8c90bcb69c9beb6d71",
        "to": "0xc18360217d8f7ab5e7c516566761ea12ce7f9d72",
        "gas": "0x9c1f",
        "value": "0x0",
        "input": "0x5c19a95c000000000000000000000000fc4627a097987907642e6b8c90bcb69c9beb6d71",
        "nonce": "0x1",
        "chainId": "0x1"
      },
      "additionalContracts": [],
      "isFixedGasLimit": false
    },
    {
      "hash": "0x6a484f4e7942d67f4142d3caedadbf30ad0bec10dcaf05a733093044ede573a2",
      "transactionType": "CALL",
      "contractName": null,
      "contractAddress": "0xc18360217d8f7ab5e7c516566761ea12ce7f9d72",
      "function": "transfer(address,uint256)",
      "arguments": [
        "0x715DF8928803e7c53C96021dcCD1F028BfE2777C",
        "1000000000000000000000"
      ],
      "transaction": {
        "from": "0x690f0581ececcf8389c223170778cd9d029606f2",
        "to": "0xc18360217d8f7ab5e7c516566761ea12ce7f9d72",
        "gas": "0x1a470",
        "value": "0x0",
        "input": "0xa9059cbb000000000000000000000000715df8928803e7c53c96021dccd1f028bfe2777c00000000000000000000000000000000000000000000003635c9adc5dea00000",
        "nonce": "0x21",
        "chainId": "0x1"
      },
      "additionalContracts": [],
      "isFixedGasLimit": false
    },
    {
      "hash": "0xd2fad0bd12f7803de7266d9f67ca5e3fedf2d0603f333f1c1a7f2247da33920d",
      "transactionType": "CALL",
      "contractName": null,
      "contractAddress": "0x715df8928803e7c53c96021dccd1f028bfe2777c",
      "function": null,
      "arguments": null,
      "transaction": {
        "from": "0x690f0581ececcf8389c223170778cd9d029606f2",
        "to": "0x715df8928803e7c53c96021dccd1f028bfe2777c",
        "gas": "0x714d",
        "value": "0xde0b6b3a7640000",
        "input": "0x",
        "nonce": "0x22",
        "chainId": "0x1"
      },
      "additionalContracts": [],
      "isFixedGasLimit": false
    },
    {
      "hash": "0xdda5a14cf37b44959796961d120f1f1d765d9fd8d4db9fd68e10789669f823c1",
      "transactionType": "CALL",
      "contractName": null,
      "contractAddress": "0xc18360217d8f7ab5e7c516566761ea12ce7f9d72",
      "function": "delegate(address)",
      "arguments": [
        "0x715DF8928803e7c53C96021dcCD1F028BfE2777C"
      ],
      "transaction": {
        "from": "0x715df8928803e7c53c96021dccd1f028bfe2777c",
        "to": "0xc18360217d8f7ab5e7c516566761ea12ce7f9d72",
        "gas": "0x9c1f",
        "value": "0x0",
        "input": "0x5c19a95c000000000000000000000000715df8928803e7c53c96021dccd1f028bfe2777c",
        "nonce": "0x1",
        "chainId": "0x1"
      },
      "additionalContracts": [],
      "isFixedGasLimit": false
    },
    {
      "hash": "0x95ba137a1655c8e6030b8c682b6e695e175fef19b50d882d09fc5581473bbffd",
      "transactionType": "CALL",
      "contractName": null,
      "contractAddress": "0xc18360217d8f7ab5e7c516566761ea12ce7f9d72",
      "function": "transfer(address,uint256)",
      "arguments": [
        "0x9964e83371C90a07188450cDa2F1eb71D26Cf704",
        "10000000000000000000000"
      ],
      "transaction": {
        "from": "0x690f0581ececcf8389c223170778cd9d029606f2",
        "to": "0xc18360217d8f7ab5e7c516566761ea12ce7f9d72",
        "gas": "0x18d25",
        "value": "0x0",
        "input": "0xa9059cbb0000000000000000000000009964e83371c90a07188450cda2f1eb71d26cf70400000000000000000000000000000000000000000000021e19e0c9bab2400000",
        "nonce": "0x23",
        "chainId": "0x1"
      },
      "additionalContracts": [],
      "isFixedGasLimit": false
    },
    {
      "hash": "0x13d3793ce276910a4a2910a5442bb24fab9e3a2ca8f1517d5a1e02155927ba43",
      "transactionType": "CALL",
      "contractName": null,
      "contractAddress": "0x9964e83371c90a07188450cda2f1eb71d26cf704",
      "function": null,
      "arguments": null,
      "transaction": {
        "from": "0x690f0581ececcf8389c223170778cd9d029606f2",
        "to": "0x9964e83371c90a07188450cda2f1eb71d26cf704",
        "gas": "0x714d",
        "value": "0xde0b6b3a7640000",
        "input": "0x",
        "nonce": "0x24",
        "chainId": "0x1"
      },
      "additionalContracts": [],
      "isFixedGasLimit": false
    },
    {
      "hash": "0xfd0ace7c5741102e5de2e03b6d5d6679cf412773d69a67fa741f1df02f8cb6ff",
      "transactionType": "CALL",
      "contractName": null,
      "contractAddress": "0xc18360217d8f7ab5e7c516566761ea12ce7f9d72",
      "function": "delegate(address)",
      "arguments": [
        "0x9964e83371C90a07188450cDa2F1eb71D26Cf704"
      ],
      "transaction": {
        "from": "0x9964e83371c90a07188450cda2f1eb71d26cf704",
        "to": "0xc18360217d8f7ab5e7c516566761ea12ce7f9d72",
        "gas": "0x9c1f",
        "value": "0x0",
        "input": "0x5c19a95c0000000000000000000000009964e83371c90a07188450cda2f1eb71d26cf704",
        "nonce": "0x1",
        "chainId": "0x1"
      },
      "additionalContracts": [],
      "isFixedGasLimit": false
    },
    {
      "hash": "0xb8677baafc7cf909ca73c31ca0595fbd3e5d3f5e7e4968d323696fdaa668aabd",
      "transactionType": "CALL",
      "contractName": null,
      "contractAddress": "0xc18360217d8f7ab5e7c516566761ea12ce7f9d72",
      "function": "transfer(address,uint256)",
      "arguments": [
        "0xAb14753F140280066cD201268Cc7AEf2d5d8CcbF",
        "50000000000000000000000"
      ],
      "transaction": {
        "from": "0x690f0581ececcf8389c223170778cd9d029606f2",
        "to": "0xc18360217d8f7ab5e7c516566761ea12ce7f9d72",
        "gas": "0x18d25",
        "value": "0x0",
        "input": "0xa9059cbb000000000000000000000000ab14753f140280066cd201268cc7aef2d5d8ccbf000000000000000000000000000000000000000000000a968163f0a57b400000",
        "nonce": "0x25",
        "chainId": "0x1"
      },
      "additionalContracts": [],
      "isFixedGasLimit": false
    },
    {
      "hash": "0x2abf4c748b9da9063cbc5d33902adb49eb1c75eaaa3f3a703e84ffb7852b3ac0",
      "transactionType": "CALL",
      "contractName": null,
      "contractAddress": "0xab14753f140280066cd201268cc7aef2d5d8ccbf",
      "function": null,
      "arguments": null,
      "transaction": {
        "from": "0x690f0581ececcf8389c223170778cd9d029606f2",
        "to": "0xab14753f140280066cd201268cc7aef2d5d8ccbf",
        "gas": "0x714d",
        "value": "0xde0b6b3a7640000",
        "input": "0x",
        "nonce": "0x26",
        "chainId": "0x1"
      },
      "additionalContracts": [],
      "isFixedGasLimit": false
    },
    {
      "hash": "0x33c20303e182805fdb74423609456df4d14ea2a0aa67c581e90bf1be95627ac8",
      "transactionType": "CALL",
      "contractName": null,
      "contractAddress": "0xc18360217d8f7ab5e7c516566761ea12ce7f9d72",
      "function": "delegate(address)",
      "arguments": [
        "0xAb14753F140280066cD201268Cc7AEf2d5d8CcbF"
      ],
      "transaction": {
        "from": "0xab14753f140280066cd201268cc7aef2d5d8ccbf",
        "to": "0xc18360217d8f7ab5e7c516566761ea12ce7f9d72",
        "gas": "0x9c1f",
        "value": "0x0",
        "input": "0x5c19a95c000000000000000000000000ab14753f140280066cd201268cc7aef2d5d8ccbf",
        "nonce": "0x1",
        "chainId": "0x1"
      },
      "additionalContracts": [],
      "isFixedGasLimit": false
    },
    {
      "hash": "0x000959a2de71ee2e517bfd7d1d3b338b566ff42b08a40aedcf75fb78a1c1bb94",
      "transactionType": "CALL",
      "contractName": null,
      "contractAddress": "0xc18360217d8f7ab5e7c516566761ea12ce7f9d72",
      "function": "transfer(address,uint256)",
      "arguments": [
        "0x0623E0209E952a7a7A7eeDF0E34a4ca18907B835",
        "1000000000000000000000"
      ],
      "transaction": {
        "from": "0x690f0581ececcf8389c223170778cd9d029606f2",
        "to": "0xc18360217d8f7ab5e7c516566761ea12ce7f9d72",
        "gas": "0x114df",
        "value": "0x0",
        "input": "0xa9059cbb0000000000000000000000000623e0209e952a7a7a7eedf0e34a4ca18907b83500000000000000000000000000000000000000000000003635c9adc5dea00000",
        "nonce": "0x27",
        "chainId": "0x1"
      },
      "additionalContracts": [],
      "isFixedGasLimit": false
    },
    {
      "hash": null,
      "transactionType": "CALL",
      "contractName": null,
      "contractAddress": "0x0623e0209e952a7a7a7eedf0e34a4ca18907b835",
      "function": null,
      "arguments": null,
      "transaction": {
        "from": "0x690f0581ececcf8389c223170778cd9d029606f2",
        "to": "0x0623e0209e952a7a7a7eedf0e34a4ca18907b835",
        "gas": "0x714d",
        "value": "0xde0b6b3a7640000",
        "input": "0x",
        "nonce": "0x28",
        "chainId": "0x1"
      },
      "additionalContracts": [],
      "isFixedGasLimit": false
    },
    {
      "hash": null,
      "transactionType": "CALL",
      "contractName": null,
      "contractAddress": "0xc18360217d8f7ab5e7c516566761ea12ce7f9d72",
      "function": "delegate(address)",
      "arguments": [
        "0x0623E0209E952a7a7A7eeDF0E34a4ca18907B835"
      ],
      "transaction": {
        "from": "0x0623e0209e952a7a7a7eedf0e34a4ca18907b835",
        "to": "0xc18360217d8f7ab5e7c516566761ea12ce7f9d72",
        "gas": "0x9c1f",
        "value": "0x0",
        "input": "0x5c19a95c0000000000000000000000000623e0209e952a7a7a7eedf0e34a4ca18907b835",
        "nonce": "0x1",
        "chainId": "0x1"
      },
      "additionalContracts": [],
      "isFixedGasLimit": false
    }
  ],
  "receipts": [
    {
      "status": "0x1",
      "cumulativeGasUsed": "0x11f7b",
      "logs": [
        {
          "address": "0xc18360217d8f7ab5e7c516566761ea12ce7f9d72",
          "topics": [
            "0xddf252ad1be2c89b69c2b068fc378daa952ba7f163c4a11628f55a4df523b3ef",
            "0x000000000000000000000000690f0581ececcf8389c223170778cd9d029606f2",
            "0x000000000000000000000000d5e90edaa0a44f529cafde088e93c71527a39c8e"
          ],
          "data": "0x00000000000000000000000000000000000000000000003635c9adc5dea00000",
          "blockHash": "0xaf668ce9e65731ea53994e542775e085bd53e1a270ad4166a0fb84aa34f7fd2b",
          "blockNumber": "0x157ddf8",
          "blockTimestamp": "0x682e95b2",
          "transactionHash": "0x16885d2f8cdf8ff29602d31fd95113bb9bc101c7da695f50209e979d4c439047",
          "transactionIndex": "0x0",
          "logIndex": "0x0",
          "removed": false
        },
        {
          "address": "0xc18360217d8f7ab5e7c516566761ea12ce7f9d72",
          "topics": [
            "0xdec2bacdd2f05b59de34da9b523dff8be42e5e38e818c82fdb0bae774387a724",
            "0x000000000000000000000000d5e90edaa0a44f529cafde088e93c71527a39c8e"
          ],
          "data": "0x00000000000000000000000000000000000000000000003635c9adc5dea0000000000000000000000000000000000000000000000000006c6b935b8bbd400000",
          "blockHash": "0xaf668ce9e65731ea53994e542775e085bd53e1a270ad4166a0fb84aa34f7fd2b",
          "blockNumber": "0x157ddf8",
          "blockTimestamp": "0x682e95b2",
          "transactionHash": "0x16885d2f8cdf8ff29602d31fd95113bb9bc101c7da695f50209e979d4c439047",
          "transactionIndex": "0x0",
          "logIndex": "0x1",
          "removed": false
        }
      ],
      "logsBloom": "0x00000000000000000000000000010000000000000000000000000000000000000001000000000200000000000000000001000000000004000000000000000000200000000000000000000008000000000000000000000000000000000000000000000000000000000044000000000000000000000000008000000010000000000000000008000000000000000000000000000000000000000000000000000000040000000000000000000000000000000000000000000000000000000000000000000002000000000000000000000000000000000000000000000000000000000001000000000000000000000000000000000000000000000000000000000000",
      "type": "0x2",
      "transactionHash": "0x16885d2f8cdf8ff29602d31fd95113bb9bc101c7da695f50209e979d4c439047",
      "transactionIndex": "0x0",
      "blockHash": "0xaf668ce9e65731ea53994e542775e085bd53e1a270ad4166a0fb84aa34f7fd2b",
      "blockNumber": "0x157ddf8",
      "gasUsed": "0x11f7b",
      "effectiveGasPrice": "0x4349fc4",
      "blobGasPrice": "0x1",
      "from": "0x690f0581ececcf8389c223170778cd9d029606f2",
      "to": "0xc18360217d8f7ab5e7c516566761ea12ce7f9d72",
      "contractAddress": null
    },
    {
      "status": "0x1",
      "cumulativeGasUsed": "0x5208",
      "logs": [],
      "logsBloom": "0x00000000000000000000000000000000000000000000000000000000000000000000000000000000000000000000000000000000000000000000000000000000000000000000000000000000000000000000000000000000000000000000000000000000000000000000000000000000000000000000000000000000000000000000000000000000000000000000000000000000000000000000000000000000000000000000000000000000000000000000000000000000000000000000000000000000000000000000000000000000000000000000000000000000000000000000000000000000000000000000000000000000000000000000000000000000",
      "type": "0x2",
      "transactionHash": "0x1a57838c7dad74a2c522cc040f51aae171eda04d41ff065c0183bad4852b47b8",
      "transactionIndex": "0x0",
      "blockHash": "0x532fc7e33d923bdfbe47851e2b7b7b1bf8f90d5e6fd74f28a2296fb270b0e117",
      "blockNumber": "0x157ddf9",
      "gasUsed": "0x5208",
      "effectiveGasPrice": "0x40d92e7",
      "blobGasPrice": "0x1",
      "from": "0x690f0581ececcf8389c223170778cd9d029606f2",
      "to": "0xd5e90edaa0a44f529cafde088e93c71527a39c8e",
      "contractAddress": null
    },
    {
      "status": "0x1",
      "cumulativeGasUsed": "0x7108",
      "logs": [
        {
          "address": "0xc18360217d8f7ab5e7c516566761ea12ce7f9d72",
          "topics": [
            "0x3134e8a2e6d97e929a7e54011ea5485d7d196dd5f0ba4d4ef95803e8e3fc257f",
            "0x000000000000000000000000d5e90edaa0a44f529cafde088e93c71527a39c8e",
            "0x000000000000000000000000d5e90edaa0a44f529cafde088e93c71527a39c8e",
            "0x000000000000000000000000d5e90edaa0a44f529cafde088e93c71527a39c8e"
          ],
          "data": "0x",
          "blockHash": "0xd9a5ffc7eab6eb84040cf92cd72921d2ed2bfcac31be6058046f4b7554be3aee",
          "blockNumber": "0x157ddfa",
          "blockTimestamp": "0x682e95b2",
          "transactionHash": "0xe0833ab65cbc85b423e353ea5517671d9887abb87188e0880b8b691a7f1e0d68",
          "transactionIndex": "0x0",
          "logIndex": "0x0",
          "removed": false
        }
      ],
      "logsBloom": "0x00000000000000000000000000000000000020000000000000000000000000000001000000000000000010000000000000020000000004000000000000000000200000000000000000000000000000000000000000000000000000000000000000000000000000000000000000000000000000000000008000000000000000000000000008000000000000000000000000000000000000000000000000000000000000000000000000000000000000000000000000000000000000000000000000000000000000000000000000000000000000000000000000000000000000000001000000000000000000000000000000000000000000000000000000000000",
      "type": "0x2",
      "transactionHash": "0xe0833ab65cbc85b423e353ea5517671d9887abb87188e0880b8b691a7f1e0d68",
      "transactionIndex": "0x0",
      "blockHash": "0xd9a5ffc7eab6eb84040cf92cd72921d2ed2bfcac31be6058046f4b7554be3aee",
      "blockNumber": "0x157ddfa",
      "gasUsed": "0x7108",
      "effectiveGasPrice": "0x3eb48db",
      "blobGasPrice": "0x1",
      "from": "0xd5e90edaa0a44f529cafde088e93c71527a39c8e",
      "to": "0xc18360217d8f7ab5e7c516566761ea12ce7f9d72",
      "contractAddress": null
    },
    {
      "status": "0x1",
      "cumulativeGasUsed": "0x11f87",
      "logs": [
        {
          "address": "0xc18360217d8f7ab5e7c516566761ea12ce7f9d72",
          "topics": [
            "0xddf252ad1be2c89b69c2b068fc378daa952ba7f163c4a11628f55a4df523b3ef",
            "0x000000000000000000000000690f0581ececcf8389c223170778cd9d029606f2",
            "0x000000000000000000000000e9d9c8f746937803094f1019c94e0252be8a0547"
          ],
          "data": "0x00000000000000000000000000000000000000000000021e19e0c9bab2400000",
          "blockHash": "0xbcb5fff4ac1db1e9df72a542487a515d6740e4be7e38970b5147739076d87ba6",
          "blockNumber": "0x157ddfb",
          "blockTimestamp": "0x682e95b2",
          "transactionHash": "0xb7dd207f7eb2c224197bb485c09660267ad4ea0958f2f53dcf821385b96a7f55",
          "transactionIndex": "0x0",
          "logIndex": "0x0",
          "removed": false
        },
        {
          "address": "0xc18360217d8f7ab5e7c516566761ea12ce7f9d72",
          "topics": [
            "0xdec2bacdd2f05b59de34da9b523dff8be42e5e38e818c82fdb0bae774387a724",
            "0x000000000000000000000000e9d9c8f746937803094f1019c94e0252be8a0547"
          ],
          "data": "0x00000000000000000000000000000000000000000000021e19e0c9bab240000000000000000000000000000000000000000000000000043c33c1937564800000",
          "blockHash": "0xbcb5fff4ac1db1e9df72a542487a515d6740e4be7e38970b5147739076d87ba6",
          "blockNumber": "0x157ddfb",
          "blockTimestamp": "0x682e95b2",
          "transactionHash": "0xb7dd207f7eb2c224197bb485c09660267ad4ea0958f2f53dcf821385b96a7f55",
          "transactionIndex": "0x0",
          "logIndex": "0x1",
          "removed": false
        }
      ],
      "logsBloom": "0x00000000000000000000000000010000000000000000000000000000000000000001000000000200000000000000000001000000000004000000000000000000000000000000000000000008000000000000000000000000000000000000100000000000000000000044000000000000000000000000000000000010000000000000000000000000000000000000000000000000000000000000000000000000040000000000000000000000000000000000000000000000000000000000000000000002000000000000000000000000004000000000000000000000000000000001000000000000000000000000000000000000000000000000400000000000",
      "type": "0x2",
      "transactionHash": "0xb7dd207f7eb2c224197bb485c09660267ad4ea0958f2f53dcf821385b96a7f55",
      "transactionIndex": "0x0",
      "blockHash": "0xbcb5fff4ac1db1e9df72a542487a515d6740e4be7e38970b5147739076d87ba6",
      "blockNumber": "0x157ddfb",
      "gasUsed": "0x11f87",
      "effectiveGasPrice": "0x3cd4a2d",
      "blobGasPrice": "0x1",
      "from": "0x690f0581ececcf8389c223170778cd9d029606f2",
      "to": "0xc18360217d8f7ab5e7c516566761ea12ce7f9d72",
      "contractAddress": null
    },
    {
      "status": "0x1",
      "cumulativeGasUsed": "0x5208",
      "logs": [],
      "logsBloom": "0x00000000000000000000000000000000000000000000000000000000000000000000000000000000000000000000000000000000000000000000000000000000000000000000000000000000000000000000000000000000000000000000000000000000000000000000000000000000000000000000000000000000000000000000000000000000000000000000000000000000000000000000000000000000000000000000000000000000000000000000000000000000000000000000000000000000000000000000000000000000000000000000000000000000000000000000000000000000000000000000000000000000000000000000000000000000",
      "type": "0x2",
      "transactionHash": "0x8b441c3ee3166c01cb50f98f166f5d38c6f95d930bc35fcb54bfba8025ae5bfb",
      "transactionIndex": "0x0",
      "blockHash": "0x3ba4077a6093ba6922163f3344565d9fb9e928fa685bf579d22daf8d67c18086",
      "blockNumber": "0x157ddfc",
      "gasUsed": "0x5208",
      "effectiveGasPrice": "0x3b31a7e",
      "blobGasPrice": "0x1",
      "from": "0x690f0581ececcf8389c223170778cd9d029606f2",
      "to": "0xe9d9c8f746937803094f1019c94e0252be8a0547",
      "contractAddress": null
    },
    {
      "status": "0x1",
      "cumulativeGasUsed": "0x7108",
      "logs": [
        {
          "address": "0xc18360217d8f7ab5e7c516566761ea12ce7f9d72",
          "topics": [
            "0x3134e8a2e6d97e929a7e54011ea5485d7d196dd5f0ba4d4ef95803e8e3fc257f",
            "0x000000000000000000000000e9d9c8f746937803094f1019c94e0252be8a0547",
            "0x000000000000000000000000e9d9c8f746937803094f1019c94e0252be8a0547",
            "0x000000000000000000000000e9d9c8f746937803094f1019c94e0252be8a0547"
          ],
          "data": "0x",
          "blockHash": "0x601c0e3c8eba3c0a5d8f08a4a0615024736d10095dbba12a543156e79c335fd8",
          "blockNumber": "0x157ddfd",
          "blockTimestamp": "0x682e95b2",
          "transactionHash": "0xf0c6227353130f345883e3adb51634bc412b6fde4e3fdb994b2c595ac3caa696",
          "transactionIndex": "0x0",
          "logIndex": "0x0",
          "removed": false
        }
      ],
      "logsBloom": "0x00000000000000000000000000000000000020000000000000000000000000000001000000000000000010000000000000020000000004000000000000000000000000000000000000000000000000000000000000000000000000000000100000000000000000000000000000000000000000000000000000000000000000000000000000000000000000000000000000000000000000000000000000000000000000000000000000000000000000000000000000000000000000000000000000000000000000000000000000000000004000000000000000000000000000000001000000000000000000000000000000000000000000000000400000000000",
      "type": "0x2",
      "transactionHash": "0xf0c6227353130f345883e3adb51634bc412b6fde4e3fdb994b2c595ac3caa696",
      "transactionIndex": "0x0",
      "blockHash": "0x601c0e3c8eba3c0a5d8f08a4a0615024736d10095dbba12a543156e79c335fd8",
      "blockNumber": "0x157ddfd",
      "gasUsed": "0x7108",
      "effectiveGasPrice": "0x39c1c1f",
      "blobGasPrice": "0x1",
      "from": "0xe9d9c8f746937803094f1019c94e0252be8a0547",
      "to": "0xc18360217d8f7ab5e7c516566761ea12ce7f9d72",
      "contractAddress": null
    },
    {
      "status": "0x1",
      "cumulativeGasUsed": "0x11f87",
      "logs": [
        {
          "address": "0xc18360217d8f7ab5e7c516566761ea12ce7f9d72",
          "topics": [
            "0xddf252ad1be2c89b69c2b068fc378daa952ba7f163c4a11628f55a4df523b3ef",
            "0x000000000000000000000000690f0581ececcf8389c223170778cd9d029606f2",
            "0x0000000000000000000000000b535a60b26023b4c5c6beea1e445f46bbdd906a"
          ],
          "data": "0x000000000000000000000000000000000000000000000a968163f0a57b400000",
          "blockHash": "0x62b0744487e0e94a3153b75e63178a6d08d5f254743c1566cd324483920f0abd",
          "blockNumber": "0x157ddfe",
          "blockTimestamp": "0x682e95b2",
          "transactionHash": "0x49e4f75e207327e5a8defc5b70acaef03a2471d5679728dabf91b49542cb40db",
          "transactionIndex": "0x0",
          "logIndex": "0x0",
          "removed": false
        },
        {
          "address": "0xc18360217d8f7ab5e7c516566761ea12ce7f9d72",
          "topics": [
            "0xdec2bacdd2f05b59de34da9b523dff8be42e5e38e818c82fdb0bae774387a724",
            "0x0000000000000000000000000b535a60b26023b4c5c6beea1e445f46bbdd906a"
          ],
          "data": "0x000000000000000000000000000000000000000000000a968163f0a57b40000000000000000000000000000000000000000000000000152d02c7e14af6800000",
          "blockHash": "0x62b0744487e0e94a3153b75e63178a6d08d5f254743c1566cd324483920f0abd",
          "blockNumber": "0x157ddfe",
          "blockTimestamp": "0x682e95b2",
          "transactionHash": "0x49e4f75e207327e5a8defc5b70acaef03a2471d5679728dabf91b49542cb40db",
          "transactionIndex": "0x0",
          "logIndex": "0x1",
          "removed": false
        }
      ],
      "logsBloom": "0x00000000000000000000000000010000000000000000000000000000000000000001000000000200000000000000000001000000000004000000000000000000000000000000002000000008000000000000000000000000000000000000200000000000000000000044000000000000000000000000000000000010000000000000000000000000000000000000000000000000000000000000000000000200040000000000000000000000000000000000000000000000000000000000000000000002000000000000000000000000000000000000000000000000000000000001000000000000000000000000000000000000000000000000000000000000",
      "type": "0x2",
      "transactionHash": "0x49e4f75e207327e5a8defc5b70acaef03a2471d5679728dabf91b49542cb40db",
      "transactionIndex": "0x0",
      "blockHash": "0x62b0744487e0e94a3153b75e63178a6d08d5f254743c1566cd324483920f0abd",
      "blockNumber": "0x157ddfe",
      "gasUsed": "0x11f87",
      "effectiveGasPrice": "0x387fef6",
      "blobGasPrice": "0x1",
      "from": "0x690f0581ececcf8389c223170778cd9d029606f2",
      "to": "0xc18360217d8f7ab5e7c516566761ea12ce7f9d72",
      "contractAddress": null
    },
    {
      "status": "0x1",
      "cumulativeGasUsed": "0x5208",
      "logs": [],
      "logsBloom": "0x00000000000000000000000000000000000000000000000000000000000000000000000000000000000000000000000000000000000000000000000000000000000000000000000000000000000000000000000000000000000000000000000000000000000000000000000000000000000000000000000000000000000000000000000000000000000000000000000000000000000000000000000000000000000000000000000000000000000000000000000000000000000000000000000000000000000000000000000000000000000000000000000000000000000000000000000000000000000000000000000000000000000000000000000000000000",
      "type": "0x2",
      "transactionHash": "0xaee05ec8364a4b1eda01b9dd33079c3f722905155bf0cfb3a6464ba897dd2746",
      "transactionIndex": "0x0",
      "blockHash": "0x463869c2c96e87a6f861126d547ff86613c5476733a779435beae19e10fc4735",
      "blockNumber": "0x157ddff",
      "gasUsed": "0x5208",
      "effectiveGasPrice": "0x3766f9d",
      "blobGasPrice": "0x1",
      "from": "0x690f0581ececcf8389c223170778cd9d029606f2",
      "to": "0x0b535a60b26023b4c5c6beea1e445f46bbdd906a",
      "contractAddress": null
    },
    {
      "status": "0x1",
      "cumulativeGasUsed": "0x7108",
      "logs": [
        {
          "address": "0xc18360217d8f7ab5e7c516566761ea12ce7f9d72",
          "topics": [
            "0x3134e8a2e6d97e929a7e54011ea5485d7d196dd5f0ba4d4ef95803e8e3fc257f",
            "0x0000000000000000000000000b535a60b26023b4c5c6beea1e445f46bbdd906a",
            "0x0000000000000000000000000b535a60b26023b4c5c6beea1e445f46bbdd906a",
            "0x0000000000000000000000000b535a60b26023b4c5c6beea1e445f46bbdd906a"
          ],
          "data": "0x",
          "blockHash": "0x5cd2b9b4d2638c500ffc204a914a70581f77f745d6a35985001aa03055f6fa14",
          "blockNumber": "0x157de00",
          "blockTimestamp": "0x682e95b2",
          "transactionHash": "0x1d937483c8415b88a715913e101529a9c8fe37d913eb9c2dfcfec74e59a7b489",
          "transactionIndex": "0x0",
          "logIndex": "0x0",
          "removed": false
        }
      ],
      "logsBloom": "0x00000000000000000000000000000000000020000000000000000000000000000001000000000000000010000000000000020000000004000000000000000000000000000000002000000000000000000000000000000000000000000000200000000000000000000000000000000000000000000000000000000000000000000000000000000000000000000000000000000000000000000000000000000200000000000000000000000000000000000000000000000000000000000000000000000000000000000000000000000000000000000000000000000000000000000001000000000000000000000000000000000000000000000000000000000000",
      "type": "0x2",
      "transactionHash": "0x1d937483c8415b88a715913e101529a9c8fe37d913eb9c2dfcfec74e59a7b489",
      "transactionIndex": "0x0",
      "blockHash": "0x5cd2b9b4d2638c500ffc204a914a70581f77f745d6a35985001aa03055f6fa14",
      "blockNumber": "0x157de00",
      "gasUsed": "0x7108",
      "effectiveGasPrice": "0x3670456",
      "blobGasPrice": "0x1",
      "from": "0x0b535a60b26023b4c5c6beea1e445f46bbdd906a",
      "to": "0xc18360217d8f7ab5e7c516566761ea12ce7f9d72",
      "contractAddress": null
    },
    {
      "status": "0x1",
      "cumulativeGasUsed": "0x11f7b",
      "logs": [
        {
          "address": "0xc18360217d8f7ab5e7c516566761ea12ce7f9d72",
          "topics": [
            "0xddf252ad1be2c89b69c2b068fc378daa952ba7f163c4a11628f55a4df523b3ef",
            "0x000000000000000000000000690f0581ececcf8389c223170778cd9d029606f2",
            "0x0000000000000000000000003a9b0c811312a51fc63d3d4c21bcfbf1107c4d47"
          ],
          "data": "0x00000000000000000000000000000000000000000000003635c9adc5dea00000",
          "blockHash": "0xf7ac4fc09ab78672f2eebcf360e9e15bb82aa6a9b3f2e772190567d70315eadb",
          "blockNumber": "0x157de01",
          "blockTimestamp": "0x682e95b2",
          "transactionHash": "0xaa2e054fdba19e4e2ac09348e19d4072dd1bdf22e1c3512c1f7424613d2586a9",
          "transactionIndex": "0x0",
          "logIndex": "0x0",
          "removed": false
        },
        {
          "address": "0xc18360217d8f7ab5e7c516566761ea12ce7f9d72",
          "topics": [
            "0xdec2bacdd2f05b59de34da9b523dff8be42e5e38e818c82fdb0bae774387a724",
            "0x0000000000000000000000003a9b0c811312a51fc63d3d4c21bcfbf1107c4d47"
          ],
          "data": "0x00000000000000000000000000000000000000000000003635c9adc5dea0000000000000000000000000000000000000000000000000006c6b935b8bbd400000",
          "blockHash": "0xf7ac4fc09ab78672f2eebcf360e9e15bb82aa6a9b3f2e772190567d70315eadb",
          "blockNumber": "0x157de01",
          "blockTimestamp": "0x682e95b2",
          "transactionHash": "0xaa2e054fdba19e4e2ac09348e19d4072dd1bdf22e1c3512c1f7424613d2586a9",
          "transactionIndex": "0x0",
          "logIndex": "0x1",
          "removed": false
        }
      ],
      "logsBloom": "0x00000000000000000000000000010000000000000000000000000000000000000001000000000200000000000000000001000000000004000000000000000000000000000000000000000008000000000000000000000000000000000000000000000000000000000044000000000000000000000000800000000010000000000000000008000000000000000000000000000000000000000000000000000000040000000000000000000000000000000000000000000000008000000000000000000002000000000000000000000000000000000000000000000000000000000001000000000000000000000000000000000000000000000000000000000000",
      "type": "0x2",
      "transactionHash": "0xaa2e054fdba19e4e2ac09348e19d4072dd1bdf22e1c3512c1f7424613d2586a9",
      "transactionIndex": "0x0",
      "blockHash": "0xf7ac4fc09ab78672f2eebcf360e9e15bb82aa6a9b3f2e772190567d70315eadb",
      "blockNumber": "0x157de01",
      "gasUsed": "0x11f7b",
      "effectiveGasPrice": "0x359876b",
      "blobGasPrice": "0x1",
      "from": "0x690f0581ececcf8389c223170778cd9d029606f2",
      "to": "0xc18360217d8f7ab5e7c516566761ea12ce7f9d72",
      "contractAddress": null
    },
    {
      "status": "0x1",
      "cumulativeGasUsed": "0x5208",
      "logs": [],
      "logsBloom": "0x00000000000000000000000000000000000000000000000000000000000000000000000000000000000000000000000000000000000000000000000000000000000000000000000000000000000000000000000000000000000000000000000000000000000000000000000000000000000000000000000000000000000000000000000000000000000000000000000000000000000000000000000000000000000000000000000000000000000000000000000000000000000000000000000000000000000000000000000000000000000000000000000000000000000000000000000000000000000000000000000000000000000000000000000000000000",
      "type": "0x2",
      "transactionHash": "0x84ee693a969d1403a2cd63f9f9ef688fa99e331497efe6dc205edf36c94b4be8",
      "transactionIndex": "0x0",
      "blockHash": "0x289a14bc311fcea4d1d49f3f159be785652f8c7c54280c696756d779f921d235",
      "blockNumber": "0x157de02",
      "gasUsed": "0x5208",
      "effectiveGasPrice": "0x34dc0ee",
      "blobGasPrice": "0x1",
      "from": "0x690f0581ececcf8389c223170778cd9d029606f2",
      "to": "0x3a9b0c811312a51fc63d3d4c21bcfbf1107c4d47",
      "contractAddress": null
    },
    {
      "status": "0x1",
      "cumulativeGasUsed": "0x7108",
      "logs": [
        {
          "address": "0xc18360217d8f7ab5e7c516566761ea12ce7f9d72",
          "topics": [
            "0x3134e8a2e6d97e929a7e54011ea5485d7d196dd5f0ba4d4ef95803e8e3fc257f",
            "0x0000000000000000000000003a9b0c811312a51fc63d3d4c21bcfbf1107c4d47",
            "0x0000000000000000000000003a9b0c811312a51fc63d3d4c21bcfbf1107c4d47",
            "0x0000000000000000000000003a9b0c811312a51fc63d3d4c21bcfbf1107c4d47"
          ],
          "data": "0x",
          "blockHash": "0x3363280ed81348226847fa6755ddf92ba99ccb860b2300eb72632ecfcd3d84d5",
          "blockNumber": "0x157de03",
          "blockTimestamp": "0x682e95b2",
          "transactionHash": "0xb791457d9cf09fc7c5b45292b199ceb6d1c7ef23d6c8d2e31fd2efa667a40336",
          "transactionIndex": "0x0",
          "logIndex": "0x0",
          "removed": false
        }
      ],
      "logsBloom": "0x00000000000000000000000000000000000020000000000000000000000000000001000000000000000010000000000000020000000004000000000000000000000000000000000000000000000000000000000000000000000000000000000000000000000000000000000000000000000000000000800000000000000000000000000008000000000000000000000000000000000000000000000000000000000000000000000000000000000000000000000000000000008000000000000000000000000000000000000000000000000000000000000000000000000000000001000000000000000000000000000000000000000000000000000000000000",
      "type": "0x2",
      "transactionHash": "0xb791457d9cf09fc7c5b45292b199ceb6d1c7ef23d6c8d2e31fd2efa667a40336",
      "transactionIndex": "0x0",
      "blockHash": "0x3363280ed81348226847fa6755ddf92ba99ccb860b2300eb72632ecfcd3d84d5",
      "blockNumber": "0x157de03",
      "gasUsed": "0x7108",
      "effectiveGasPrice": "0x34369f8",
      "blobGasPrice": "0x1",
      "from": "0x3a9b0c811312a51fc63d3d4c21bcfbf1107c4d47",
      "to": "0xc18360217d8f7ab5e7c516566761ea12ce7f9d72",
      "contractAddress": null
    },
    {
      "status": "0x1",
      "cumulativeGasUsed": "0x11f87",
      "logs": [
        {
          "address": "0xc18360217d8f7ab5e7c516566761ea12ce7f9d72",
          "topics": [
            "0xddf252ad1be2c89b69c2b068fc378daa952ba7f163c4a11628f55a4df523b3ef",
            "0x000000000000000000000000690f0581ececcf8389c223170778cd9d029606f2",
            "0x000000000000000000000000409c30ede66c2de55f7b7152f6720a5811571ac7"
          ],
          "data": "0x00000000000000000000000000000000000000000000021e19e0c9bab2400000",
          "blockHash": "0x9b60b693382c95f1f473ee490fab46f76158275f2c2148576270a7676cb6d663",
          "blockNumber": "0x157de04",
          "blockTimestamp": "0x682e95b2",
          "transactionHash": "0x8215796bd5765f7d81ea3a94e7da7670eab095436699c008b5ed0ce051dc5159",
          "transactionIndex": "0x0",
          "logIndex": "0x0",
          "removed": false
        },
        {
          "address": "0xc18360217d8f7ab5e7c516566761ea12ce7f9d72",
          "topics": [
            "0xdec2bacdd2f05b59de34da9b523dff8be42e5e38e818c82fdb0bae774387a724",
            "0x000000000000000000000000409c30ede66c2de55f7b7152f6720a5811571ac7"
          ],
          "data": "0x00000000000000000000000000000000000000000000021e19e0c9bab240000000000000000000000000000000000000000000000000043c33c1937564800000",
          "blockHash": "0x9b60b693382c95f1f473ee490fab46f76158275f2c2148576270a7676cb6d663",
          "blockNumber": "0x157de04",
          "blockTimestamp": "0x682e95b2",
          "transactionHash": "0x8215796bd5765f7d81ea3a94e7da7670eab095436699c008b5ed0ce051dc5159",
          "transactionIndex": "0x0",
          "logIndex": "0x1",
          "removed": false
        }
      ],
      "logsBloom": "0x00000000000000000000000000010000000000000000000000000000000000000001000000000200000000000000000001000000000004000000020000000000000000000000000000000008000000000000000000000000000000000000000000000000000000000044000000000000000000000000000000000010000000000000000000000000000000000000000200000000000000000000000000000000040000000000000000000000000000000000000000000000000000000000000000000002000000000000000000000000000000000000000000000000000000000001000000000000000000000000000000000000000000010000000000000000",
      "type": "0x2",
      "transactionHash": "0x8215796bd5765f7d81ea3a94e7da7670eab095436699c008b5ed0ce051dc5159",
      "transactionIndex": "0x0",
      "blockHash": "0x9b60b693382c95f1f473ee490fab46f76158275f2c2148576270a7676cb6d663",
      "blockNumber": "0x157de04",
      "gasUsed": "0x11f87",
      "effectiveGasPrice": "0x33a5e84",
      "blobGasPrice": "0x1",
      "from": "0x690f0581ececcf8389c223170778cd9d029606f2",
      "to": "0xc18360217d8f7ab5e7c516566761ea12ce7f9d72",
      "contractAddress": null
    },
    {
      "status": "0x1",
      "cumulativeGasUsed": "0x5208",
      "logs": [],
      "logsBloom": "0x00000000000000000000000000000000000000000000000000000000000000000000000000000000000000000000000000000000000000000000000000000000000000000000000000000000000000000000000000000000000000000000000000000000000000000000000000000000000000000000000000000000000000000000000000000000000000000000000000000000000000000000000000000000000000000000000000000000000000000000000000000000000000000000000000000000000000000000000000000000000000000000000000000000000000000000000000000000000000000000000000000000000000000000000000000000",
      "type": "0x2",
      "transactionHash": "0xd26e436f20ae6bba91c8341dbd1f8a3c2425a913458f9c4aa2e060b6024a4947",
      "transactionIndex": "0x0",
      "blockHash": "0xeff86483168a1b7678885d514b3894bcead8ffe61b841c308ffeba2b5ef2457c",
      "blockNumber": "0x157de05",
      "gasUsed": "0x5208",
      "effectiveGasPrice": "0x3327911",
      "blobGasPrice": "0x1",
      "from": "0x690f0581ececcf8389c223170778cd9d029606f2",
      "to": "0x409c30ede66c2de55f7b7152f6720a5811571ac7",
      "contractAddress": null
    },
    {
      "status": "0x1",
      "cumulativeGasUsed": "0x7108",
      "logs": [
        {
          "address": "0xc18360217d8f7ab5e7c516566761ea12ce7f9d72",
          "topics": [
            "0x3134e8a2e6d97e929a7e54011ea5485d7d196dd5f0ba4d4ef95803e8e3fc257f",
            "0x000000000000000000000000409c30ede66c2de55f7b7152f6720a5811571ac7",
            "0x000000000000000000000000409c30ede66c2de55f7b7152f6720a5811571ac7",
            "0x000000000000000000000000409c30ede66c2de55f7b7152f6720a5811571ac7"
          ],
          "data": "0x",
          "blockHash": "0xcc696dd9ef468066f8fdb0742ea028cd485582a780c9fd4675d9d7d085687284",
          "blockNumber": "0x157de06",
          "blockTimestamp": "0x682e95b2",
          "transactionHash": "0xd1f0b3e314f6a1152639d2830794b0ac64e9cc0d4acb827b8a6ec7895c59dcee",
          "transactionIndex": "0x0",
          "logIndex": "0x0",
          "removed": false
        }
      ],
      "logsBloom": "0x00000000000000000000000000000000000020000000000000000000000000000001000000000000000010000000000000020000000004000000020000000000000000000000000000000000000000000000000000000000000000000000000000000000000000000000000000000000000000000000000000000000000000000000000000000000000000000000000200000000000000000000000000000000000000000000000000000000000000000000000000000000000000000000000000000000000000000000000000000000000000000000000000000000000000000001000000000000000000000000000000000000000000010000000000000000",
      "type": "0x2",
      "transactionHash": "0xd1f0b3e314f6a1152639d2830794b0ac64e9cc0d4acb827b8a6ec7895c59dcee",
      "transactionIndex": "0x0",
      "blockHash": "0xcc696dd9ef468066f8fdb0742ea028cd485582a780c9fd4675d9d7d085687284",
      "blockNumber": "0x157de06",
      "gasUsed": "0x7108",
      "effectiveGasPrice": "0x32b8a12",
      "blobGasPrice": "0x1",
      "from": "0x409c30ede66c2de55f7b7152f6720a5811571ac7",
      "to": "0xc18360217d8f7ab5e7c516566761ea12ce7f9d72",
      "contractAddress": null
    },
    {
      "status": "0x1",
      "cumulativeGasUsed": "0x11f87",
      "logs": [
        {
          "address": "0xc18360217d8f7ab5e7c516566761ea12ce7f9d72",
          "topics": [
            "0xddf252ad1be2c89b69c2b068fc378daa952ba7f163c4a11628f55a4df523b3ef",
            "0x000000000000000000000000690f0581ececcf8389c223170778cd9d029606f2",
            "0x000000000000000000000000fc4627a097987907642e6b8c90bcb69c9beb6d71"
          ],
          "data": "0x000000000000000000000000000000000000000000000a968163f0a57b400000",
          "blockHash": "0x42978cd215f4b44335b5bb90873cd865140d8b664bf909ecc5861752dbef844e",
          "blockNumber": "0x157de07",
          "blockTimestamp": "0x682e95b2",
          "transactionHash": "0x4bf1aa5454ed51df00cdb9cde0981fe10ae2c74f2d3bb14f52ff34226bc6bb13",
          "transactionIndex": "0x0",
          "logIndex": "0x0",
          "removed": false
        },
        {
          "address": "0xc18360217d8f7ab5e7c516566761ea12ce7f9d72",
          "topics": [
            "0xdec2bacdd2f05b59de34da9b523dff8be42e5e38e818c82fdb0bae774387a724",
            "0x000000000000000000000000fc4627a097987907642e6b8c90bcb69c9beb6d71"
          ],
          "data": "0x000000000000000000000000000000000000000000000a968163f0a57b40000000000000000000000000000000000000000000000000152d02c7e14af6800000",
          "blockHash": "0x42978cd215f4b44335b5bb90873cd865140d8b664bf909ecc5861752dbef844e",
          "blockNumber": "0x157de07",
          "blockTimestamp": "0x682e95b2",
          "transactionHash": "0x4bf1aa5454ed51df00cdb9cde0981fe10ae2c74f2d3bb14f52ff34226bc6bb13",
          "transactionIndex": "0x0",
          "logIndex": "0x1",
          "removed": false
        }
      ],
      "logsBloom": "0x00000000000000000000000000010000000000000000000000000000000000000801000000000200000000000000000001000000000004000000000000000000000000000000000000000008000000000000000000000000000000000000000000000000000000000044000000000000000000000000000000000010000000000000000000000000000000000000000000000000000000000000000000000000040000000000000000000000000000000000000000000000000000000000000000000002000000000000000000000000000000000000000000000000000000000001000000000000000000000000000000100000000000010000000000000000",
      "type": "0x2",
      "transactionHash": "0x4bf1aa5454ed51df00cdb9cde0981fe10ae2c74f2d3bb14f52ff34226bc6bb13",
      "transactionIndex": "0x0",
      "blockHash": "0x42978cd215f4b44335b5bb90873cd865140d8b664bf909ecc5861752dbef844e",
      "blockNumber": "0x157de07",
      "gasUsed": "0x11f87",
      "effectiveGasPrice": "0x3257960",
      "blobGasPrice": "0x1",
      "from": "0x690f0581ececcf8389c223170778cd9d029606f2",
      "to": "0xc18360217d8f7ab5e7c516566761ea12ce7f9d72",
      "contractAddress": null
    },
    {
      "status": "0x1",
      "cumulativeGasUsed": "0x5208",
      "logs": [],
      "logsBloom": "0x00000000000000000000000000000000000000000000000000000000000000000000000000000000000000000000000000000000000000000000000000000000000000000000000000000000000000000000000000000000000000000000000000000000000000000000000000000000000000000000000000000000000000000000000000000000000000000000000000000000000000000000000000000000000000000000000000000000000000000000000000000000000000000000000000000000000000000000000000000000000000000000000000000000000000000000000000000000000000000000000000000000000000000000000000000000",
      "type": "0x2",
      "transactionHash": "0xb8461e306a479655db80aa0941473252d9bb8660f4c37f84796a493b780c44ea",
      "transactionIndex": "0x0",
      "blockHash": "0xd4b8873e2e5e4f755cb2a775fce5a41b011adc0a79f5b31a682e290d1c92e262",
      "blockNumber": "0x157de08",
      "gasUsed": "0x5208",
      "effectiveGasPrice": "0x3202dd5",
      "blobGasPrice": "0x1",
      "from": "0x690f0581ececcf8389c223170778cd9d029606f2",
      "to": "0xfc4627a097987907642e6b8c90bcb69c9beb6d71",
      "contractAddress": null
    },
    {
      "status": "0x1",
      "cumulativeGasUsed": "0x7108",
      "logs": [
        {
          "address": "0xc18360217d8f7ab5e7c516566761ea12ce7f9d72",
          "topics": [
            "0x3134e8a2e6d97e929a7e54011ea5485d7d196dd5f0ba4d4ef95803e8e3fc257f",
            "0x000000000000000000000000fc4627a097987907642e6b8c90bcb69c9beb6d71",
            "0x000000000000000000000000fc4627a097987907642e6b8c90bcb69c9beb6d71",
            "0x000000000000000000000000fc4627a097987907642e6b8c90bcb69c9beb6d71"
          ],
          "data": "0x",
          "blockHash": "0xdc7d9c1a0ee5f39d1b8860c85948cb88fbaea7d9c63229614a5275ddbc4827d4",
          "blockNumber": "0x157de09",
          "blockTimestamp": "0x682e95b2",
          "transactionHash": "0x60444f0dc22e504ca9fc0b6c5905743badf7306c79117d604b9eb45f8a287bca",
          "transactionIndex": "0x0",
          "logIndex": "0x0",
          "removed": false
        }
      ],
      "logsBloom": "0x00000000000000000000000000000000000020000000000000000000000000000801000000000000000010000000000000020000000004000000000000000000000000000000000000000000000000000000000000000000000000000000000000000000000000000000000000000000000000000000000000000000000000000000000000000000000000000000000000000000000000000000000000000000000000000000000000000000000000000000000000000000000000000000000000000000000000000000000000000000000000000000000000000000000000000001000000000000000000000000000000100000000000010000000000000000",
      "type": "0x2",
      "transactionHash": "0x60444f0dc22e504ca9fc0b6c5905743badf7306c79117d604b9eb45f8a287bca",
      "transactionIndex": "0x0",
      "blockHash": "0xdc7d9c1a0ee5f39d1b8860c85948cb88fbaea7d9c63229614a5275ddbc4827d4",
      "blockNumber": "0x157de09",
      "gasUsed": "0x7108",
      "effectiveGasPrice": "0x31b878f",
      "blobGasPrice": "0x1",
      "from": "0xfc4627a097987907642e6b8c90bcb69c9beb6d71",
      "to": "0xc18360217d8f7ab5e7c516566761ea12ce7f9d72",
      "contractAddress": null
    },
    {
      "status": "0x1",
      "cumulativeGasUsed": "0x11f7b",
      "logs": [
        {
          "address": "0xc18360217d8f7ab5e7c516566761ea12ce7f9d72",
          "topics": [
            "0xddf252ad1be2c89b69c2b068fc378daa952ba7f163c4a11628f55a4df523b3ef",
            "0x000000000000000000000000690f0581ececcf8389c223170778cd9d029606f2",
            "0x000000000000000000000000715df8928803e7c53c96021dccd1f028bfe2777c"
          ],
          "data": "0x00000000000000000000000000000000000000000000003635c9adc5dea00000",
          "blockHash": "0x18a6594dcba4c67117c907584ffab2c220395792596ed3496764863e29cf590c",
          "blockNumber": "0x157de0a",
          "blockTimestamp": "0x682e95b2",
          "transactionHash": "0x6a484f4e7942d67f4142d3caedadbf30ad0bec10dcaf05a733093044ede573a2",
          "transactionIndex": "0x0",
          "logIndex": "0x0",
          "removed": false
        },
        {
          "address": "0xc18360217d8f7ab5e7c516566761ea12ce7f9d72",
          "topics": [
            "0xdec2bacdd2f05b59de34da9b523dff8be42e5e38e818c82fdb0bae774387a724",
            "0x000000000000000000000000715df8928803e7c53c96021dccd1f028bfe2777c"
          ],
          "data": "0x00000000000000000000000000000000000000000000003635c9adc5dea0000000000000000000000000000000000000000000000000006c6b935b8bbd400000",
          "blockHash": "0x18a6594dcba4c67117c907584ffab2c220395792596ed3496764863e29cf590c",
          "blockNumber": "0x157de0a",
          "blockTimestamp": "0x682e95b2",
          "transactionHash": "0x6a484f4e7942d67f4142d3caedadbf30ad0bec10dcaf05a733093044ede573a2",
          "transactionIndex": "0x0",
          "logIndex": "0x1",
          "removed": false
        }
      ],
      "logsBloom": "0x00000000000000000000000000010000000000000000000000000000080000000001000000000200000000000000000001000000000004000000000000000000000000000000000000000008000000000000000000000000000000000000000000000000000000000044000000000000000000000000000000004010000000000000000000000000000000000000000000000000000000000000000000000000040000000000000000000000000000000000000000000000000000000000000000000002001000000000000000000000000000000000000000000000000000000001000000000000000000000000000000000000000000000000000000000000",
      "type": "0x2",
      "transactionHash": "0x6a484f4e7942d67f4142d3caedadbf30ad0bec10dcaf05a733093044ede573a2",
      "transactionIndex": "0x0",
      "blockHash": "0x18a6594dcba4c67117c907584ffab2c220395792596ed3496764863e29cf590c",
      "blockNumber": "0x157de0a",
      "gasUsed": "0x11f7b",
      "effectiveGasPrice": "0x317765b",
      "blobGasPrice": "0x1",
      "from": "0x690f0581ececcf8389c223170778cd9d029606f2",
      "to": "0xc18360217d8f7ab5e7c516566761ea12ce7f9d72",
      "contractAddress": null
    },
    {
      "status": "0x1",
      "cumulativeGasUsed": "0x5208",
      "logs": [],
      "logsBloom": "0x00000000000000000000000000000000000000000000000000000000000000000000000000000000000000000000000000000000000000000000000000000000000000000000000000000000000000000000000000000000000000000000000000000000000000000000000000000000000000000000000000000000000000000000000000000000000000000000000000000000000000000000000000000000000000000000000000000000000000000000000000000000000000000000000000000000000000000000000000000000000000000000000000000000000000000000000000000000000000000000000000000000000000000000000000000000",
      "type": "0x2",
      "transactionHash": "0xd2fad0bd12f7803de7266d9f67ca5e3fedf2d0603f333f1c1a7f2247da33920d",
      "transactionIndex": "0x0",
      "blockHash": "0x79b935418ee098500e3f13ee1dc876ac696a4a16286951234fed4421c711512d",
      "blockNumber": "0x157de0b",
      "gasUsed": "0x5208",
      "effectiveGasPrice": "0x313e95b",
      "blobGasPrice": "0x1",
      "from": "0x690f0581ececcf8389c223170778cd9d029606f2",
      "to": "0x715df8928803e7c53c96021dccd1f028bfe2777c",
      "contractAddress": null
    },
    {
      "status": "0x1",
      "cumulativeGasUsed": "0x7108",
      "logs": [
        {
          "address": "0xc18360217d8f7ab5e7c516566761ea12ce7f9d72",
          "topics": [
            "0x3134e8a2e6d97e929a7e54011ea5485d7d196dd5f0ba4d4ef95803e8e3fc257f",
            "0x000000000000000000000000715df8928803e7c53c96021dccd1f028bfe2777c",
            "0x000000000000000000000000715df8928803e7c53c96021dccd1f028bfe2777c",
            "0x000000000000000000000000715df8928803e7c53c96021dccd1f028bfe2777c"
          ],
          "data": "0x",
          "blockHash": "0x2afc78d2086494fdb775f606327ac7b364683d032e08f9c9f659e2f5871d5699",
          "blockNumber": "0x157de0c",
          "blockTimestamp": "0x682e95b2",
          "transactionHash": "0xdda5a14cf37b44959796961d120f1f1d765d9fd8d4db9fd68e10789669f823c1",
          "transactionIndex": "0x0",
          "logIndex": "0x0",
          "removed": false
        }
      ],
      "logsBloom": "0x00000000000000000000000000000000000020000000000000000000080000000001000000000000000010000000000000020000000004000000000000000000000000000000000000000000000000000000000000000000000000000000000000000000000000000000000000000000000000000000000000004000000000000000000000000000000000000000000000000000000000000000000000000000000000000000000000000000000000000000000000000000000000000000000000000000001000000000000000000000000000000000000000000000000000000001000000000000000000000000000000000000000000000000000000000000",
      "type": "0x2",
      "transactionHash": "0xdda5a14cf37b44959796961d120f1f1d765d9fd8d4db9fd68e10789669f823c1",
      "transactionIndex": "0x0",
      "blockHash": "0x2afc78d2086494fdb775f606327ac7b364683d032e08f9c9f659e2f5871d5699",
      "blockNumber": "0x157de0c",
      "gasUsed": "0x7108",
      "effectiveGasPrice": "0x310cb2f",
      "blobGasPrice": "0x1",
      "from": "0x715df8928803e7c53c96021dccd1f028bfe2777c",
      "to": "0xc18360217d8f7ab5e7c516566761ea12ce7f9d72",
      "contractAddress": null
    },
    {
      "status": "0x1",
      "cumulativeGasUsed": "0x11f87",
      "logs": [
        {
          "address": "0xc18360217d8f7ab5e7c516566761ea12ce7f9d72",
          "topics": [
            "0xddf252ad1be2c89b69c2b068fc378daa952ba7f163c4a11628f55a4df523b3ef",
            "0x000000000000000000000000690f0581ececcf8389c223170778cd9d029606f2",
            "0x0000000000000000000000009964e83371c90a07188450cda2f1eb71d26cf704"
          ],
          "data": "0x00000000000000000000000000000000000000000000021e19e0c9bab2400000",
          "blockHash": "0x4dc87878fc7690d7facd05ead94af306269f738dd2f053171f11dcebdf1422df",
          "blockNumber": "0x157de0d",
          "blockTimestamp": "0x682e95b2",
          "transactionHash": "0x95ba137a1655c8e6030b8c682b6e695e175fef19b50d882d09fc5581473bbffd",
          "transactionIndex": "0x0",
          "logIndex": "0x0",
          "removed": false
        },
        {
          "address": "0xc18360217d8f7ab5e7c516566761ea12ce7f9d72",
          "topics": [
            "0xdec2bacdd2f05b59de34da9b523dff8be42e5e38e818c82fdb0bae774387a724",
            "0x0000000000000000000000009964e83371c90a07188450cda2f1eb71d26cf704"
          ],
          "data": "0x00000000000000000000000000000000000000000000021e19e0c9bab240000000000000000000000000000000000000000000000000043c33c1937564800000",
          "blockHash": "0x4dc87878fc7690d7facd05ead94af306269f738dd2f053171f11dcebdf1422df",
          "blockNumber": "0x157de0d",
          "blockTimestamp": "0x682e95b2",
          "transactionHash": "0x95ba137a1655c8e6030b8c682b6e695e175fef19b50d882d09fc5581473bbffd",
          "transactionIndex": "0x0",
          "logIndex": "0x1",
          "removed": false
        }
      ],
      "logsBloom": "0x00000000000000000000000000010000000000000000000000000000000000000001000000000200000000000000080001000000000004000000000000000000000000000000000000000008000000000000000000000000000000000000000000000000000000000044000000000000000000000000000000000010000000000000000000000000000000000000000004000000000000000000000000000000040000000000000000000000000000000000000000000000000000000000000000000002000000000000000000000000000080000000000000000000000000000001000000000000000000000000000000000000000000000000000000000000",
      "type": "0x2",
      "transactionHash": "0x95ba137a1655c8e6030b8c682b6e695e175fef19b50d882d09fc5581473bbffd",
      "transactionIndex": "0x0",
      "blockHash": "0x4dc87878fc7690d7facd05ead94af306269f738dd2f053171f11dcebdf1422df",
      "blockNumber": "0x157de0d",
      "gasUsed": "0x11f87",
      "effectiveGasPrice": "0x30e10f9",
      "blobGasPrice": "0x1",
      "from": "0x690f0581ececcf8389c223170778cd9d029606f2",
      "to": "0xc18360217d8f7ab5e7c516566761ea12ce7f9d72",
      "contractAddress": null
    },
    {
      "status": "0x1",
      "cumulativeGasUsed": "0x5208",
      "logs": [],
      "logsBloom": "0x00000000000000000000000000000000000000000000000000000000000000000000000000000000000000000000000000000000000000000000000000000000000000000000000000000000000000000000000000000000000000000000000000000000000000000000000000000000000000000000000000000000000000000000000000000000000000000000000000000000000000000000000000000000000000000000000000000000000000000000000000000000000000000000000000000000000000000000000000000000000000000000000000000000000000000000000000000000000000000000000000000000000000000000000000000000",
      "type": "0x2",
      "transactionHash": "0x13d3793ce276910a4a2910a5442bb24fab9e3a2ca8f1517d5a1e02155927ba43",
      "transactionIndex": "0x0",
      "blockHash": "0x511054647f6904473411e5806bd0dba76614da17a12871567a63372e1169865b",
      "blockNumber": "0x157de0e",
      "gasUsed": "0x5208",
      "effectiveGasPrice": "0x30baf6b",
      "blobGasPrice": "0x1",
      "from": "0x690f0581ececcf8389c223170778cd9d029606f2",
      "to": "0x9964e83371c90a07188450cda2f1eb71d26cf704",
      "contractAddress": null
    },
    {
      "status": "0x1",
      "cumulativeGasUsed": "0x7108",
      "logs": [
        {
          "address": "0xc18360217d8f7ab5e7c516566761ea12ce7f9d72",
          "topics": [
            "0x3134e8a2e6d97e929a7e54011ea5485d7d196dd5f0ba4d4ef95803e8e3fc257f",
            "0x0000000000000000000000009964e83371c90a07188450cda2f1eb71d26cf704",
            "0x0000000000000000000000009964e83371c90a07188450cda2f1eb71d26cf704",
            "0x0000000000000000000000009964e83371c90a07188450cda2f1eb71d26cf704"
          ],
          "data": "0x",
          "blockHash": "0x54cf2463220fae9422d668888bbe1131763f4bca8761d0cb158f9ac8e77efeb3",
          "blockNumber": "0x157de0f",
          "blockTimestamp": "0x682e95b2",
          "transactionHash": "0xfd0ace7c5741102e5de2e03b6d5d6679cf412773d69a67fa741f1df02f8cb6ff",
          "transactionIndex": "0x0",
          "logIndex": "0x0",
          "removed": false
        }
      ],
      "logsBloom": "0x00000000000000000000000000000000000020000000000000000000000000000001000000000000000010000000080000020000000004000000000000000000000000000000000000000000000000000000000000000000000000000000000000000000000000000000000000000000000000000000000000000000000000000000000000000000000000000000000004000000000000000000000000000000000000000000000000000000000000000000000000000000000000000000000000000000000000000000000000000000000080000000000000000000000000000001000000000000000000000000000000000000000000000000000000000000",
      "type": "0x2",
      "transactionHash": "0xfd0ace7c5741102e5de2e03b6d5d6679cf412773d69a67fa741f1df02f8cb6ff",
      "transactionIndex": "0x0",
      "blockHash": "0x54cf2463220fae9422d668888bbe1131763f4bca8761d0cb158f9ac8e77efeb3",
      "blockNumber": "0x157de0f",
      "gasUsed": "0x7108",
      "effectiveGasPrice": "0x309982e",
      "blobGasPrice": "0x1",
      "from": "0x9964e83371c90a07188450cda2f1eb71d26cf704",
      "to": "0xc18360217d8f7ab5e7c516566761ea12ce7f9d72",
      "contractAddress": null
    },
    {
      "status": "0x1",
      "cumulativeGasUsed": "0x11f87",
      "logs": [
        {
          "address": "0xc18360217d8f7ab5e7c516566761ea12ce7f9d72",
          "topics": [
            "0xddf252ad1be2c89b69c2b068fc378daa952ba7f163c4a11628f55a4df523b3ef",
            "0x000000000000000000000000690f0581ececcf8389c223170778cd9d029606f2",
            "0x000000000000000000000000ab14753f140280066cd201268cc7aef2d5d8ccbf"
          ],
          "data": "0x000000000000000000000000000000000000000000000a968163f0a57b400000",
          "blockHash": "0x788d2d19fb7fb62378870170f71ecfae63aa216c83f8bfcbf018bec8d36eb469",
          "blockNumber": "0x157de10",
          "blockTimestamp": "0x682e95b2",
          "transactionHash": "0xb8677baafc7cf909ca73c31ca0595fbd3e5d3f5e7e4968d323696fdaa668aabd",
          "transactionIndex": "0x0",
          "logIndex": "0x0",
          "removed": false
        },
        {
          "address": "0xc18360217d8f7ab5e7c516566761ea12ce7f9d72",
          "topics": [
            "0xdec2bacdd2f05b59de34da9b523dff8be42e5e38e818c82fdb0bae774387a724",
            "0x000000000000000000000000ab14753f140280066cd201268cc7aef2d5d8ccbf"
          ],
          "data": "0x000000000000000000000000000000000000000000000a968163f0a57b40000000000000000000000000000000000000000000000000152d02c7e14af6800000",
          "blockHash": "0x788d2d19fb7fb62378870170f71ecfae63aa216c83f8bfcbf018bec8d36eb469",
          "blockNumber": "0x157de10",
          "blockTimestamp": "0x682e95b2",
          "transactionHash": "0xb8677baafc7cf909ca73c31ca0595fbd3e5d3f5e7e4968d323696fdaa668aabd",
          "transactionIndex": "0x0",
          "logIndex": "0x1",
          "removed": false
        }
      ],
      "logsBloom": "0x00000000000000000000000000010000000000000000000000000000000000000001000000000200000000000000000001000000000004000000000000000000000000000000000000000008000000000400000000000000000000000000000000000000000000000044000000000000000000000000000000000010000000000000000000000008000000000000000000000000000000000000000000000000040000000000000000000000000000000000000000000000000000000000000000000002000000000000000000000000000000000000080000000000000000000001000000000000000000000000000000000000000000000000000000000000",
      "type": "0x2",
      "transactionHash": "0xb8677baafc7cf909ca73c31ca0595fbd3e5d3f5e7e4968d323696fdaa668aabd",
      "transactionIndex": "0x0",
      "blockHash": "0x788d2d19fb7fb62378870170f71ecfae63aa216c83f8bfcbf018bec8d36eb469",
      "blockNumber": "0x157de10",
      "gasUsed": "0x11f87",
      "effectiveGasPrice": "0x307c3fa",
      "blobGasPrice": "0x1",
      "from": "0x690f0581ececcf8389c223170778cd9d029606f2",
      "to": "0xc18360217d8f7ab5e7c516566761ea12ce7f9d72",
      "contractAddress": null
    },
    {
      "status": "0x1",
      "cumulativeGasUsed": "0x5208",
      "logs": [],
      "logsBloom": "0x00000000000000000000000000000000000000000000000000000000000000000000000000000000000000000000000000000000000000000000000000000000000000000000000000000000000000000000000000000000000000000000000000000000000000000000000000000000000000000000000000000000000000000000000000000000000000000000000000000000000000000000000000000000000000000000000000000000000000000000000000000000000000000000000000000000000000000000000000000000000000000000000000000000000000000000000000000000000000000000000000000000000000000000000000000000",
      "type": "0x2",
      "transactionHash": "0x2abf4c748b9da9063cbc5d33902adb49eb1c75eaaa3f3a703e84ffb7852b3ac0",
      "transactionIndex": "0x0",
      "blockHash": "0x1cf919bbb3dd3369f545cc6b2e4f979ffd88ef910c2b24f3dc69bac23349c625",
      "blockNumber": "0x157de11",
      "gasUsed": "0x5208",
      "effectiveGasPrice": "0x3062b39",
      "blobGasPrice": "0x1",
      "from": "0x690f0581ececcf8389c223170778cd9d029606f2",
      "to": "0xab14753f140280066cd201268cc7aef2d5d8ccbf",
      "contractAddress": null
    },
    {
      "status": "0x1",
      "cumulativeGasUsed": "0x7108",
      "logs": [
        {
          "address": "0xc18360217d8f7ab5e7c516566761ea12ce7f9d72",
          "topics": [
            "0x3134e8a2e6d97e929a7e54011ea5485d7d196dd5f0ba4d4ef95803e8e3fc257f",
            "0x000000000000000000000000ab14753f140280066cd201268cc7aef2d5d8ccbf",
            "0x000000000000000000000000ab14753f140280066cd201268cc7aef2d5d8ccbf",
            "0x000000000000000000000000ab14753f140280066cd201268cc7aef2d5d8ccbf"
          ],
          "data": "0x",
          "blockHash": "0x25bd3f93617dd753ffe1045d2534c9aec3503a3154a076c86d987cec773c6f67",
          "blockNumber": "0x157de12",
          "blockTimestamp": "0x682e95b2",
          "transactionHash": "0x33c20303e182805fdb74423609456df4d14ea2a0aa67c581e90bf1be95627ac8",
          "transactionIndex": "0x0",
          "logIndex": "0x0",
          "removed": false
        }
      ],
      "logsBloom": "0x00000000000000000000000000000000000020000000000000000000000000000001000000000000000010000000000000020000000004000000000000000000000000000000000000000000000000000400000000000000000000000000000000000000000000000000000000000000000000000000000000000000000000000000000000000008000000000000000000000000000000000000000000000000000000000000000000000000000000000000000000000000000000000000000000000000000000000000000000000000000000000000080000000000000000000001000000000000000000000000000000000000000000000000000000000000",
      "type": "0x2",
      "transactionHash": "0x33c20303e182805fdb74423609456df4d14ea2a0aa67c581e90bf1be95627ac8",
      "transactionIndex": "0x0",
      "blockHash": "0x25bd3f93617dd753ffe1045d2534c9aec3503a3154a076c86d987cec773c6f67",
      "blockNumber": "0x157de12",
      "gasUsed": "0x7108",
      "effectiveGasPrice": "0x304c44e",
      "blobGasPrice": "0x1",
      "from": "0xab14753f140280066cd201268cc7aef2d5d8ccbf",
      "to": "0xc18360217d8f7ab5e7c516566761ea12ce7f9d72",
      "contractAddress": null
    }
  ],
  "libraries": [],
  "pending": [],
  "returns": {},
  "timestamp": 1747885067,
  "chain": 1,
  "commit": "ff54867"
}