{
  "transactions": [
    {
      "hash": "0xa174d448f7a35045234e7f498068df05b47b163d16c9df4f0691067f6d42ced9",
      "transactionType": "CALL",
      "contractName": null,
      "contractAddress": "0xc18360217d8f7ab5e7c516566761ea12ce7f9d72",
      "function": "transfer(address,uint256)",
      "arguments": [
        "0x4320d597fBd545F8A747f61B209Cf9a106E02e94",
        "1000000000000000000000"
      ],
      "transaction": {
        "from": "0x690f0581ececcf8389c223170778cd9d029606f2",
        "to": "0xc18360217d8f7ab5e7c516566761ea12ce7f9d72",
        "gas": "0x1a470",
        "value": "0x0",
        "input": "0xa9059cbb0000000000000000000000004320d597fbd545f8a747f61b209cf9a106e02e9400000000000000000000000000000000000000000000003635c9adc5dea00000",
        "nonce": "0x8",
        "chainId": "0x1"
      },
      "additionalContracts": [],
      "isFixedGasLimit": false
    },
    {
      "hash": "0x71c1f59b741c28466ec9ee806a59e7dd48d3b5d9e3e7e83c6a46eea28466277c",
      "transactionType": "CALL",
      "contractName": null,
      "contractAddress": "0x4320d597fbd545f8a747f61b209cf9a106e02e94",
      "function": null,
      "arguments": null,
      "transaction": {
        "from": "0x690f0581ececcf8389c223170778cd9d029606f2",
        "to": "0x4320d597fbd545f8a747f61b209cf9a106e02e94",
        "gas": "0x714d",
        "value": "0xde0b6b3a7640000",
        "input": "0x",
        "nonce": "0x9",
        "chainId": "0x1"
      },
      "additionalContracts": [],
      "isFixedGasLimit": false
    },
    {
      "hash": "0xbc329fb2ef8e245307e0c31ea6718da4400c149dc5d724d6ed338f76ae6ebc46",
      "transactionType": "CALL",
      "contractName": null,
      "contractAddress": "0xc18360217d8f7ab5e7c516566761ea12ce7f9d72",
      "function": "delegate(address)",
      "arguments": [
        "0x4320d597fBd545F8A747f61B209Cf9a106E02e94"
      ],
      "transaction": {
        "from": "0x4320d597fbd545f8a747f61b209cf9a106e02e94",
        "to": "0xc18360217d8f7ab5e7c516566761ea12ce7f9d72",
        "gas": "0x9c1f",
        "value": "0x0",
        "input": "0x5c19a95c0000000000000000000000004320d597fbd545f8a747f61b209cf9a106e02e94",
        "nonce": "0x3",
        "chainId": "0x1"
      },
      "additionalContracts": [],
      "isFixedGasLimit": false
    }
  ],
  "receipts": [
    {
      "status": "0x1",
      "cumulativeGasUsed": "0x11f7b",
      "logs": [
        {
          "address": "0xc18360217d8f7ab5e7c516566761ea12ce7f9d72",
          "topics": [
            "0xddf252ad1be2c89b69c2b068fc378daa952ba7f163c4a11628f55a4df523b3ef",
            "0x000000000000000000000000690f0581ececcf8389c223170778cd9d029606f2",
            "0x0000000000000000000000004320d597fbd545f8a747f61b209cf9a106e02e94"
          ],
          "data": "0x00000000000000000000000000000000000000000000003635c9adc5dea00000",
          "blockHash": "0xd23ecd97a828f6d97c2baddba68231f418ab60f4868012ae8cb22b971455ee6d",
          "blockNumber": "0x157dde4",
          "blockTimestamp": "0x682e967e",
          "transactionHash": "0xa174d448f7a35045234e7f498068df05b47b163d16c9df4f0691067f6d42ced9",
          "transactionIndex": "0x0",
          "logIndex": "0x0",
          "removed": false
        },
        {
          "address": "0xc18360217d8f7ab5e7c516566761ea12ce7f9d72",
          "topics": [
            "0xdec2bacdd2f05b59de34da9b523dff8be42e5e38e818c82fdb0bae774387a724",
            "0x0000000000000000000000004320d597fbd545f8a747f61b209cf9a106e02e94"
          ],
          "data": "0x0000000000000000000000000000000000000000000000a2a15d09519be000000000000000000000000000000000000000000000000000d8d726b7177a800000",
          "blockHash": "0xd23ecd97a828f6d97c2baddba68231f418ab60f4868012ae8cb22b971455ee6d",
          "blockNumber": "0x157dde4",
          "blockTimestamp": "0x682e967e",
          "transactionHash": "0xa174d448f7a35045234e7f498068df05b47b163d16c9df4f0691067f6d42ced9",
          "transactionIndex": "0x0",
          "logIndex": "0x1",
          "removed": false
        }
      ],
      "logsBloom": "0x00000000000000000000000000010000000000000000000000000000000000000001000000000200000000000000000001000000000004000000000000000000000000000000000000000008000000000000000000040000000000000000000000000000000000000044000000000000000000000000000008000010000000000000000000000000000000000000000000000000000000000000000000000000040000000000000000000000000000000000000000000000000000000000000000000002000000000000000000000000000000000000000000000000000000000001000000000000000000100000000000000000000000000000000000000000",
      "type": "0x2",
      "transactionHash": "0xa174d448f7a35045234e7f498068df05b47b163d16c9df4f0691067f6d42ced9",
      "transactionIndex": "0x0",
      "blockHash": "0xd23ecd97a828f6d97c2baddba68231f418ab60f4868012ae8cb22b971455ee6d",
      "blockNumber": "0x157dde4",
      "gasUsed": "0x11f7b",
      "effectiveGasPrice": "0x14828b68",
      "blobGasPrice": "0x1",
      "from": "0x690f0581ececcf8389c223170778cd9d029606f2",
      "to": "0xc18360217d8f7ab5e7c516566761ea12ce7f9d72",
      "contractAddress": null
    },
    {
      "status": "0x1",
      "cumulativeGasUsed": "0x5208",
      "logs": [],
      "logsBloom": "0x00000000000000000000000000000000000000000000000000000000000000000000000000000000000000000000000000000000000000000000000000000000000000000000000000000000000000000000000000000000000000000000000000000000000000000000000000000000000000000000000000000000000000000000000000000000000000000000000000000000000000000000000000000000000000000000000000000000000000000000000000000000000000000000000000000000000000000000000000000000000000000000000000000000000000000000000000000000000000000000000000000000000000000000000000000000",
      "type": "0x2",
      "transactionHash": "0x71c1f59b741c28466ec9ee806a59e7dd48d3b5d9e3e7e83c6a46eea28466277c",
      "transactionIndex": "0x0",
      "blockHash": "0xd9a0a0cab67577e1962c4bde0010443063bb40dbe011bdd7e5dba1c157777100",
      "blockNumber": "0x157dde5",
      "gasUsed": "0x5208",
      "effectiveGasPrice": "0x1253e32f",
      "blobGasPrice": "0x1",
      "from": "0x690f0581ececcf8389c223170778cd9d029606f2",
      "to": "0x4320d597fbd545f8a747f61b209cf9a106e02e94",
      "contractAddress": null
    },
    {
      "status": "0x1",
      "cumulativeGasUsed": "0x7108",
      "logs": [
        {
          "address": "0xc18360217d8f7ab5e7c516566761ea12ce7f9d72",
          "topics": [
            "0x3134e8a2e6d97e929a7e54011ea5485d7d196dd5f0ba4d4ef95803e8e3fc257f",
            "0x0000000000000000000000004320d597fbd545f8a747f61b209cf9a106e02e94",
            "0x0000000000000000000000004320d597fbd545f8a747f61b209cf9a106e02e94",
            "0x0000000000000000000000004320d597fbd545f8a747f61b209cf9a106e02e94"
          ],
          "data": "0x",
          "blockHash": "0xd89ea41b243e9c9826d2aa010dee08fd7ab4a1c013fc393818be1232420db137",
          "blockNumber": "0x157dde6",
          "blockTimestamp": "0x682e967e",
          "transactionHash": "0xbc329fb2ef8e245307e0c31ea6718da4400c149dc5d724d6ed338f76ae6ebc46",
          "transactionIndex": "0x0",
          "logIndex": "0x0",
          "removed": false
        }
      ],
      "logsBloom": "0x00000000000000000000000000000000000020000000000000000000000000000001000000000000000010000000000000020000000004000000000000000000000000000000000000000000000000000000000000040000000000000000000000000000000000000000000000000000000000000000000008000000000000000000000000000000000000000000000000000000000000000000000000000000000000000000000000000000000000000000000000000000000000000000000000000000000000000000000000000000000000000000000000000000000000000001000000000000000000100000000000000000000000000000000000000000",
      "type": "0x2",
      "transactionHash": "0xbc329fb2ef8e245307e0c31ea6718da4400c149dc5d724d6ed338f76ae6ebc46",
      "transactionIndex": "0x0",
      "blockHash": "0xd89ea41b243e9c9826d2aa010dee08fd7ab4a1c013fc393818be1232420db137",
      "blockNumber": "0x157dde6",
      "gasUsed": "0x7108",
      "effectiveGasPrice": "0x10695788",
      "blobGasPrice": "0x1",
      "from": "0x4320d597fbd545f8a747f61b209cf9a106e02e94",
      "to": "0xc18360217d8f7ab5e7c516566761ea12ce7f9d72",
      "contractAddress": null
    }
  ],
  "libraries": [],
  "pending": [],
  "returns": {},
  "timestamp": 1747933822,
  "chain": 1,
  "commit": "b575304"
}