{
  "transactions": [
    {
      "hash": "0x9e278dfe640408d4aa2c4916b2ac092741fa78fdc724fa78073829b98c750d02",
      "transactionType": "CALL",
      "contractName": null,
      "contractAddress": "0xc18360217d8f7ab5e7c516566761ea12ce7f9d72",
      "function": "transfer(address,uint256)",
      "arguments": [
        "0x4320d597fBd545F8A747f61B209Cf9a106E02e94",
        "1000000000000000000000"
      ],
      "transaction": {
        "from": "0x690f0581ececcf8389c223170778cd9d029606f2",
        "to": "0xc18360217d8f7ab5e7c516566761ea12ce7f9d72",
        "gas": "0x114df",
        "value": "0x0",
        "input": "0xa9059cbb0000000000000000000000004320d597fbd545f8a747f61b209cf9a106e02e9400000000000000000000000000000000000000000000003635c9adc5dea00000",
        "nonce": "0x3",
        "chainId": "0x1"
      },
      "additionalContracts": [],
      "isFixedGasLimit": false
    },
    {
      "hash": null,
      "transactionType": "CALL",
      "contractName": null,
      "contractAddress": "0x4320d597fbd545f8a747f61b209cf9a106e02e94",
      "function": null,
      "arguments": null,
      "transaction": {
        "from": "0x690f0581ececcf8389c223170778cd9d029606f2",
        "to": "0x4320d597fbd545f8a747f61b209cf9a106e02e94",
        "gas": "0x714d",
        "value": "0xde0b6b3a7640000",
        "input": "0x",
        "nonce": "0x4",
        "chainId": "0x1"
      },
      "additionalContracts": [],
      "isFixedGasLimit": false
    },
    {
      "hash": null,
      "transactionType": "CALL",
      "contractName": null,
      "contractAddress": "0xc18360217d8f7ab5e7c516566761ea12ce7f9d72",
      "function": "delegate(address)",
      "arguments": [
        "0x4320d597fBd545F8A747f61B209Cf9a106E02e94"
      ],
      "transaction": {
        "from": "0x4320d597fbd545f8a747f61b209cf9a106e02e94",
        "to": "0xc18360217d8f7ab5e7c516566761ea12ce7f9d72",
        "gas": "0x9c1f",
        "value": "0x0",
        "input": "0x5c19a95c0000000000000000000000004320d597fbd545f8a747f61b209cf9a106e02e94",
        "nonce": "0x1",
        "chainId": "0x1"
      },
      "additionalContracts": [],
      "isFixedGasLimit": false
    }
  ],
  "receipts": [],
  "libraries": [],
  "pending": [],
  "returns": {},
  "timestamp": 1747928987,
  "chain": 1,
  "commit": null
}