{
  "transactions": [
    {
      "hash": "0x42d2a915361880b544895a7c6ea97f28ea55e504072c8b011269148a474acaf7",
      "transactionType": "CALL",
      "contractName": null,
      "contractAddress": "0xc18360217d8f7ab5e7c516566761ea12ce7f9d72",
      "function": "transfer(address,uint256)",
      "arguments": [
        "0x4320d597fBd545F8A747f61B209Cf9a106E02e94",
        "1000000000000000000000"
      ],
      "transaction": {
        "from": "0x690f0581ececcf8389c223170778cd9d029606f2",
        "to": "0xc18360217d8f7ab5e7c516566761ea12ce7f9d72",
        "gas": "0x1a470",
        "value": "0x0",
        "input": "0xa9059cbb0000000000000000000000004320d597fbd545f8a747f61b209cf9a106e02e9400000000000000000000000000000000000000000000003635c9adc5dea00000",
        "nonce": "0x4",
        "chainId": "0x1"
      },
      "additionalContracts": [],
      "isFixedGasLimit": false
    },
    {
      "hash": "0x0faa179686242db1301ff1df6661f78647a58304f6acf4d52f50c8d420d1d823",
      "transactionType": "CALL",
      "contractName": null,
      "contractAddress": "0x4320d597fbd545f8a747f61b209cf9a106e02e94",
      "function": null,
      "arguments": null,
      "transaction": {
        "from": "0x690f0581ececcf8389c223170778cd9d029606f2",
        "to": "0x4320d597fbd545f8a747f61b209cf9a106e02e94",
        "gas": "0x714d",
        "value": "0xde0b6b3a7640000",
        "input": "0x",
        "nonce": "0x5",
        "chainId": "0x1"
      },
      "additionalContracts": [],
      "isFixedGasLimit": false
    },
    {
      "hash": "0xf7f94793b669a0e8a1e6a0e4b37de63a5091ef06d8917b03e6ffc8856fc17229",
      "transactionType": "CALL",
      "contractName": null,
      "contractAddress": "0xc18360217d8f7ab5e7c516566761ea12ce7f9d72",
      "function": "delegate(address)",
      "arguments": [
        "0x4320d597fBd545F8A747f61B209Cf9a106E02e94"
      ],
      "transaction": {
        "from": "0x4320d597fbd545f8a747f61b209cf9a106e02e94",
        "to": "0xc18360217d8f7ab5e7c516566761ea12ce7f9d72",
        "gas": "0x9c1f",
        "value": "0x0",
        "input": "0x5c19a95c0000000000000000000000004320d597fbd545f8a747f61b209cf9a106e02e94",
        "nonce": "0x1",
        "chainId": "0x1"
      },
      "additionalContracts": [],
      "isFixedGasLimit": false
    }
  ],
  "receipts": [
    {
      "status": "0x1",
      "cumulativeGasUsed": "0x11f7b",
      "logs": [
        {
          "address": "0xc18360217d8f7ab5e7c516566761ea12ce7f9d72",
          "topics": [
            "0xddf252ad1be2c89b69c2b068fc378daa952ba7f163c4a11628f55a4df523b3ef",
            "0x000000000000000000000000690f0581ececcf8389c223170778cd9d029606f2",
            "0x0000000000000000000000004320d597fbd545f8a747f61b209cf9a106e02e94"
          ],
          "data": "0x00000000000000000000000000000000000000000000003635c9adc5dea00000",
          "blockHash": "0xf13a3ddf58bfc5cc0f3f893f9785a6abcd7351029e9018b6b4c0af36633c5a95",
          "blockNumber": "0x157ddde",
          "blockTimestamp": "0x682e9677",
          "transactionHash": "0x42d2a915361880b544895a7c6ea97f28ea55e504072c8b011269148a474acaf7",
          "transactionIndex": "0x0",
          "logIndex": "0x0",
          "removed": false
        },
        {
          "address": "0xc18360217d8f7ab5e7c516566761ea12ce7f9d72",
          "topics": [
            "0xdec2bacdd2f05b59de34da9b523dff8be42e5e38e818c82fdb0bae774387a724",
            "0x0000000000000000000000004320d597fbd545f8a747f61b209cf9a106e02e94"
          ],
          "data": "0x00000000000000000000000000000000000000000000003635c9adc5dea0000000000000000000000000000000000000000000000000006c6b935b8bbd400000",
          "blockHash": "0xf13a3ddf58bfc5cc0f3f893f9785a6abcd7351029e9018b6b4c0af36633c5a95",
          "blockNumber": "0x157ddde",
          "blockTimestamp": "0x682e9677",
          "transactionHash": "0x42d2a915361880b544895a7c6ea97f28ea55e504072c8b011269148a474acaf7",
          "transactionIndex": "0x0",
          "logIndex": "0x1",
          "removed": false
        }
      ],
      "logsBloom": "0x00000000000000000000000000010000000000000000000000000000000000000001000000000200000000000000000001000000000004000000000000000000000000000000000000000008000000000000000000040000000000000000000000000000000000000044000000000000000000000000000008000010000000000000000000000000000000000000000000000000000000000000000000000000040000000000000000000000000000000000000000000000000000000000000000000002000000000000000000000000000000000000000000000000000000000001000000000000000000100000000000000000000000000000000000000000",
      "type": "0x2",
      "transactionHash": "0x42d2a915361880b544895a7c6ea97f28ea55e504072c8b011269148a474acaf7",
      "transactionIndex": "0x0",
      "blockHash": "0xf13a3ddf58bfc5cc0f3f893f9785a6abcd7351029e9018b6b4c0af36633c5a95",
      "blockNumber": "0x157ddde",
      "gasUsed": "0x11f7b",
      "effectiveGasPrice": "0x29f694a3",
      "blobGasPrice": "0x1",
      "from": "0x690f0581ececcf8389c223170778cd9d029606f2",
      "to": "0xc18360217d8f7ab5e7c516566761ea12ce7f9d72",
      "contractAddress": null
    },
    {
      "status": "0x1",
      "cumulativeGasUsed": "0x5208",
      "logs": [],
      "logsBloom": "0x00000000000000000000000000000000000000000000000000000000000000000000000000000000000000000000000000000000000000000000000000000000000000000000000000000000000000000000000000000000000000000000000000000000000000000000000000000000000000000000000000000000000000000000000000000000000000000000000000000000000000000000000000000000000000000000000000000000000000000000000000000000000000000000000000000000000000000000000000000000000000000000000000000000000000000000000000000000000000000000000000000000000000000000000000000000",
      "type": "0x2",
      "transactionHash": "0x0faa179686242db1301ff1df6661f78647a58304f6acf4d52f50c8d420d1d823",
      "transactionIndex": "0x0",
      "blockHash": "0x2988d2b345b8e8cc6e46318c85adec2ed78fa2176c3a3f7a32773b6de3358170",
      "blockNumber": "0x157dddf",
      "gasUsed": "0x5208",
      "effectiveGasPrice": "0x251c39d0",
      "blobGasPrice": "0x1",
      "from": "0x690f0581ececcf8389c223170778cd9d029606f2",
      "to": "0x4320d597fbd545f8a747f61b209cf9a106e02e94",
      "contractAddress": null
    },
    {
      "status": "0x1",
      "cumulativeGasUsed": "0x7108",
      "logs": [
        {
          "address": "0xc18360217d8f7ab5e7c516566761ea12ce7f9d72",
          "topics": [
            "0x3134e8a2e6d97e929a7e54011ea5485d7d196dd5f0ba4d4ef95803e8e3fc257f",
            "0x0000000000000000000000004320d597fbd545f8a747f61b209cf9a106e02e94",
            "0x0000000000000000000000004320d597fbd545f8a747f61b209cf9a106e02e94",
            "0x0000000000000000000000004320d597fbd545f8a747f61b209cf9a106e02e94"
          ],
          "data": "0x",
          "blockHash": "0xa15092885660d903ef7df34ec02d3e87e6356c8950bc082fe36375c000562e97",
          "blockNumber": "0x157dde0",
          "blockTimestamp": "0x682e9677",
          "transactionHash": "0xf7f94793b669a0e8a1e6a0e4b37de63a5091ef06d8917b03e6ffc8856fc17229",
          "transactionIndex": "0x0",
          "logIndex": "0x0",
          "removed": false
        }
      ],
      "logsBloom": "0x00000000000000000000000000000000000020000000000000000000000000000001000000000000000010000000000000020000000004000000000000000000000000000000000000000000000000000000000000040000000000000000000000000000000000000000000000000000000000000000000008000000000000000000000000000000000000000000000000000000000000000000000000000000000000000000000000000000000000000000000000000000000000000000000000000000000000000000000000000000000000000000000000000000000000000001000000000000000000100000000000000000000000000000000000000000",
      "type": "0x2",
      "transactionHash": "0xf7f94793b669a0e8a1e6a0e4b37de63a5091ef06d8917b03e6ffc8856fc17229",
      "transactionIndex": "0x0",
      "blockHash": "0xa15092885660d903ef7df34ec02d3e87e6356c8950bc082fe36375c000562e97",
      "blockNumber": "0x157dde0",
      "gasUsed": "0x7108",
      "effectiveGasPrice": "0x20d956d8",
      "blobGasPrice": "0x1",
      "from": "0x4320d597fbd545f8a747f61b209cf9a106e02e94",
      "to": "0xc18360217d8f7ab5e7c516566761ea12ce7f9d72",
      "contractAddress": null
    }
  ],
  "libraries": [],
  "pending": [],
  "returns": {},
  "timestamp": 1747933815,
  "chain": 1,
  "commit": "b575304"
}