{
  "transactions": [
    {
      "hash": "0xf8a2faa6ee6fd870157601040c474d111c11c5e5652a0e238c96245cf2135303",
      "transactionType": "CALL",
      "contractName": null,
      "contractAddress": "0xc18360217d8f7ab5e7c516566761ea12ce7f9d72",
      "function": "transfer(address,uint256)",
      "arguments": [
        "0x4320d597fBd545F8A747f61B209Cf9a106E02e94",
        "10000000000000000000"
      ],
      "transaction": {
        "from": "0x690f0581ececcf8389c223170778cd9d029606f2",
        "to": "0xc18360217d8f7ab5e7c516566761ea12ce7f9d72",
        "gas": "0x14630",
        "value": "0x0",
        "input": "0xa9059cbb0000000000000000000000004320d597fbd545f8a747f61b209cf9a106e02e940000000000000000000000000000000000000000000000008ac7230489e80000",
        "nonce": "0x1",
        "chainId": "0x1"
      },
      "additionalContracts": [],
      "isFixedGasLimit": false
    },
    {
      "hash": "0x414da02d6994c2998ce25b57f49abb8b6fc8d703ad36987e5306525971ba6815",
      "transactionType": "CALL",
      "contractName": null,
      "contractAddress": "0x4320d597fbd545f8a747f61b209cf9a106e02e94",
      "function": null,
      "arguments": null,
      "transaction": {
        "from": "0x690f0581ececcf8389c223170778cd9d029606f2",
        "to": "0x4320d597fbd545f8a747f61b209cf9a106e02e94",
        "gas": "0x714d",
        "value": "0xde0b6b3a7640000",
        "input": "0x",
        "nonce": "0x2",
        "chainId": "0x1"
      },
      "additionalContracts": [],
      "isFixedGasLimit": false
    },
    {
      "hash": "0xc76a77ad89c47b1530ea09aa80ae90c22bef554de1c8876b4ed1c462ce8f262b",
      "transactionType": "CALL",
      "contractName": null,
      "contractAddress": "0xc18360217d8f7ab5e7c516566761ea12ce7f9d72",
      "function": "delegate(address)",
      "arguments": [
        "0x4320d597fBd545F8A747f61B209Cf9a106E02e94"
      ],
      "transaction": {
        "from": "0x4320d597fbd545f8a747f61b209cf9a106e02e94",
        "to": "0xc18360217d8f7ab5e7c516566761ea12ce7f9d72",
        "gas": "0x2084c",
        "value": "0x0",
        "input": "0x5c19a95c0000000000000000000000004320d597fbd545f8a747f61b209cf9a106e02e94",
        "nonce": "0x0",
        "chainId": "0x1"
      },
      "additionalContracts": [],
      "isFixedGasLimit": false
    }
  ],
  "receipts": [
    {
      "status": "0x1",
      "cumulativeGasUsed": "0xdf09",
      "logs": [
        {
          "address": "0xc18360217d8f7ab5e7c516566761ea12ce7f9d72",
          "topics": [
            "0xddf252ad1be2c89b69c2b068fc378daa952ba7f163c4a11628f55a4df523b3ef",
            "0x000000000000000000000000690f0581ececcf8389c223170778cd9d029606f2",
            "0x0000000000000000000000004320d597fbd545f8a747f61b209cf9a106e02e94"
          ],
          "data": "0x0000000000000000000000000000000000000000000000008ac7230489e80000",
          "blockHash": "0xe3c1883d59a94fbc277d7de56861c6de4d8493c10829ff3f4ac9ce57fe61e54d",
          "blockNumber": "0x157da97",
          "blockTimestamp": "0x682e6e41",
          "transactionHash": "0xf8a2faa6ee6fd870157601040c474d111c11c5e5652a0e238c96245cf2135303",
          "transactionIndex": "0x0",
          "logIndex": "0x0",
          "removed": false
        }
      ],
      "logsBloom": "0x00000000000000000000000000010000000000000000000000000000000000000001000000000000000000000000000001000000000004000000000000000000000000000000000000000008000000000000000000040000000000000000000000000000000000000004000000000000000000000000000008000010000000000000000000000000000000000000000000000000000000000000000000000000000000000000000000000000000000000000000000000000000000000000000000000002000000000000000000000000000000000000000000000000000000000001000000000000000000100000000000000000000000000000000000000000",
      "type": "0x2",
      "transactionHash": "0xf8a2faa6ee6fd870157601040c474d111c11c5e5652a0e238c96245cf2135303",
      "transactionIndex": "0x0",
      "blockHash": "0xe3c1883d59a94fbc277d7de56861c6de4d8493c10829ff3f4ac9ce57fe61e54d",
      "blockNumber": "0x157da97",
      "gasUsed": "0xdf09",
      "effectiveGasPrice": "0x3bc09438",
      "blobGasPrice": "0x1",
      "from": "0x690f0581ececcf8389c223170778cd9d029606f2",
      "to": "0xc18360217d8f7ab5e7c516566761ea12ce7f9d72",
      "contractAddress": null
    },
    {
      "status": "0x1",
      "cumulativeGasUsed": "0x5208",
      "logs": [],
      "logsBloom": "0x00000000000000000000000000000000000000000000000000000000000000000000000000000000000000000000000000000000000000000000000000000000000000000000000000000000000000000000000000000000000000000000000000000000000000000000000000000000000000000000000000000000000000000000000000000000000000000000000000000000000000000000000000000000000000000000000000000000000000000000000000000000000000000000000000000000000000000000000000000000000000000000000000000000000000000000000000000000000000000000000000000000000000000000000000000000",
      "type": "0x2",
      "transactionHash": "0x414da02d6994c2998ce25b57f49abb8b6fc8d703ad36987e5306525971ba6815",
      "transactionIndex": "0x0",
      "blockHash": "0xc0ff935b960dcccf05eb147dec2888c4e56f6e6b13e561c465029fe1e53a782f",
      "blockNumber": "0x157da98",
      "gasUsed": "0x5208",
      "effectiveGasPrice": "0x34ada301",
      "blobGasPrice": "0x1",
      "from": "0x690f0581ececcf8389c223170778cd9d029606f2",
      "to": "0x4320d597fbd545f8a747f61b209cf9a106e02e94",
      "contractAddress": null
    },
    {
      "status": "0x1",
      "cumulativeGasUsed": "0x178b0",
      "logs": [
        {
          "address": "0xc18360217d8f7ab5e7c516566761ea12ce7f9d72",
          "topics": [
            "0x3134e8a2e6d97e929a7e54011ea5485d7d196dd5f0ba4d4ef95803e8e3fc257f",
            "0x0000000000000000000000004320d597fbd545f8a747f61b209cf9a106e02e94",
            "0x0000000000000000000000000000000000000000000000000000000000000000",
            "0x0000000000000000000000004320d597fbd545f8a747f61b209cf9a106e02e94"
          ],
          "data": "0x",
          "blockHash": "0x7f92dca307fcb720175a8e63dd8c161737322deb66f2d1dc907d9790109a9391",
          "blockNumber": "0x157da99",
          "blockTimestamp": "0x682e6e42",
          "transactionHash": "0xc76a77ad89c47b1530ea09aa80ae90c22bef554de1c8876b4ed1c462ce8f262b",
          "transactionIndex": "0x0",
          "logIndex": "0x0",
          "removed": false
        },
        {
          "address": "0xc18360217d8f7ab5e7c516566761ea12ce7f9d72",
          "topics": [
            "0xdec2bacdd2f05b59de34da9b523dff8be42e5e38e818c82fdb0bae774387a724",
            "0x0000000000000000000000004320d597fbd545f8a747f61b209cf9a106e02e94"
          ],
          "data": "0x00000000000000000000000000000000000000000000000000000000000000000000000000000000000000000000000000000000000000008ac7230489e80000",
          "blockHash": "0x7f92dca307fcb720175a8e63dd8c161737322deb66f2d1dc907d9790109a9391",
          "blockNumber": "0x157da99",
          "blockTimestamp": "0x682e6e42",
          "transactionHash": "0xc76a77ad89c47b1530ea09aa80ae90c22bef554de1c8876b4ed1c462ce8f262b",
          "transactionIndex": "0x0",
          "logIndex": "0x1",
          "removed": false
        }
      ],
      "logsBloom": "0x00000000000000000000000000000000000020000000000000000000000000000001000000000200000010000000000000020000000004000000000000000000000000000000000000000000000000000000000000040000000000000000000000000000020000000040000000000800000000000000000008000000000000000000000000000000000000000000000000000000000000000000000000000000040000000000000000000000000000000000000000000000000000000000000000000000000000000000000000000000000000000000000000000000000020000001000000000000000000100000000000000000000000000000000000000000",
      "type": "0x2",
      "transactionHash": "0xc76a77ad89c47b1530ea09aa80ae90c22bef554de1c8876b4ed1c462ce8f262b",
      "transactionIndex": "0x0",
      "blockHash": "0x7f92dca307fcb720175a8e63dd8c161737322deb66f2d1dc907d9790109a9391",
      "blockNumber": "0x157da99",
      "gasUsed": "0x178b0",
      "effectiveGasPrice": "0x2e7927ac",
      "blobGasPrice": "0x1",
      "from": "0x4320d597fbd545f8a747f61b209cf9a106e02e94",
      "to": "0xc18360217d8f7ab5e7c516566761ea12ce7f9d72",
      "contractAddress": null
    }
  ],
  "libraries": [],
  "pending": [],
  "returns": {},
  "timestamp": 1747873355,
  "chain": 1,
  "commit": "15725da"
}