{
  "transactions": [
    {
      "hash": null,
      "transactionType": "CALL",
      "contractName": null,
      "contractAddress": "0xc18360217d8f7ab5e7c516566761ea12ce7f9d72",
      "function": "transfer(address,uint256)",
      "arguments": [
        "0x4320d597fBd545F8A747f61B209Cf9a106E02e94",
        "10000000000000000000"
      ],
      "transaction": {
        "from": "0x245445940b317e509002eb682e03f4429184059d",
        "to": "0xc18360217d8f7ab5e7c516566761ea12ce7f9d72",
        "gas": "0x14630",
        "value": "0x0",
        "input": "0xa9059cbb0000000000000000000000004320d597fbd545f8a747f61b209cf9a106e02e940000000000000000000000000000000000000000000000008ac7230489e80000",
        "nonce": "0xe3",
        "chainId": "0x1"
      },
      "additionalContracts": [],
      "isFixedGasLimit": false
    },
    {
      "hash": null,
      "transactionType": "CALL",
      "contractName": null,
      "contractAddress": "0xc18360217d8f7ab5e7c516566761ea12ce7f9d72",
      "function": "delegate(address)",
      "arguments": [
        "0x4320d597fBd545F8A747f61B209Cf9a106E02e94"
      ],
      "transaction": {
        "from": "0x4320d597fbd545f8a747f61b209cf9a106e02e94",
        "to": "0xc18360217d8f7ab5e7c516566761ea12ce7f9d72",
        "gas": "0x2084c",
        "value": "0x0",
        "input": "0x5c19a95c0000000000000000000000004320d597fbd545f8a747f61b209cf9a106e02e94",
        "nonce": "0x0",
        "chainId": "0x1"
      },
      "additionalContracts": [],
      "isFixedGasLimit": false
    }
  ],
  "receipts": [],
  "libraries": [],
  "pending": [],
  "returns": {},
  "timestamp": 1747862100,
  "chain": 1,
  "commit": "28accf4"
}