{
  "transactions": [
    {
      "hash": "0xd5db41f6cb1a2cb099d6f2ca31a6ee8af79f58f2aadaffddd07326ff4a7b6864",
      "transactionType": "CALL",
      "contractName": null,
      "contractAddress": "0xc18360217d8f7ab5e7c516566761ea12ce7f9d72",
      "function": "transfer(address,uint256)",
      "arguments": [
        "0x4320d597fBd545F8A747f61B209Cf9a106E02e94",
        "10000000000000000000"
      ],
      "transaction": {
        "from": "0x690f0581ececcf8389c223170778cd9d029606f2",
        "to": "0xc18360217d8f7ab5e7c516566761ea12ce7f9d72",
        "gas": "0x18d03",
        "value": "0x0",
        "input": "0xa9059cbb0000000000000000000000004320d597fbd545f8a747f61b209cf9a106e02e940000000000000000000000000000000000000000000000008ac7230489e80000",
        "nonce": "0x5",
        "chainId": "0x1"
      },
      "additionalContracts": [],
      "isFixedGasLimit": false
    },
    {
      "hash": "0x8695f4f6573500433b2ba2dff004696e04c59defe9a1137fc9a2e74e6cf80b1d",
      "transactionType": "CALL",
      "contractName": null,
      "contractAddress": "0x4320d597fbd545f8a747f61b209cf9a106e02e94",
      "function": null,
      "arguments": null,
      "transaction": {
        "from": "0x690f0581ececcf8389c223170778cd9d029606f2",
        "to": "0x4320d597fbd545f8a747f61b209cf9a106e02e94",
        "gas": "0x714d",
        "value": "0xde0b6b3a7640000",
        "input": "0x",
        "nonce": "0x6",
        "chainId": "0x1"
      },
      "additionalContracts": [],
      "isFixedGasLimit": false
    },
    {
      "hash": "0x6130af1568dec52ad9b1e5eb361d87d5ae6fec57b875fe390068fa030e0ff603",
      "transactionType": "CALL",
      "contractName": null,
      "contractAddress": "0xc18360217d8f7ab5e7c516566761ea12ce7f9d72",
      "function": "delegate(address)",
      "arguments": [
        "0x4320d597fBd545F8A747f61B209Cf9a106E02e94"
      ],
      "transaction": {
        "from": "0x4320d597fbd545f8a747f61b209cf9a106e02e94",
        "to": "0xc18360217d8f7ab5e7c516566761ea12ce7f9d72",
        "gas": "0x9c1f",
        "value": "0x0",
        "input": "0x5c19a95c0000000000000000000000004320d597fbd545f8a747f61b209cf9a106e02e94",
        "nonce": "0x2",
        "chainId": "0x1"
      },
      "additionalContracts": [],
      "isFixedGasLimit": false
    }
  ],
  "receipts": [
    {
      "status": "0x1",
      "cumulativeGasUsed": "0x11f6f",
      "logs": [
        {
          "address": "0xc18360217d8f7ab5e7c516566761ea12ce7f9d72",
          "topics": [
            "0xddf252ad1be2c89b69c2b068fc378daa952ba7f163c4a11628f55a4df523b3ef",
            "0x000000000000000000000000690f0581ececcf8389c223170778cd9d029606f2",
            "0x0000000000000000000000004320d597fbd545f8a747f61b209cf9a106e02e94"
          ],
          "data": "0x0000000000000000000000000000000000000000000000008ac7230489e80000",
          "blockHash": "0x11e5f1550bad051bde476197c7ee2246e02ae2f9cccea5fcd193bb8daa5e9081",
          "blockNumber": "0x157d6fa",
          "blockTimestamp": "0x682e45f7",
          "transactionHash": "0xd5db41f6cb1a2cb099d6f2ca31a6ee8af79f58f2aadaffddd07326ff4a7b6864",
          "transactionIndex": "0x0",
          "logIndex": "0x0",
          "removed": false
        },
        {
          "address": "0xc18360217d8f7ab5e7c516566761ea12ce7f9d72",
          "topics": [
            "0xdec2bacdd2f05b59de34da9b523dff8be42e5e38e818c82fdb0bae774387a724",
            "0x0000000000000000000000004320d597fbd545f8a747f61b209cf9a106e02e94"
          ],
          "data": "0x000000000000000000000000000000000000000000000001158e460913d00000000000000000000000000000000000000000000000000001a055690d9db80000",
          "blockHash": "0x11e5f1550bad051bde476197c7ee2246e02ae2f9cccea5fcd193bb8daa5e9081",
          "blockNumber": "0x157d6fa",
          "blockTimestamp": "0x682e45f7",
          "transactionHash": "0xd5db41f6cb1a2cb099d6f2ca31a6ee8af79f58f2aadaffddd07326ff4a7b6864",
          "transactionIndex": "0x0",
          "logIndex": "0x1",
          "removed": false
        }
      ],
      "logsBloom": "0x00000000000000000000000000010000000000000000000000000000000000000001000000000200000000000000000001000000000004000000000000000000000000000000000000000008000000000000000000040000000000000000000000000000000000000044000000000000000000000000000008000010000000000000000000000000000000000000000000000000000000000000000000000000040000000000000000000000000000000000000000000000000000000000000000000002000000000000000000000000000000000000000000000000000000000001000000000000000000100000000000000000000000000000000000000000",
      "type": "0x2",
      "transactionHash": "0xd5db41f6cb1a2cb099d6f2ca31a6ee8af79f58f2aadaffddd07326ff4a7b6864",
      "transactionIndex": "0x0",
      "blockHash": "0x11e5f1550bad051bde476197c7ee2246e02ae2f9cccea5fcd193bb8daa5e9081",
      "blockNumber": "0x157d6fa",
      "gasUsed": "0x11f6f",
      "effectiveGasPrice": "0x1adba5f1",
      "blobGasPrice": "0x1",
      "from": "0x690f0581ececcf8389c223170778cd9d029606f2",
      "to": "0xc18360217d8f7ab5e7c516566761ea12ce7f9d72",
      "contractAddress": null
    },
    {
      "status": "0x1",
      "cumulativeGasUsed": "0x5208",
      "logs": [],
      "logsBloom": "0x00000000000000000000000000000000000000000000000000000000000000000000000000000000000000000000000000000000000000000000000000000000000000000000000000000000000000000000000000000000000000000000000000000000000000000000000000000000000000000000000000000000000000000000000000000000000000000000000000000000000000000000000000000000000000000000000000000000000000000000000000000000000000000000000000000000000000000000000000000000000000000000000000000000000000000000000000000000000000000000000000000000000000000000000000000000",
      "type": "0x2",
      "transactionHash": "0x8695f4f6573500433b2ba2dff004696e04c59defe9a1137fc9a2e74e6cf80b1d",
      "transactionIndex": "0x0",
      "blockHash": "0x6d640744e07fff7e8f17fa2facb1590a0806eab14094e5216759b2f1a98e4d5b",
      "blockNumber": "0x157d6fb",
      "gasUsed": "0x5208",
      "effectiveGasPrice": "0x1803a8e8",
      "blobGasPrice": "0x1",
      "from": "0x690f0581ececcf8389c223170778cd9d029606f2",
      "to": "0x4320d597fbd545f8a747f61b209cf9a106e02e94",
      "contractAddress": null
    },
    {
      "status": "0x1",
      "cumulativeGasUsed": "0x7108",
      "logs": [
        {
          "address": "0xc18360217d8f7ab5e7c516566761ea12ce7f9d72",
          "topics": [
            "0x3134e8a2e6d97e929a7e54011ea5485d7d196dd5f0ba4d4ef95803e8e3fc257f",
            "0x0000000000000000000000004320d597fbd545f8a747f61b209cf9a106e02e94",
            "0x0000000000000000000000004320d597fbd545f8a747f61b209cf9a106e02e94",
            "0x0000000000000000000000004320d597fbd545f8a747f61b209cf9a106e02e94"
          ],
          "data": "0x",
          "blockHash": "0x6d05a464a7b6fa98d6d916b01602b9dd8e8c7947241bbecfc4b99f42d44d78a9",
          "blockNumber": "0x157d6fc",
          "blockTimestamp": "0x682e45f7",
          "transactionHash": "0x6130af1568dec52ad9b1e5eb361d87d5ae6fec57b875fe390068fa030e0ff603",
          "transactionIndex": "0x0",
          "logIndex": "0x0",
          "removed": false
        }
      ],
      "logsBloom": "0x00000000000000000000000000000000000020000000000000000000000000000001000000000000000010000000000000020000000004000000000000000000000000000000000000000000000000000000000000040000000000000000000000000000000000000000000000000000000000000000000008000000000000000000000000000000000000000000000000000000000000000000000000000000000000000000000000000000000000000000000000000000000000000000000000000000000000000000000000000000000000000000000000000000000000000001000000000000000000100000000000000000000000000000000000000000",
      "type": "0x2",
      "transactionHash": "0x6130af1568dec52ad9b1e5eb361d87d5ae6fec57b875fe390068fa030e0ff603",
      "transactionIndex": "0x0",
      "blockHash": "0x6d05a464a7b6fa98d6d916b01602b9dd8e8c7947241bbecfc4b99f42d44d78a9",
      "blockNumber": "0x157d6fc",
      "gasUsed": "0x7108",
      "effectiveGasPrice": "0x15846da9",
      "blobGasPrice": "0x1",
      "from": "0x4320d597fbd545f8a747f61b209cf9a106e02e94",
      "to": "0xc18360217d8f7ab5e7c516566761ea12ce7f9d72",
      "contractAddress": null
    }
  ],
  "libraries": [],
  "pending": [],
  "returns": {},
  "timestamp": 1747863042,
  "chain": 1,
  "commit": "28accf4"
}