{
  "transactions": [
    {
      "hash": "0xdfcb805fbbad3050e878cc881606b1e9cdee38a0f8efd0831c3a229e439cd5fc",
      "transactionType": "CALL",
      "contractName": null,
      "contractAddress": "0xc18360217d8f7ab5e7c516566761ea12ce7f9d72",
      "function": "transfer(address,uint256)",
      "arguments": [
        "0x4320d597fBd545F8A747f61B209Cf9a106E02e94",
        "1000000000000000000000"
      ],
      "transaction": {
        "from": "0x690f0581ececcf8389c223170778cd9d029606f2",
        "to": "0xc18360217d8f7ab5e7c516566761ea12ce7f9d72",
        "gas": "0x1a470",
        "value": "0x0",
        "input": "0xa9059cbb0000000000000000000000004320d597fbd545f8a747f61b209cf9a106e02e9400000000000000000000000000000000000000000000003635c9adc5dea00000",
        "nonce": "0x6",
        "chainId": "0x1"
      },
      "additionalContracts": [],
      "isFixedGasLimit": false
    },
    {
      "hash": "0xce7c9bffac9b915af34c0b9bc99e3d1c8d23591fae1383b1098b710c01cbe305",
      "transactionType": "CALL",
      "contractName": null,
      "contractAddress": "0x4320d597fbd545f8a747f61b209cf9a106e02e94",
      "function": null,
      "arguments": null,
      "transaction": {
        "from": "0x690f0581ececcf8389c223170778cd9d029606f2",
        "to": "0x4320d597fbd545f8a747f61b209cf9a106e02e94",
        "gas": "0x714d",
        "value": "0xde0b6b3a7640000",
        "input": "0x",
        "nonce": "0x7",
        "chainId": "0x1"
      },
      "additionalContracts": [],
      "isFixedGasLimit": false
    },
    {
      "hash": "0xaa1847710c83929c49bb7fa75b731aafdc50b7aeb9fd5ea2e4cc4d5967ac2e28",
      "transactionType": "CALL",
      "contractName": null,
      "contractAddress": "0xc18360217d8f7ab5e7c516566761ea12ce7f9d72",
      "function": "delegate(address)",
      "arguments": [
        "0x4320d597fBd545F8A747f61B209Cf9a106E02e94"
      ],
      "transaction": {
        "from": "0x4320d597fbd545f8a747f61b209cf9a106e02e94",
        "to": "0xc18360217d8f7ab5e7c516566761ea12ce7f9d72",
        "gas": "0x9c1f",
        "value": "0x0",
        "input": "0x5c19a95c0000000000000000000000004320d597fbd545f8a747f61b209cf9a106e02e94",
        "nonce": "0x2",
        "chainId": "0x1"
      },
      "additionalContracts": [],
      "isFixedGasLimit": false
    }
  ],
  "receipts": [
    {
      "status": "0x1",
      "cumulativeGasUsed": "0x11f7b",
      "logs": [
        {
          "address": "0xc18360217d8f7ab5e7c516566761ea12ce7f9d72",
          "topics": [
            "0xddf252ad1be2c89b69c2b068fc378daa952ba7f163c4a11628f55a4df523b3ef",
            "0x000000000000000000000000690f0581ececcf8389c223170778cd9d029606f2",
            "0x0000000000000000000000004320d597fbd545f8a747f61b209cf9a106e02e94"
          ],
          "data": "0x00000000000000000000000000000000000000000000003635c9adc5dea00000",
          "blockHash": "0xd4954d2f3467dc1dfe98c9c8ad54fe93d6f2b0f7a0b05799cb7d5c1f47793eb1",
          "blockNumber": "0x157da9e",
          "blockTimestamp": "0x682e8d91",
          "transactionHash": "0xdfcb805fbbad3050e878cc881606b1e9cdee38a0f8efd0831c3a229e439cd5fc",
          "transactionIndex": "0x0",
          "logIndex": "0x0",
          "removed": false
        },
        {
          "address": "0xc18360217d8f7ab5e7c516566761ea12ce7f9d72",
          "topics": [
            "0xdec2bacdd2f05b59de34da9b523dff8be42e5e38e818c82fdb0bae774387a724",
            "0x0000000000000000000000004320d597fbd545f8a747f61b209cf9a106e02e94"
          ],
          "data": "0x000000000000000000000000000000000000000000000036c090d0ca6888000000000000000000000000000000000000000000000000006cf65a7e9047280000",
          "blockHash": "0xd4954d2f3467dc1dfe98c9c8ad54fe93d6f2b0f7a0b05799cb7d5c1f47793eb1",
          "blockNumber": "0x157da9e",
          "blockTimestamp": "0x682e8d91",
          "transactionHash": "0xdfcb805fbbad3050e878cc881606b1e9cdee38a0f8efd0831c3a229e439cd5fc",
          "transactionIndex": "0x0",
          "logIndex": "0x1",
          "removed": false
        }
      ],
      "logsBloom": "0x00000000000000000000000000010000000000000000000000000000000000000001000000000200000000000000000001000000000004000000000000000000000000000000000000000008000000000000000000040000000000000000000000000000000000000044000000000000000000000000000008000010000000000000000000000000000000000000000000000000000000000000000000000000040000000000000000000000000000000000000000000000000000000000000000000002000000000000000000000000000000000000000000000000000000000001000000000000000000100000000000000000000000000000000000000000",
      "type": "0x2",
      "transactionHash": "0xdfcb805fbbad3050e878cc881606b1e9cdee38a0f8efd0831c3a229e439cd5fc",
      "transactionIndex": "0x0",
      "blockHash": "0xd4954d2f3467dc1dfe98c9c8ad54fe93d6f2b0f7a0b05799cb7d5c1f47793eb1",
      "blockNumber": "0x157da9e",
      "gasUsed": "0x11f7b",
      "effectiveGasPrice": "0x1956f8c2",
      "blobGasPrice": "0x1",
      "from": "0x690f0581ececcf8389c223170778cd9d029606f2",
      "to": "0xc18360217d8f7ab5e7c516566761ea12ce7f9d72",
      "contractAddress": null
    },
    {
      "status": "0x1",
      "cumulativeGasUsed": "0x5208",
      "logs": [],
      "logsBloom": "0x00000000000000000000000000000000000000000000000000000000000000000000000000000000000000000000000000000000000000000000000000000000000000000000000000000000000000000000000000000000000000000000000000000000000000000000000000000000000000000000000000000000000000000000000000000000000000000000000000000000000000000000000000000000000000000000000000000000000000000000000000000000000000000000000000000000000000000000000000000000000000000000000000000000000000000000000000000000000000000000000000000000000000000000000000000000",
      "type": "0x2",
      "transactionHash": "0xce7c9bffac9b915af34c0b9bc99e3d1c8d23591fae1383b1098b710c01cbe305",
      "transactionIndex": "0x0",
      "blockHash": "0x36a8f0b8372b41c7d85c00b618668c1ba2ca22c205249c3ff3863fdd37ca2dad",
      "blockNumber": "0x157da9f",
      "gasUsed": "0x5208",
      "effectiveGasPrice": "0x168e64a2",
      "blobGasPrice": "0x1",
      "from": "0x690f0581ececcf8389c223170778cd9d029606f2",
      "to": "0x4320d597fbd545f8a747f61b209cf9a106e02e94",
      "contractAddress": null
    },
    {
      "status": "0x1",
      "cumulativeGasUsed": "0x7108",
      "logs": [
        {
          "address": "0xc18360217d8f7ab5e7c516566761ea12ce7f9d72",
          "topics": [
            "0x3134e8a2e6d97e929a7e54011ea5485d7d196dd5f0ba4d4ef95803e8e3fc257f",
            "0x0000000000000000000000004320d597fbd545f8a747f61b209cf9a106e02e94",
            "0x0000000000000000000000004320d597fbd545f8a747f61b209cf9a106e02e94",
            "0x0000000000000000000000004320d597fbd545f8a747f61b209cf9a106e02e94"
          ],
          "data": "0x",
          "blockHash": "0x3b984bfd56c81c276a808fa6294112d57c21794e854caa21592f1eeec0d2cd16",
          "blockNumber": "0x157daa0",
          "blockTimestamp": "0x682e8d91",
          "transactionHash": "0xaa1847710c83929c49bb7fa75b731aafdc50b7aeb9fd5ea2e4cc4d5967ac2e28",
          "transactionIndex": "0x0",
          "logIndex": "0x0",
          "removed": false
        }
      ],
      "logsBloom": "0x00000000000000000000000000000000000020000000000000000000000000000001000000000000000010000000000000020000000004000000000000000000000000000000000000000000000000000000000000040000000000000000000000000000000000000000000000000000000000000000000008000000000000000000000000000000000000000000000000000000000000000000000000000000000000000000000000000000000000000000000000000000000000000000000000000000000000000000000000000000000000000000000000000000000000000001000000000000000000100000000000000000000000000000000000000000",
      "type": "0x2",
      "transactionHash": "0xaa1847710c83929c49bb7fa75b731aafdc50b7aeb9fd5ea2e4cc4d5967ac2e28",
      "transactionIndex": "0x0",
      "blockHash": "0x3b984bfd56c81c276a808fa6294112d57c21794e854caa21592f1eeec0d2cd16",
      "blockNumber": "0x157daa0",
      "gasUsed": "0x7108",
      "effectiveGasPrice": "0x141cb136",
      "blobGasPrice": "0x1",
      "from": "0x4320d597fbd545f8a747f61b209cf9a106e02e94",
      "to": "0xc18360217d8f7ab5e7c516566761ea12ce7f9d72",
      "contractAddress": null
    }
  ],
  "libraries": [],
  "pending": [],
  "returns": {},
  "timestamp": 1747881370,
  "chain": 1,
  "commit": "ce56278"
}