{
  "transactions": [
    {
      "hash": "0x4c5a2ac03e55a52103e53f8245ae9ce8fb3ef66ef713ee4ac9deb872bf79e992",
      "transactionType": "CALL",
      "contractName": null,
      "contractAddress": "0xc18360217d8f7ab5e7c516566761ea12ce7f9d72",
      "function": "transfer(address,uint256)",
      "arguments": [
        "0x4320d597fBd545F8A747f61B209Cf9a106E02e94",
        "10000000000000000000"
      ],
      "transaction": {
        "from": "0x690f0581ececcf8389c223170778cd9d029606f2",
        "to": "0xc18360217d8f7ab5e7c516566761ea12ce7f9d72",
        "gas": "0x18d03",
        "value": "0x0",
        "input": "0xa9059cbb0000000000000000000000004320d597fbd545f8a747f61b209cf9a106e02e940000000000000000000000000000000000000000000000008ac7230489e80000",
        "nonce": "0x3",
        "chainId": "0x1"
      },
      "additionalContracts": [],
      "isFixedGasLimit": false
    },
    {
      "hash": "0xaf00244656f7641fe347e568fc64dd84e1b4cc820b5d1e779ab0a025e842fc49",
      "transactionType": "CALL",
      "contractName": null,
      "contractAddress": "0x4320d597fbd545f8a747f61b209cf9a106e02e94",
      "function": null,
      "arguments": null,
      "transaction": {
        "from": "0x690f0581ececcf8389c223170778cd9d029606f2",
        "to": "0x4320d597fbd545f8a747f61b209cf9a106e02e94",
        "gas": "0x714d",
        "value": "0xde0b6b3a7640000",
        "input": "0x",
        "nonce": "0x4",
        "chainId": "0x1"
      },
      "additionalContracts": [],
      "isFixedGasLimit": false
    },
    {
      "hash": "0xa4d0216485294a94d6c4dd392a55db0a705f2d25aabbf26be06d2d3a39dea909",
      "transactionType": "CALL",
      "contractName": null,
      "contractAddress": "0xc18360217d8f7ab5e7c516566761ea12ce7f9d72",
      "function": "delegate(address)",
      "arguments": [
        "0x4320d597fBd545F8A747f61B209Cf9a106E02e94"
      ],
      "transaction": {
        "from": "0x4320d597fbd545f8a747f61b209cf9a106e02e94",
        "to": "0xc18360217d8f7ab5e7c516566761ea12ce7f9d72",
        "gas": "0x9c1f",
        "value": "0x0",
        "input": "0x5c19a95c0000000000000000000000004320d597fbd545f8a747f61b209cf9a106e02e94",
        "nonce": "0x1",
        "chainId": "0x1"
      },
      "additionalContracts": [],
      "isFixedGasLimit": false
    }
  ],
  "receipts": [
    {
      "status": "0x1",
      "cumulativeGasUsed": "0x11f6f",
      "logs": [
        {
          "address": "0xc18360217d8f7ab5e7c516566761ea12ce7f9d72",
          "topics": [
            "0xddf252ad1be2c89b69c2b068fc378daa952ba7f163c4a11628f55a4df523b3ef",
            "0x000000000000000000000000690f0581ececcf8389c223170778cd9d029606f2",
            "0x0000000000000000000000004320d597fbd545f8a747f61b209cf9a106e02e94"
          ],
          "data": "0x0000000000000000000000000000000000000000000000008ac7230489e80000",
          "blockHash": "0xf2b9b6a1ecfe5741ac8ca9e6465622a410fba0ef7738363c55d417e26e2be4b7",
          "blockNumber": "0x157d6f7",
          "blockTimestamp": "0x682e45e9",
          "transactionHash": "0x4c5a2ac03e55a52103e53f8245ae9ce8fb3ef66ef713ee4ac9deb872bf79e992",
          "transactionIndex": "0x0",
          "logIndex": "0x0",
          "removed": false
        },
        {
          "address": "0xc18360217d8f7ab5e7c516566761ea12ce7f9d72",
          "topics": [
            "0xdec2bacdd2f05b59de34da9b523dff8be42e5e38e818c82fdb0bae774387a724",
            "0x0000000000000000000000004320d597fbd545f8a747f61b209cf9a106e02e94"
          ],
          "data": "0x0000000000000000000000000000000000000000000000008ac7230489e80000000000000000000000000000000000000000000000000001158e460913d00000",
          "blockHash": "0xf2b9b6a1ecfe5741ac8ca9e6465622a410fba0ef7738363c55d417e26e2be4b7",
          "blockNumber": "0x157d6f7",
          "blockTimestamp": "0x682e45e9",
          "transactionHash": "0x4c5a2ac03e55a52103e53f8245ae9ce8fb3ef66ef713ee4ac9deb872bf79e992",
          "transactionIndex": "0x0",
          "logIndex": "0x1",
          "removed": false
        }
      ],
      "logsBloom": "0x00000000000000000000000000010000000000000000000000000000000000000001000000000200000000000000000001000000000004000000000000000000000000000000000000000008000000000000000000040000000000000000000000000000000000000044000000000000000000000000000008000010000000000000000000000000000000000000000000000000000000000000000000000000040000000000000000000000000000000000000000000000000000000000000000000002000000000000000000000000000000000000000000000000000000000001000000000000000000100000000000000000000000000000000000000000",
      "type": "0x2",
      "transactionHash": "0x4c5a2ac03e55a52103e53f8245ae9ce8fb3ef66ef713ee4ac9deb872bf79e992",
      "transactionIndex": "0x0",
      "blockHash": "0xf2b9b6a1ecfe5741ac8ca9e6465622a410fba0ef7738363c55d417e26e2be4b7",
      "blockNumber": "0x157d6f7",
      "gasUsed": "0x11f6f",
      "effectiveGasPrice": "0x26146186",
      "blobGasPrice": "0x1",
      "from": "0x690f0581ececcf8389c223170778cd9d029606f2",
      "to": "0xc18360217d8f7ab5e7c516566761ea12ce7f9d72",
      "contractAddress": null
    },
    {
      "status": "0x1",
      "cumulativeGasUsed": "0x5208",
      "logs": [],
      "logsBloom": "0x00000000000000000000000000000000000000000000000000000000000000000000000000000000000000000000000000000000000000000000000000000000000000000000000000000000000000000000000000000000000000000000000000000000000000000000000000000000000000000000000000000000000000000000000000000000000000000000000000000000000000000000000000000000000000000000000000000000000000000000000000000000000000000000000000000000000000000000000000000000000000000000000000000000000000000000000000000000000000000000000000000000000000000000000000000000",
      "type": "0x2",
      "transactionHash": "0xaf00244656f7641fe347e568fc64dd84e1b4cc820b5d1e779ab0a025e842fc49",
      "transactionIndex": "0x0",
      "blockHash": "0x399259e1eb6ed69e5dbe7b47f9efcd6bb0577353f4acbb336fb8208cb474e635",
      "blockNumber": "0x157d6f8",
      "gasUsed": "0x5208",
      "effectiveGasPrice": "0x21d6c4d5",
      "blobGasPrice": "0x1",
      "from": "0x690f0581ececcf8389c223170778cd9d029606f2",
      "to": "0x4320d597fbd545f8a747f61b209cf9a106e02e94",
      "contractAddress": null
    },
    {
      "status": "0x1",
      "cumulativeGasUsed": "0x7108",
      "logs": [
        {
          "address": "0xc18360217d8f7ab5e7c516566761ea12ce7f9d72",
          "topics": [
            "0x3134e8a2e6d97e929a7e54011ea5485d7d196dd5f0ba4d4ef95803e8e3fc257f",
            "0x0000000000000000000000004320d597fbd545f8a747f61b209cf9a106e02e94",
            "0x0000000000000000000000004320d597fbd545f8a747f61b209cf9a106e02e94",
            "0x0000000000000000000000004320d597fbd545f8a747f61b209cf9a106e02e94"
          ],
          "data": "0x",
          "blockHash": "0x4ad92bf591004134c351ad1c05e6a6c43823a143af45c56a62425c4ece7ed7a4",
          "blockNumber": "0x157d6f9",
          "blockTimestamp": "0x682e45e9",
          "transactionHash": "0xa4d0216485294a94d6c4dd392a55db0a705f2d25aabbf26be06d2d3a39dea909",
          "transactionIndex": "0x0",
          "logIndex": "0x0",
          "removed": false
        }
      ],
      "logsBloom": "0x00000000000000000000000000000000000020000000000000000000000000000001000000000000000010000000000000020000000004000000000000000000000000000000000000000000000000000000000000040000000000000000000000000000000000000000000000000000000000000000000008000000000000000000000000000000000000000000000000000000000000000000000000000000000000000000000000000000000000000000000000000000000000000000000000000000000000000000000000000000000000000000000000000000000000000001000000000000000000100000000000000000000000000000000000000000",
      "type": "0x2",
      "transactionHash": "0xa4d0216485294a94d6c4dd392a55db0a705f2d25aabbf26be06d2d3a39dea909",
      "transactionIndex": "0x0",
      "blockHash": "0x4ad92bf591004134c351ad1c05e6a6c43823a143af45c56a62425c4ece7ed7a4",
      "blockNumber": "0x157d6f9",
      "gasUsed": "0x7108",
      "effectiveGasPrice": "0x1e1d83ff",
      "blobGasPrice": "0x1",
      "from": "0x4320d597fbd545f8a747f61b209cf9a106e02e94",
      "to": "0xc18360217d8f7ab5e7c516566761ea12ce7f9d72",
      "contractAddress": null
    }
  ],
  "libraries": [],
  "pending": [],
  "returns": {},
  "timestamp": 1747863028,
  "chain": 1,
  "commit": "28accf4"
}