{
  "transactions": [
    {
      "hash": "0xeac976430b7540a7d45c40f9de95be46ae60ff6f28d1b746e8178b4acf0f5afc",
      "transactionType": "CALL",
      "contractName": null,
      "contractAddress": "0xc18360217d8f7ab5e7c516566761ea12ce7f9d72",
      "function": "transfer(address,uint256)",
      "arguments": [
        "0x4320d597fBd545F8A747f61B209Cf9a106E02e94",
        "10000000000000000000"
      ],
      "transaction": {
        "from": "0x245445940b317e509002eb682e03f4429184059d",
        "to": "0xc18360217d8f7ab5e7c516566761ea12ce7f9d72",
        "gas": "0x14630",
        "value": "0x0",
        "input": "0xa9059cbb0000000000000000000000004320d597fbd545f8a747f61b209cf9a106e02e940000000000000000000000000000000000000000000000008ac7230489e80000",
        "nonce": "0xe3",
        "chainId": "0x1"
      },
      "additionalContracts": [],
      "isFixedGasLimit": false
    },
    {
      "hash": null,
      "transactionType": "CALL",
      "contractName": null,
      "contractAddress": "0xc18360217d8f7ab5e7c516566761ea12ce7f9d72",
      "function": "delegate(address)",
      "arguments": [
        "0x4320d597fBd545F8A747f61B209Cf9a106E02e94"
      ],
      "transaction": {
        "from": "0x4320d597fbd545f8a747f61b209cf9a106e02e94",
        "to": "0xc18360217d8f7ab5e7c516566761ea12ce7f9d72",
        "gas": "0x2084c",
        "value": "0x0",
        "input": "0x5c19a95c0000000000000000000000004320d597fbd545f8a747f61b209cf9a106e02e94",
        "nonce": "0x0",
        "chainId": "0x1"
      },
      "additionalContracts": [],
      "isFixedGasLimit": false
    }
  ],
  "receipts": [
    {
      "status": "0x1",
      "cumulativeGasUsed": "0xdf09",
      "logs": [
        {
          "address": "0xc18360217d8f7ab5e7c516566761ea12ce7f9d72",
          "topics": [
            "0xddf252ad1be2c89b69c2b068fc378daa952ba7f163c4a11628f55a4df523b3ef",
            "0x000000000000000000000000245445940b317e509002eb682e03f4429184059d",
            "0x0000000000000000000000004320d597fbd545f8a747f61b209cf9a106e02e94"
          ],
          "data": "0x0000000000000000000000000000000000000000000000008ac7230489e80000",
          "blockHash": "0x0799b57760170cc445bedefb1d05e2fce1bbb67ecab2a1d248dd4ce7266f7dc8",
          "blockNumber": "0x157d6f3",
          "blockTimestamp": "0x682e43bc",
          "transactionHash": "0xeac976430b7540a7d45c40f9de95be46ae60ff6f28d1b746e8178b4acf0f5afc",
          "transactionIndex": "0x0",
          "logIndex": "0x0",
          "removed": false
        }
      ],
      "logsBloom": "0x00000000000000000000000000000000000000000000000000000000000000000001000000000000000000000000000000000000000024000000000000000000000800000000000000000008000000000000000000040000000000000000000000000000000000000000000000000000000000000000000008000010000000000000000000000000000000000000000000000000000000000000000000000000000000008000000000000000000000000000000000000000000000000000000000000002000000000000000000000000000000000000000000000000000000000001000000000000000000100000000000000000000000000000000000000000",
      "type": "0x2",
      "transactionHash": "0xeac976430b7540a7d45c40f9de95be46ae60ff6f28d1b746e8178b4acf0f5afc",
      "transactionIndex": "0x0",
      "blockHash": "0x0799b57760170cc445bedefb1d05e2fce1bbb67ecab2a1d248dd4ce7266f7dc8",
      "blockNumber": "0x157d6f3",
      "gasUsed": "0xdf09",
      "effectiveGasPrice": "0x3e03c3aa",
      "blobGasPrice": "0x1",
      "from": "0x245445940b317e509002eb682e03f4429184059d",
      "to": "0xc18360217d8f7ab5e7c516566761ea12ce7f9d72",
      "contractAddress": null
    }
  ],
  "libraries": [],
  "pending": [],
  "returns": {},
  "timestamp": 1747862472,
  "chain": 1,
  "commit": "28accf4"
}